{
  "_format": "hh-sol-artifact-1",
  "contractName": "Agency",
  "sourceName": "contracts/Agency.sol",
  "abi": [
    {
      "inputs": [
        {
          "internalType": "string",
          "name": "_code",
          "type": "string"
        },
        {
          "internalType": "string",
          "name": "_name",
          "type": "string"
        },
        {
          "internalType": "address",
          "name": "_department",
          "type": "address"
        },
        {
          "internalType": "address",
          "name": "_owner",
          "type": "address"
        }
      ],
      "stateMutability": "nonpayable",
      "type": "constructor"
    },
    {
      "inputs": [],
      "name": "ActionNotAllowedInPhase",
      "type": "error"
    },
    {
      "inputs": [],
      "name": "EmptyString",
      "type": "error"
    },
    {
      "inputs": [],
      "name": "NotCongressMainAgency",
      "type": "error"
    },
    {
      "inputs": [],
      "name": "NotDocumentManager",
      "type": "error"
    },
    {
      "inputs": [],
      "name": "NotHouseOrSenate",
      "type": "error"
    },
    {
      "inputs": [],
      "name": "NotOwner",
      "type": "error"
    },
    {
      "inputs": [],
      "name": "ZeroAddress",
      "type": "error"
    },
    {
      "anonymous": false,
      "inputs": [
        {
          "indexed": true,
          "internalType": "address",
          "name": "manager",
          "type": "address"
        }
      ],
      "name": "DocumentManagerAdded",
      "type": "event"
    },
    {
      "anonymous": false,
      "inputs": [
        {
          "indexed": true,
          "internalType": "address",
          "name": "manager",
          "type": "address"
        }
      ],
      "name": "DocumentManagerRemoved",
      "type": "event"
    },
    {
      "anonymous": false,
      "inputs": [
        {
          "indexed": true,
          "internalType": "uint256",
          "name": "originalTokenId",
          "type": "uint256"
        },
        {
          "indexed": true,
          "internalType": "uint256",
          "name": "newTokenId",
          "type": "uint256"
        }
      ],
      "name": "ProposalAmended",
      "type": "event"
    },
    {
      "anonymous": false,
      "inputs": [
        {
          "indexed": true,
          "internalType": "uint256",
          "name": "originalTokenId",
          "type": "uint256"
        },
        {
          "indexed": true,
          "internalType": "uint256",
          "name": "newTokenId",
          "type": "uint256"
        }
      ],
      "name": "ProposalRevised",
      "type": "event"
    },
    {
      "anonymous": false,
      "inputs": [
        {
          "indexed": true,
          "internalType": "uint256",
          "name": "tokenId",
          "type": "uint256"
        },
        {
          "indexed": true,
          "internalType": "address",
          "name": "submitter",
          "type": "address"
        }
      ],
      "name": "ProposalSubmitted",
      "type": "event"
    },
    {
      "inputs": [
        {
          "internalType": "address",
          "name": "manager",
          "type": "address"
        }
      ],
      "name": "addDocumentManager",
      "outputs": [],
      "stateMutability": "nonpayable",
      "type": "function"
    },
    {
      "inputs": [
        {
          "internalType": "uint256",
          "name": "originalTokenId",
          "type": "uint256"
        },
        {
          "internalType": "string",
          "name": "newUri",
          "type": "string"
        },
        {
          "components": [
            {
              "internalType": "uint256",
              "name": "fiscalYear",
              "type": "uint256"
            },
            {
              "internalType": "bytes32",
              "name": "departmentCode",
              "type": "bytes32"
            },
            {
              "internalType": "bytes32",
              "name": "agencyCode",
              "type": "bytes32"
            },
            {
              "internalType": "bytes32",
              "name": "prexcFpapId",
              "type": "bytes32"
            },
            {
              "internalType": "bytes32",
              "name": "uacsObjCode",
              "type": "bytes32"
            },
            {
              "internalType": "uint256",
              "name": "amount",
              "type": "uint256"
            }
          ],
          "internalType": "struct Types.OnChainProposalData",
          "name": "newData",
          "type": "tuple"
        },
        {
          "internalType": "string",
          "name": "reason",
          "type": "string"
        }
      ],
      "name": "amendProposal",
      "outputs": [
        {
          "internalType": "uint256",
          "name": "newTokenId",
          "type": "uint256"
        }
      ],
      "stateMutability": "nonpayable",
      "type": "function"
    },
    {
      "inputs": [],
      "name": "code",
      "outputs": [
        {
          "internalType": "string",
          "name": "",
          "type": "string"
        }
      ],
      "stateMutability": "view",
      "type": "function"
    },
    {
      "inputs": [],
      "name": "department",
      "outputs": [
        {
          "internalType": "address",
          "name": "",
          "type": "address"
        }
      ],
      "stateMutability": "view",
      "type": "function"
    },
    {
      "inputs": [],
      "name": "getCode",
      "outputs": [
        {
          "internalType": "string",
          "name": "",
          "type": "string"
        }
      ],
      "stateMutability": "view",
      "type": "function"
    },
    {
      "inputs": [],
      "name": "getDepartment",
      "outputs": [
        {
          "internalType": "address",
          "name": "",
          "type": "address"
        }
      ],
      "stateMutability": "view",
      "type": "function"
    },
    {
      "inputs": [],
      "name": "getDocumentManagers",
      "outputs": [
        {
          "internalType": "address[]",
          "name": "",
          "type": "address[]"
        }
      ],
      "stateMutability": "view",
      "type": "function"
    },
    {
      "inputs": [],
      "name": "getName",
      "outputs": [
        {
          "internalType": "string",
          "name": "",
          "type": "string"
        }
      ],
      "stateMutability": "view",
      "type": "function"
    },
    {
      "inputs": [],
      "name": "getOwner",
      "outputs": [
        {
          "internalType": "address",
          "name": "",
          "type": "address"
        }
      ],
      "stateMutability": "view",
      "type": "function"
    },
    {
      "inputs": [
        {
          "internalType": "address",
          "name": "addr",
          "type": "address"
        }
      ],
      "name": "isDocumentManager",
      "outputs": [
        {
          "internalType": "bool",
          "name": "",
          "type": "bool"
        }
      ],
      "stateMutability": "view",
      "type": "function"
    },
    {
      "inputs": [],
      "name": "name",
      "outputs": [
        {
          "internalType": "string",
          "name": "",
          "type": "string"
        }
      ],
      "stateMutability": "view",
      "type": "function"
    },
    {
      "inputs": [
        {
          "internalType": "address",
          "name": "",
          "type": "address"
        },
        {
          "internalType": "address",
          "name": "",
          "type": "address"
        },
        {
          "internalType": "uint256",
          "name": "",
          "type": "uint256"
        },
        {
          "internalType": "bytes",
          "name": "",
          "type": "bytes"
        }
      ],
      "name": "onERC721Received",
      "outputs": [
        {
          "internalType": "bytes4",
          "name": "",
          "type": "bytes4"
        }
      ],
      "stateMutability": "pure",
      "type": "function"
    },
    {
      "inputs": [],
      "name": "owner",
      "outputs": [
        {
          "internalType": "address",
          "name": "",
          "type": "address"
        }
      ],
      "stateMutability": "view",
      "type": "function"
    },
    {
      "inputs": [
        {
          "internalType": "address",
          "name": "manager",
          "type": "address"
        }
      ],
      "name": "removeDocumentManager",
      "outputs": [],
      "stateMutability": "nonpayable",
      "type": "function"
    },
    {
      "inputs": [
        {
          "internalType": "uint256",
          "name": "originalTokenId",
          "type": "uint256"
        },
        {
          "internalType": "string",
          "name": "newUri",
          "type": "string"
        },
        {
          "components": [
            {
              "internalType": "uint256",
              "name": "fiscalYear",
              "type": "uint256"
            },
            {
              "internalType": "bytes32",
              "name": "departmentCode",
              "type": "bytes32"
            },
            {
              "internalType": "bytes32",
              "name": "agencyCode",
              "type": "bytes32"
            },
            {
              "internalType": "bytes32",
              "name": "prexcFpapId",
              "type": "bytes32"
            },
            {
              "internalType": "bytes32",
              "name": "uacsObjCode",
              "type": "bytes32"
            },
            {
              "internalType": "uint256",
              "name": "amount",
              "type": "uint256"
            }
          ],
          "internalType": "struct Types.OnChainProposalData",
          "name": "newData",
          "type": "tuple"
        },
        {
          "internalType": "string",
          "name": "reason",
          "type": "string"
        }
      ],
      "name": "reviseProposal",
      "outputs": [
        {
          "internalType": "uint256",
          "name": "newTokenId",
          "type": "uint256"
        }
      ],
      "stateMutability": "nonpayable",
      "type": "function"
    },
    {
      "inputs": [
        {
          "internalType": "uint256",
          "name": "houseProposalId",
          "type": "uint256"
        },
        {
          "internalType": "uint256",
          "name": "senateProposalId",
          "type": "uint256"
        },
        {
          "internalType": "string",
          "name": "uri",
          "type": "string"
        },
        {
          "components": [
            {
              "internalType": "uint256",
              "name": "fiscalYear",
              "type": "uint256"
            },
            {
              "internalType": "bytes32",
              "name": "departmentCode",
              "type": "bytes32"
            },
            {
              "internalType": "bytes32",
              "name": "agencyCode",
              "type": "bytes32"
            },
            {
              "internalType": "bytes32",
              "name": "prexcFpapId",
              "type": "bytes32"
            },
            {
              "internalType": "bytes32",
              "name": "uacsObjCode",
              "type": "bytes32"
            },
            {
              "internalType": "uint256",
              "name": "amount",
              "type": "uint256"
            }
          ],
          "internalType": "struct Types.OnChainProposalData",
          "name": "data",
          "type": "tuple"
        }
      ],
      "name": "submitJointGAB",
      "outputs": [
        {
          "internalType": "uint256",
          "name": "tokenId",
          "type": "uint256"
        }
      ],
      "stateMutability": "nonpayable",
      "type": "function"
    },
    {
      "inputs": [
        {
          "internalType": "string",
          "name": "uri",
          "type": "string"
        },
        {
          "components": [
            {
              "internalType": "uint256",
              "name": "fiscalYear",
              "type": "uint256"
            },
            {
              "internalType": "bytes32",
              "name": "departmentCode",
              "type": "bytes32"
            },
            {
              "internalType": "bytes32",
              "name": "agencyCode",
              "type": "bytes32"
            },
            {
              "internalType": "bytes32",
              "name": "prexcFpapId",
              "type": "bytes32"
            },
            {
              "internalType": "bytes32",
              "name": "uacsObjCode",
              "type": "bytes32"
            },
            {
              "internalType": "uint256",
              "name": "amount",
              "type": "uint256"
            }
          ],
          "internalType": "struct Types.OnChainProposalData",
          "name": "data",
          "type": "tuple"
        }
      ],
      "name": "submitProposal",
      "outputs": [
        {
          "internalType": "uint256",
          "name": "tokenId",
          "type": "uint256"
        }
      ],
      "stateMutability": "nonpayable",
      "type": "function"
    },
    {
      "inputs": [
        {
          "internalType": "string",
          "name": "uri",
          "type": "string"
        },
        {
          "components": [
            {
              "internalType": "uint256",
              "name": "fiscalYear",
              "type": "uint256"
            },
            {
              "internalType": "bytes32",
              "name": "departmentCode",
              "type": "bytes32"
            },
            {
              "internalType": "bytes32",
              "name": "agencyCode",
              "type": "bytes32"
            },
            {
              "internalType": "bytes32",
              "name": "prexcFpapId",
              "type": "bytes32"
            },
            {
              "internalType": "bytes32",
              "name": "uacsObjCode",
              "type": "bytes32"
            },
            {
              "internalType": "uint256",
              "name": "amount",
              "type": "uint256"
            }
          ],
          "internalType": "struct Types.OnChainProposalData",
          "name": "data",
          "type": "tuple"
        }
      ],
      "name": "submitSeparateGAB",
      "outputs": [
        {
          "internalType": "uint256",
          "name": "tokenId",
          "type": "uint256"
        }
      ],
      "stateMutability": "nonpayable",
      "type": "function"
    },
    {
      "inputs": [
        {
          "internalType": "address",
          "name": "newOwner",
          "type": "address"
        }
      ],
      "name": "transferOwnership",
      "outputs": [],
      "stateMutability": "nonpayable",
      "type": "function"
    }
  ],
  "bytecode": "0x604060808152346200042e5762001e13803803806200001e8162000433565b92833981016080828203126200042e5781516001600160401b0391908281116200042e57816200005091850162000459565b9060209081850151908482116200042e576200006e91860162000459565b62000089606062000081888801620004cb565b9601620004cb565b948351156200041d578151156200041d576001600160a01b039081169586156200040c5716938415620003fb578351818111620003e5576000928354916001968784811c94168015620003da575b87851014620003c6578190601f9485811162000373575b5087908583116001146200030f57879262000303575b5050600019600383901b1c191690871b1784555b8051928311620002ef5785548681811c91168015620002e4575b86821014620002d057908183859493116200027b575b5085918311600114620002175784926200020b575b5050600019600383901b1c191690841b1783555b600280546001600160a01b031990811690961790556003805486168517905583815260048252858120805460ff1916841790556005549268010000000000000000841015620001f757830180600555831015620001e35760058152200191825416179055516119329081620004e18239f35b634e487b7160e01b81526032600452602490fd5b634e487b7160e01b82526041600452602482fd5b0151905038806200015d565b8685528585208794509190601f198416865b888282106200026457505084116200024a575b505050811b01835562000171565b015160001960f88460031b161c191690553880806200023c565b8385015186558a9790950194938401930162000229565b909192508685528585208380860160051c820192888710620002c6575b9186958a929594930160051c01915b828110620002b757505062000148565b878155869550899101620002a7565b9250819262000298565b634e487b7160e01b85526022600452602485fd5b90607f169062000132565b634e487b7160e01b84526041600452602484fd5b01519050388062000104565b8780528888208a94509190601f198416895b8b8282106200035c575050841162000342575b505050811b01845562000118565b015160001960f88460031b161c1916905538808062000334565b8385015186558d9790950194938401930162000321565b9091508680528787208580850160051c8201928a8610620003bc575b918b91869594930160051c01915b828110620003ad575050620000ee565b8981558594508b91016200039d565b925081926200038f565b634e487b7160e01b86526022600452602486fd5b93607f1693620000d7565b634e487b7160e01b600052604160045260246000fd5b865163d92e233d60e01b8152600490fd5b875163d92e233d60e01b8152600490fd5b865163ecd7b0d160e01b8152600490fd5b600080fd5b6040519190601f01601f191682016001600160401b03811183821017620003e557604052565b919080601f840112156200042e5782516001600160401b038111620003e5576020906200048f601f8201601f1916830162000433565b928184528282870101116200042e5760005b818110620004b757508260009394955001015290565b8581018301518482018401528201620004a1565b51906001600160a01b03821682036200042e5756fe6080604052600436101561001257600080fd5b60003560e01c8063025916e1146101335780630455804b1461012e57806306fdde031461011f5780630e43ce0614610129578063150b7a021461012457806317d7de7c1461011f57806324c12bf6146100fc57806327d206651461010157806343a55ea11461011a5780637d5feec114610115578063893d20e8146101105780638da5cb5b1461011057806392c26bcd1461010b57806397fa49bc146101065780639ca6516314610101578063ea879634146100fc578063edf46e2b146100f7578063f1e626ff146100f25763f2fde38b146100ed57600080fd5b610df8565b610cd2565b610c0e565b6107ea565b610806565b610b08565b610a75565b610a4c565b610985565b61082f565b610632565b61078f565b61074d565b61038c565b6101bc565b9181601f840112156101665782359167ffffffffffffffff8311610166576020838186019501011161016657565b600080fd5b60c090606319011261016657606490565b60e0600319820112610166576004359167ffffffffffffffff8311610166576101aa8260c094600401610138565b90939092602319011261016657602490565b34610166576101ca3661017c565b6003549192916001600160a01b0390811633141580610312575b6103005760025461020b906101ff906001600160a01b031681565b6001600160a01b031690565b9060405180926334a1dd5360e01b825281600460209586935afa80156102ce5783916000916102d3575b5060046040518094819363a3a40ea560e01b8352165afa9081156102ce576004926000926102a1575b505061026981610e7f565b0361028f5761028b9261027b92610f91565b6040519081529081906020820190565b0390f35b604051637996d44d60e11b8152600490fd5b6102c09250803d106102c7575b6102b881836104c8565b810190610e67565b388061025e565b503d6102ae565b610e5b565b6102f39150823d84116102f9575b6102eb81836104c8565b810190610e43565b38610235565b503d6102e1565b604051636dff42d560e11b8152600490fd5b5033600052600460205260ff60406000205416156101e4565b90610120600319830112610166576004359167ffffffffffffffff90602435828111610166578161035e91600401610138565b9093909260c060431984011261016657604492610104359182116101665761038891600401610138565b9091565b346101665761039a3661032b565b9260018060a09796979493941b03806003541633141580610499575b610300576002546103d1906101ff906001600160a01b031681565b9060405180926334a1dd5360e01b825281600460209586935afa80156102ce57839160009161047c575b5060046040518094819363a3a40ea560e01b8352165afa9182156102ce5760009261045f575b505061042c81610e7f565b6001811415908161044a575b5061028f5761028b9561027b956110d2565b6002915061045781610e7f565b141538610438565b6104759250803d106102c7576102b881836104c8565b3880610421565b6104939150823d84116102f9576102eb81836104c8565b386103fb565b5033600052600460205260ff60406000205416156103b6565b634e487b7160e01b600052604160045260246000fd5b90601f8019910116810190811067ffffffffffffffff8211176104ea57604052565b6104b2565b60405190600080549060018260011c92600181169182156105d9575b6020916020861084146105c5578588528794936020860193929181156105a65750600114610545575b505050610543925003836104c8565b565b925093610573600080527f290decd9548b62a8d60345a988386fc84ba6bc95484008f6362f93160ef3e56390565b946000935b82851061059057505050610543935001388080610534565b8654858501529586019588955093810193610578565b925050506105439491925060ff19168252151560051b01388080610534565b634e487b7160e01b85526022600452602485fd5b93607f169361050b565b60005b8381106105f65750506000910152565b81810151838201526020016105e6565b6040916020825261062681518092816020860152602086860191016105e3565b601f01601f1916010190565b34610166576000806003193601126107395760405190806001906001548060011c926001821692831561072f575b60209260208610851461071b5785885260208801949081156106fa57506001146106a1575b61028b87610695818903826104c8565b60405191829182610606565b600160005294509192917fb10e2d527612073b26eecdfd717e6a320cf44b4afac2b0732d9fcbe2b7fa0cf65b8386106106e957505050910190506106958261028b3880610685565b8054858701529482019481016106cd565b60ff191685525050505090151560051b0190506106958261028b3880610685565b634e487b7160e01b82526022600452602482fd5b93607f1693610660565b80fd5b6001600160a01b0381160361016657565b346101665760203660031901126101665760043561076a8161073c565b60018060a01b03166000526004602052602060ff604060002054166040519015158152f35b34610166576080366003190112610166576107ab60043561073c565b6107b660243561073c565b60643567ffffffffffffffff8111610166576107d6903690600401610138565b5050604051630a85bd0160e11b8152602090f35b346101665760003660031901126101665761028b6106956104ef565b34610166576000366003190112610166576002546040516001600160a01b039091168152602090f35b346101665761012036600319011261016657600460443567ffffffffffffffff8111610166576108629036908301610138565b61086b3661016b565b9160018060a01b0380600354163314158061096d575b61095c5760025461089c906101ff906001600160a01b031681565b9060405180926334a1dd5360e01b8252818860209586935afa80156102ce57839160009161093f575b50876040518094819363a3a40ea560e01b8352165afa9081156102ce57600592600092610922575b50506108f881610e7f565b03610911579061027b929161028b946024359035611298565b604051637996d44d60e11b81528490fd5b6109389250803d106102c7576102b881836104c8565b38806108ed565b6109569150823d84116102f9576102eb81836104c8565b386108c5565b604051636dff42d560e11b81528590fd5b50336000528460205260ff6040600020541615610881565b34610166576000806003193601126107395760405180916005549081835260208093018092600583527f036b6384b5eca791c62761152d0c79bb0604c104a5fb6f4eb0703f3154bb3db090835b818110610a2f57505050846109e89103856104c8565b60405193838594850191818652518092526040850193925b828110610a0f57505050500390f35b83516001600160a01b031685528695509381019392810192600101610a00565b82546001600160a01b0316845292860192600192830192016109d2565b34610166576000366003190112610166576003546040516001600160a01b039091168152602090f35b3461016657602036600319011261016657600435610a928161073c565b6003546001600160a01b03919082163303610af65716600090808252600460205260408220805460ff8116610ac5578380f35b60ff191690557f6eea8bb915c3f59b2df31edd41f67162f66781fe2bd87ed8f1d1f023d38e45808280a23880808380f35b6040516330cd747160e01b8152600490fd5b3461016657610b163661017c565b6003549192916001600160a01b0390811633141580610bf5575b61030057600254610b4b906101ff906001600160a01b031681565b9060405180926334a1dd5360e01b825281600460209586935afa80156102ce578391600091610bd8575b5060046040518094819363a3a40ea560e01b8352165afa9081156102ce57600192600092610bbb575b5050610ba981610e7f565b0361028f5761028b9261027b92611453565b610bd19250803d106102c7576102b881836104c8565b3880610b9e565b610bef9150823d84116102f9576102eb81836104c8565b38610b75565b5033600052600460205260ff6040600020541615610b30565b3461016657602036600319011261016657600435610c2b8161073c565b6003546001600160a01b039081163303610af65781168015610cc057600091818352600460205260ff60408420541615610c63578280f35b6001600160a01b0381166000908152600460205260409020610c969190610c9190805460ff19166001179055565b611519565b7f21fbfc2d5ee4fd011d7fb9e096fcfc72cdd6b20fbe82b63cd0b10f488e54e0ba8280a238808280f35b60405163d92e233d60e01b8152600490fd5b3461016657610ce03661032b565b9260018060a09796979493941b03806003541633141580610ddf575b61030057600254610d17906101ff906001600160a01b031681565b9060405180926334a1dd5360e01b825281600460209586935afa80156102ce578391600091610dc2575b5060046040518094819363a3a40ea560e01b8352165afa9182156102ce57600092610da5575b5050610d7281610e7f565b60048114159081610d90575b5061028f5761028b9561027b95611598565b60059150610d9d81610e7f565b141538610d7e565b610dbb9250803d106102c7576102b881836104c8565b3880610d67565b610dd99150823d84116102f9576102eb81836104c8565b38610d41565b5033600052600460205260ff6040600020541615610cfc565b3461016657602036600319011261016657600435610e158161073c565b600354906001600160a01b03908183163303610af65716908115610cc0576001600160a01b03191617600355005b908160209103126101665751610e588161073c565b90565b6040513d6000823e3d90fd5b90816020910312610166575160078110156101665790565b60071115610e8957565b634e487b7160e01b600052602160045260246000fd5b90816020910312610166575180151581036101665790565b90816020910312610166575190565b908060209392818452848401376000828201840152601f01601f1916010190565b60a0809180518452602081015160208501526040810151604085015260608101516060850152608081015160808501520151910152565b6001600160a01b0390911681526101206020820181905293949360049361010093610f5b92610f509290850191610ec6565b956040830190610ee7565b0152565b6001600160a01b0390911681526101206020820181905293949360059361010093610f5b92610f509290850191610ec6565b6002549093929190610fad906101ff906001600160a01b031681565b604051638f97323b60e01b8152306004820152602095918690829060249082905afa9081156102ce576000916110a5575b50156110935761101c9285926000610ffd610ff761166a565b9361178f565b60405163d6e5ae7560e01b815296879586948593913060048601610f1e565b03926001600160a01b03165af19283156102ce57600093611064575b50508133907f11641d364e926d2bf231c2d36f2a9271390042d717ea334a3e7c983c27a12391600080a3565b611084929350803d1061108c575b61107c81836104c8565b810190610eb7565b903880611038565b503d611072565b604051635b48693760e01b8152600490fd5b6110c59150863d88116110cb575b6110bd81836104c8565b810190610e9f565b38610fde565b503d6110b3565b95949160008761115061112b9760209795966110f56110ef61166a565b9761178f565b916111366040519b8c9a8b998a98635737b72960e11b8a5260048a01523060248a015261016060448a0152610164890191610ec6565b936064870190610ee7565b600461012486015284830360031901610144860152610ec6565b03926001600160a01b03165af19081156102ce57600091611196575b5080927feb651e2008e47ae08a231ce83e07c87acbc86a982551e2a80413a4ef2154e8f1600080a3565b6111af915060203d60201161108c5761107c81836104c8565b3861116c565b92604095946111e2926111ed9461016091875260018060a01b031660208701528088870152850191610ec6565b926060830190610ee7565b6003610120820152610140818303910152601d81527f4a6f696e7420474142202d206c696e6b65642066726f6d20486f75736500000060208201520190565b92604095946111e2926112599461016091875260018060a01b031660208701528088870152850191610ec6565b6003610120820152610140818303910152601e81527f4a6f696e7420474142202d206c696e6b65642066726f6d2053656e617465000060208201520190565b600254909594919391906112b6906101ff906001600160a01b031681565b92604051809463059b2ddf60e01b825281600460209788935afa9081156102ce57600091611436575b506001600160a01b03903090821603611424576112fd610ff761166a565b92166040519563d6e5ae7560e01b87528587806113208789883060048601610f5f565b03816000865af19687156102ce57600097611405575b5086986040519087828061135d898b8a635737b72960e11b978886523090600487016111b5565b03816000885af180156102ce578896600093611390926113e8575b5060405198899788968795865230906004870161122c565b03925af180156102ce576113ca575b505033907f11641d364e926d2bf231c2d36f2a9271390042d717ea334a3e7c983c27a12391600080a3565b816113e092903d1061108c5761107c81836104c8565b50388061139f565b6113fe90893d8b1161108c5761107c81836104c8565b5038611378565b61141d919750863d881161108c5761107c81836104c8565b9538611336565b6040516333f1d70160e11b8152600490fd5b61144d9150853d87116102f9576102eb81836104c8565b386112df565b6114aa939261149f91600060209461147261146c61166a565b9461178f565b60405163d6e5ae7560e01b8152306004820152610120602482015298899687958694610124860191610ec6565b916044840190610ee7565b600161010483015203926001600160a01b03165af19182156102ce576000926114f8575b5033827f11641d364e926d2bf231c2d36f2a9271390042d717ea334a3e7c983c27a12391600080a3565b61151291925060203d60201161108c5761107c81836104c8565b90386114ce565b600554680100000000000000008110156104ea5760018101806005558110156115825760056000527f036b6384b5eca791c62761152d0c79bb0604c104a5fb6f4eb0703f3154bb3db00180546001600160a01b0319166001600160a01b03909216919091179055565b634e487b7160e01b600052603260045260246000fd5b95949160008761160561112b9760209795966115b56110ef61166a565b916115eb6040519b8c9a8b998a98635737b72960e11b8a5260048a01523060248a015261016060448a0152610164890191610ec6565b600561012486015284830360031901610144860152610ec6565b03926001600160a01b03165af19081156102ce5760009161164b575b5080927f74e4b6e98f9a799c235eb4e596e6d1305d196175a4fe5d708b2bfeb1cf085cb8600080a3565b611664915060203d60201161108c5761107c81836104c8565b38611621565b6001600160a01b03600460208261167f6118ae565b166040519283809263b30e917160e01b82525afa9081156102ce576000916116a657501690565b6116bf915060203d6020116102f9576102eb81836104c8565b1690565b6040519060c0820182811067ffffffffffffffff8211176104ea57604052565b6040519060c0820182811067ffffffffffffffff8211176104ea576040528160a06000918281528260208201528260408201528260608201528260808201520152565b60208183031261016657805167ffffffffffffffff9182821161016657019082601f830112156101665781519081116104ea5760405192611771601f8301601f1916602001856104c8565b8184526020828401011161016657610e5891602080850191016105e3565b6117976116e3565b506002546004906117b0906001600160a01b03166101ff565b9160206117be6101ff6118ae565b60405163bbfeced160e01b815293849182905afa9182156102ce57600092611889575b50604051633aa1e58d60e21b81529192600090839060049082906001600160a01b03165afa9182156102ce5760a09261182291600091611866575b506118e8565b61183261182d6104ef565b6118e8565b9061183b6116c3565b948552602085015260408401526060810135606084015260808101356080840152013560a082015290565b61188391503d806000833e61187b81836104c8565b810190611726565b3861181c565b600492506118a760009160203d60201161108c5761107c81836104c8565b92506117e1565b6002546040516334a1dd5360e01b81526001600160a01b03916020908290600490829086165afa9081156102ce576000916116a657501690565b8051156118f6576020015190565b5060009056fea26469706673582212203cb3ad0c0401b117c8de1f2be700e7b5cac73ab11a4b67e1434e28d4c092c8f364736f6c63430008180033",
  "linkReferences": {},
  "deployedLinkReferences": {}
}