{
  "_format": "hh-sol-artifact-1",
  "contractName": "BudgetProposal",
  "sourceName": "contracts/BudgetProposal.sol",
  "abi": [
    {
      "inputs": [
        {
          "internalType": "address",
          "name": "_dbtc",
          "type": "address"
        }
      ],
      "stateMutability": "nonpayable",
      "type": "constructor"
    },
    {
      "inputs": [
        {
          "internalType": "address",
          "name": "sender",
          "type": "address"
        },
        {
          "internalType": "uint256",
          "name": "tokenId",
          "type": "uint256"
        },
        {
          "internalType": "address",
          "name": "owner",
          "type": "address"
        }
      ],
      "name": "ERC721IncorrectOwner",
      "type": "error"
    },
    {
      "inputs": [
        {
          "internalType": "address",
          "name": "operator",
          "type": "address"
        },
        {
          "internalType": "uint256",
          "name": "tokenId",
          "type": "uint256"
        }
      ],
      "name": "ERC721InsufficientApproval",
      "type": "error"
    },
    {
      "inputs": [
        {
          "internalType": "address",
          "name": "approver",
          "type": "address"
        }
      ],
      "name": "ERC721InvalidApprover",
      "type": "error"
    },
    {
      "inputs": [
        {
          "internalType": "address",
          "name": "operator",
          "type": "address"
        }
      ],
      "name": "ERC721InvalidOperator",
      "type": "error"
    },
    {
      "inputs": [
        {
          "internalType": "address",
          "name": "owner",
          "type": "address"
        }
      ],
      "name": "ERC721InvalidOwner",
      "type": "error"
    },
    {
      "inputs": [
        {
          "internalType": "address",
          "name": "receiver",
          "type": "address"
        }
      ],
      "name": "ERC721InvalidReceiver",
      "type": "error"
    },
    {
      "inputs": [
        {
          "internalType": "address",
          "name": "sender",
          "type": "address"
        }
      ],
      "name": "ERC721InvalidSender",
      "type": "error"
    },
    {
      "inputs": [
        {
          "internalType": "uint256",
          "name": "tokenId",
          "type": "uint256"
        }
      ],
      "name": "ERC721NonexistentToken",
      "type": "error"
    },
    {
      "inputs": [],
      "name": "InvalidProposalStatus",
      "type": "error"
    },
    {
      "inputs": [],
      "name": "NotAuthorized",
      "type": "error"
    },
    {
      "inputs": [
        {
          "internalType": "address",
          "name": "owner",
          "type": "address"
        }
      ],
      "name": "OwnableInvalidOwner",
      "type": "error"
    },
    {
      "inputs": [
        {
          "internalType": "address",
          "name": "account",
          "type": "address"
        }
      ],
      "name": "OwnableUnauthorizedAccount",
      "type": "error"
    },
    {
      "inputs": [],
      "name": "ProposalNotFound",
      "type": "error"
    },
    {
      "inputs": [],
      "name": "ZeroAddress",
      "type": "error"
    },
    {
      "anonymous": false,
      "inputs": [
        {
          "indexed": true,
          "internalType": "address",
          "name": "owner",
          "type": "address"
        },
        {
          "indexed": true,
          "internalType": "address",
          "name": "approved",
          "type": "address"
        },
        {
          "indexed": true,
          "internalType": "uint256",
          "name": "tokenId",
          "type": "uint256"
        }
      ],
      "name": "Approval",
      "type": "event"
    },
    {
      "anonymous": false,
      "inputs": [
        {
          "indexed": true,
          "internalType": "address",
          "name": "owner",
          "type": "address"
        },
        {
          "indexed": true,
          "internalType": "address",
          "name": "operator",
          "type": "address"
        },
        {
          "indexed": false,
          "internalType": "bool",
          "name": "approved",
          "type": "bool"
        }
      ],
      "name": "ApprovalForAll",
      "type": "event"
    },
    {
      "anonymous": false,
      "inputs": [
        {
          "indexed": false,
          "internalType": "uint256",
          "name": "_fromTokenId",
          "type": "uint256"
        },
        {
          "indexed": false,
          "internalType": "uint256",
          "name": "_toTokenId",
          "type": "uint256"
        }
      ],
      "name": "BatchMetadataUpdate",
      "type": "event"
    },
    {
      "anonymous": false,
      "inputs": [
        {
          "indexed": false,
          "internalType": "uint256",
          "name": "_tokenId",
          "type": "uint256"
        }
      ],
      "name": "MetadataUpdate",
      "type": "event"
    },
    {
      "anonymous": false,
      "inputs": [
        {
          "indexed": true,
          "internalType": "address",
          "name": "previousOwner",
          "type": "address"
        },
        {
          "indexed": true,
          "internalType": "address",
          "name": "newOwner",
          "type": "address"
        }
      ],
      "name": "OwnershipTransferred",
      "type": "event"
    },
    {
      "anonymous": false,
      "inputs": [
        {
          "indexed": true,
          "internalType": "uint256",
          "name": "tokenId",
          "type": "uint256"
        },
        {
          "indexed": true,
          "internalType": "address",
          "name": "agency",
          "type": "address"
        },
        {
          "indexed": false,
          "internalType": "uint256",
          "name": "fiscalYear",
          "type": "uint256"
        },
        {
          "indexed": false,
          "internalType": "enum Types.ProposalStatus",
          "name": "status",
          "type": "uint8"
        }
      ],
      "name": "ProposalMinted",
      "type": "event"
    },
    {
      "anonymous": false,
      "inputs": [
        {
          "indexed": true,
          "internalType": "uint256",
          "name": "tokenId",
          "type": "uint256"
        },
        {
          "indexed": true,
          "internalType": "enum Types.ProposalStatus",
          "name": "oldStatus",
          "type": "uint8"
        },
        {
          "indexed": true,
          "internalType": "enum Types.ProposalStatus",
          "name": "newStatus",
          "type": "uint8"
        }
      ],
      "name": "ProposalStatusChanged",
      "type": "event"
    },
    {
      "anonymous": false,
      "inputs": [
        {
          "indexed": true,
          "internalType": "uint256",
          "name": "originalTokenId",
          "type": "uint256"
        },
        {
          "indexed": true,
          "internalType": "uint256",
          "name": "newTokenId",
          "type": "uint256"
        },
        {
          "indexed": false,
          "internalType": "enum Types.ProposalStatus",
          "name": "action",
          "type": "uint8"
        },
        {
          "indexed": false,
          "internalType": "string",
          "name": "reason",
          "type": "string"
        }
      ],
      "name": "RevisionCreated",
      "type": "event"
    },
    {
      "anonymous": false,
      "inputs": [
        {
          "indexed": true,
          "internalType": "address",
          "name": "from",
          "type": "address"
        },
        {
          "indexed": true,
          "internalType": "address",
          "name": "to",
          "type": "address"
        },
        {
          "indexed": true,
          "internalType": "uint256",
          "name": "tokenId",
          "type": "uint256"
        }
      ],
      "name": "Transfer",
      "type": "event"
    },
    {
      "inputs": [
        {
          "internalType": "address",
          "name": "agency",
          "type": "address"
        }
      ],
      "name": "addAuthorizedMinter",
      "outputs": [],
      "stateMutability": "nonpayable",
      "type": "function"
    },
    {
      "inputs": [
        {
          "internalType": "address",
          "name": "to",
          "type": "address"
        },
        {
          "internalType": "uint256",
          "name": "tokenId",
          "type": "uint256"
        }
      ],
      "name": "approve",
      "outputs": [],
      "stateMutability": "nonpayable",
      "type": "function"
    },
    {
      "inputs": [
        {
          "internalType": "address",
          "name": "",
          "type": "address"
        }
      ],
      "name": "authorizedMinters",
      "outputs": [
        {
          "internalType": "bool",
          "name": "",
          "type": "bool"
        }
      ],
      "stateMutability": "view",
      "type": "function"
    },
    {
      "inputs": [
        {
          "internalType": "address",
          "name": "owner",
          "type": "address"
        }
      ],
      "name": "balanceOf",
      "outputs": [
        {
          "internalType": "uint256",
          "name": "",
          "type": "uint256"
        }
      ],
      "stateMutability": "view",
      "type": "function"
    },
    {
      "inputs": [
        {
          "internalType": "uint256",
          "name": "originalTokenId",
          "type": "uint256"
        },
        {
          "internalType": "address",
          "name": "agency",
          "type": "address"
        },
        {
          "internalType": "string",
          "name": "newUri",
          "type": "string"
        },
        {
          "components": [
            {
              "internalType": "uint256",
              "name": "fiscalYear",
              "type": "uint256"
            },
            {
              "internalType": "bytes32",
              "name": "departmentCode",
              "type": "bytes32"
            },
            {
              "internalType": "bytes32",
              "name": "agencyCode",
              "type": "bytes32"
            },
            {
              "internalType": "bytes32",
              "name": "prexcFpapId",
              "type": "bytes32"
            },
            {
              "internalType": "bytes32",
              "name": "uacsObjCode",
              "type": "bytes32"
            },
            {
              "internalType": "uint256",
              "name": "amount",
              "type": "uint256"
            }
          ],
          "internalType": "struct Types.OnChainProposalData",
          "name": "newData",
          "type": "tuple"
        },
        {
          "internalType": "enum Types.ProposalStatus",
          "name": "action",
          "type": "uint8"
        },
        {
          "internalType": "string",
          "name": "reason",
          "type": "string"
        }
      ],
      "name": "createRevision",
      "outputs": [
        {
          "internalType": "uint256",
          "name": "newTokenId",
          "type": "uint256"
        }
      ],
      "stateMutability": "nonpayable",
      "type": "function"
    },
    {
      "inputs": [],
      "name": "dbtc",
      "outputs": [
        {
          "internalType": "address",
          "name": "",
          "type": "address"
        }
      ],
      "stateMutability": "view",
      "type": "function"
    },
    {
      "inputs": [
        {
          "internalType": "uint256",
          "name": "tokenId",
          "type": "uint256"
        }
      ],
      "name": "getApproved",
      "outputs": [
        {
          "internalType": "address",
          "name": "",
          "type": "address"
        }
      ],
      "stateMutability": "view",
      "type": "function"
    },
    {
      "inputs": [
        {
          "internalType": "uint256",
          "name": "tokenId",
          "type": "uint256"
        }
      ],
      "name": "getChildTokens",
      "outputs": [
        {
          "internalType": "uint256[]",
          "name": "",
          "type": "uint256[]"
        }
      ],
      "stateMutability": "view",
      "type": "function"
    },
    {
      "inputs": [
        {
          "internalType": "uint256",
          "name": "originTokenId",
          "type": "uint256"
        }
      ],
      "name": "getLatestVersion",
      "outputs": [
        {
          "internalType": "uint256",
          "name": "",
          "type": "uint256"
        }
      ],
      "stateMutability": "view",
      "type": "function"
    },
    {
      "inputs": [
        {
          "internalType": "uint256",
          "name": "tokenId",
          "type": "uint256"
        }
      ],
      "name": "getOrigin",
      "outputs": [
        {
          "internalType": "uint256",
          "name": "",
          "type": "uint256"
        }
      ],
      "stateMutability": "view",
      "type": "function"
    },
    {
      "inputs": [
        {
          "internalType": "uint256",
          "name": "tokenId",
          "type": "uint256"
        }
      ],
      "name": "getProposalData",
      "outputs": [
        {
          "components": [
            {
              "internalType": "uint256",
              "name": "fiscalYear",
              "type": "uint256"
            },
            {
              "internalType": "bytes32",
              "name": "departmentCode",
              "type": "bytes32"
            },
            {
              "internalType": "bytes32",
              "name": "agencyCode",
              "type": "bytes32"
            },
            {
              "internalType": "bytes32",
              "name": "prexcFpapId",
              "type": "bytes32"
            },
            {
              "internalType": "bytes32",
              "name": "uacsObjCode",
              "type": "bytes32"
            },
            {
              "internalType": "uint256",
              "name": "amount",
              "type": "uint256"
            }
          ],
          "internalType": "struct Types.OnChainProposalData",
          "name": "",
          "type": "tuple"
        }
      ],
      "stateMutability": "view",
      "type": "function"
    },
    {
      "inputs": [
        {
          "internalType": "uint256",
          "name": "tokenId",
          "type": "uint256"
        }
      ],
      "name": "getProposalMetadata",
      "outputs": [
        {
          "components": [
            {
              "internalType": "uint256",
              "name": "originTokenId",
              "type": "uint256"
            },
            {
              "internalType": "enum Types.ProposalStatus",
              "name": "status",
              "type": "uint8"
            },
            {
              "internalType": "enum Types.BudgetPhase",
              "name": "submittedPhase",
              "type": "uint8"
            },
            {
              "internalType": "address",
              "name": "submitter",
              "type": "address"
            },
            {
              "internalType": "uint48",
              "name": "createdAt",
              "type": "uint48"
            }
          ],
          "internalType": "struct Types.ProposalMetadata",
          "name": "",
          "type": "tuple"
        }
      ],
      "stateMutability": "view",
      "type": "function"
    },
    {
      "inputs": [
        {
          "internalType": "uint256",
          "name": "tokenId",
          "type": "uint256"
        }
      ],
      "name": "getRevisionChain",
      "outputs": [
        {
          "internalType": "uint256[]",
          "name": "",
          "type": "uint256[]"
        }
      ],
      "stateMutability": "view",
      "type": "function"
    },
    {
      "inputs": [
        {
          "internalType": "uint256",
          "name": "tokenId",
          "type": "uint256"
        }
      ],
      "name": "getRevisionHistory",
      "outputs": [
        {
          "components": [
            {
              "internalType": "uint256",
              "name": "previousTokenId",
              "type": "uint256"
            },
            {
              "internalType": "enum Types.ProposalStatus",
              "name": "action",
              "type": "uint8"
            },
            {
              "internalType": "string",
              "name": "reason",
              "type": "string"
            },
            {
              "internalType": "uint48",
              "name": "timestamp",
              "type": "uint48"
            },
            {
              "internalType": "address",
              "name": "actor",
              "type": "address"
            }
          ],
          "internalType": "struct Types.RevisionRecord[]",
          "name": "",
          "type": "tuple[]"
        }
      ],
      "stateMutability": "view",
      "type": "function"
    },
    {
      "inputs": [
        {
          "internalType": "uint256",
          "name": "tokenId",
          "type": "uint256"
        }
      ],
      "name": "getStatus",
      "outputs": [
        {
          "internalType": "enum Types.ProposalStatus",
          "name": "",
          "type": "uint8"
        }
      ],
      "stateMutability": "view",
      "type": "function"
    },
    {
      "inputs": [
        {
          "internalType": "address",
          "name": "owner",
          "type": "address"
        },
        {
          "internalType": "address",
          "name": "operator",
          "type": "address"
        }
      ],
      "name": "isApprovedForAll",
      "outputs": [
        {
          "internalType": "bool",
          "name": "",
          "type": "bool"
        }
      ],
      "stateMutability": "view",
      "type": "function"
    },
    {
      "inputs": [
        {
          "internalType": "address",
          "name": "agency",
          "type": "address"
        },
        {
          "internalType": "string",
          "name": "uri",
          "type": "string"
        },
        {
          "components": [
            {
              "internalType": "uint256",
              "name": "fiscalYear",
              "type": "uint256"
            },
            {
              "internalType": "bytes32",
              "name": "departmentCode",
              "type": "bytes32"
            },
            {
              "internalType": "bytes32",
              "name": "agencyCode",
              "type": "bytes32"
            },
            {
              "internalType": "bytes32",
              "name": "prexcFpapId",
              "type": "bytes32"
            },
            {
              "internalType": "bytes32",
              "name": "uacsObjCode",
              "type": "bytes32"
            },
            {
              "internalType": "uint256",
              "name": "amount",
              "type": "uint256"
            }
          ],
          "internalType": "struct Types.OnChainProposalData",
          "name": "data",
          "type": "tuple"
        },
        {
          "internalType": "enum Types.BudgetPhase",
          "name": "submittedPhase",
          "type": "uint8"
        }
      ],
      "name": "mint",
      "outputs": [
        {
          "internalType": "uint256",
          "name": "tokenId",
          "type": "uint256"
        }
      ],
      "stateMutability": "nonpayable",
      "type": "function"
    },
    {
      "inputs": [],
      "name": "name",
      "outputs": [
        {
          "internalType": "string",
          "name": "",
          "type": "string"
        }
      ],
      "stateMutability": "view",
      "type": "function"
    },
    {
      "inputs": [],
      "name": "owner",
      "outputs": [
        {
          "internalType": "address",
          "name": "",
          "type": "address"
        }
      ],
      "stateMutability": "view",
      "type": "function"
    },
    {
      "inputs": [
        {
          "internalType": "uint256",
          "name": "tokenId",
          "type": "uint256"
        }
      ],
      "name": "ownerOf",
      "outputs": [
        {
          "internalType": "address",
          "name": "",
          "type": "address"
        }
      ],
      "stateMutability": "view",
      "type": "function"
    },
    {
      "inputs": [
        {
          "internalType": "address",
          "name": "agency",
          "type": "address"
        }
      ],
      "name": "removeAuthorizedMinter",
      "outputs": [],
      "stateMutability": "nonpayable",
      "type": "function"
    },
    {
      "inputs": [],
      "name": "renounceOwnership",
      "outputs": [],
      "stateMutability": "nonpayable",
      "type": "function"
    },
    {
      "inputs": [
        {
          "internalType": "address",
          "name": "from",
          "type": "address"
        },
        {
          "internalType": "address",
          "name": "to",
          "type": "address"
        },
        {
          "internalType": "uint256",
          "name": "tokenId",
          "type": "uint256"
        }
      ],
      "name": "safeTransferFrom",
      "outputs": [],
      "stateMutability": "nonpayable",
      "type": "function"
    },
    {
      "inputs": [
        {
          "internalType": "address",
          "name": "from",
          "type": "address"
        },
        {
          "internalType": "address",
          "name": "to",
          "type": "address"
        },
        {
          "internalType": "uint256",
          "name": "tokenId",
          "type": "uint256"
        },
        {
          "internalType": "bytes",
          "name": "data",
          "type": "bytes"
        }
      ],
      "name": "safeTransferFrom",
      "outputs": [],
      "stateMutability": "nonpayable",
      "type": "function"
    },
    {
      "inputs": [
        {
          "internalType": "address",
          "name": "operator",
          "type": "address"
        },
        {
          "internalType": "bool",
          "name": "approved",
          "type": "bool"
        }
      ],
      "name": "setApprovalForAll",
      "outputs": [],
      "stateMutability": "nonpayable",
      "type": "function"
    },
    {
      "inputs": [
        {
          "internalType": "bytes4",
          "name": "interfaceId",
          "type": "bytes4"
        }
      ],
      "name": "supportsInterface",
      "outputs": [
        {
          "internalType": "bool",
          "name": "",
          "type": "bool"
        }
      ],
      "stateMutability": "view",
      "type": "function"
    },
    {
      "inputs": [],
      "name": "symbol",
      "outputs": [
        {
          "internalType": "string",
          "name": "",
          "type": "string"
        }
      ],
      "stateMutability": "view",
      "type": "function"
    },
    {
      "inputs": [
        {
          "internalType": "uint256",
          "name": "tokenId",
          "type": "uint256"
        }
      ],
      "name": "tokenURI",
      "outputs": [
        {
          "internalType": "string",
          "name": "",
          "type": "string"
        }
      ],
      "stateMutability": "view",
      "type": "function"
    },
    {
      "inputs": [],
      "name": "totalSupply",
      "outputs": [
        {
          "internalType": "uint256",
          "name": "",
          "type": "uint256"
        }
      ],
      "stateMutability": "view",
      "type": "function"
    },
    {
      "inputs": [
        {
          "internalType": "address",
          "name": "from",
          "type": "address"
        },
        {
          "internalType": "address",
          "name": "to",
          "type": "address"
        },
        {
          "internalType": "uint256",
          "name": "tokenId",
          "type": "uint256"
        }
      ],
      "name": "transferFrom",
      "outputs": [],
      "stateMutability": "nonpayable",
      "type": "function"
    },
    {
      "inputs": [
        {
          "internalType": "address",
          "name": "newOwner",
          "type": "address"
        }
      ],
      "name": "transferOwnership",
      "outputs": [],
      "stateMutability": "nonpayable",
      "type": "function"
    },
    {
      "inputs": [
        {
          "internalType": "uint256",
          "name": "tokenId",
          "type": "uint256"
        },
        {
          "internalType": "enum Types.ProposalStatus",
          "name": "newStatus",
          "type": "uint8"
        }
      ],
      "name": "updateStatus",
      "outputs": [],
      "stateMutability": "nonpayable",
      "type": "function"
    }
  ],
  "bytecode": "0x608034620003fb576001600160401b03601f19601f620026a4388190038281018416860185811187821017620003e557869282916040528339602095869181010312620003fb57516001600160a01b038082169490929091859003620003fb576200006962000400565b95601487527f44425443204275646765742050726f706f73616c000000000000000000000000818801526200009d62000400565b9060078252660444254432d42560cc1b81830152875195848711620003e55760009687549960019a8b81811c91168015620003da575b85821014620003c65790818784931162000373575b50849087831160011462000309578a92620002fd575b5050600019600383901b1c1916908a1b1787555b8251948511620002e95788548981811c91168015620002de575b83821014620002ca5790818587969594931162000271575b50819385116001146200020c575050859262000200575b5050600019600383901b1c191690851b1784555b3315620001e75760075460018060a01b03199233848316176007557f8be0079c531659141344cd1fd0a4f28419497f9722a3daafe3b4186f6b6457e0604051933393169180a38215620001d8575060095416176009556008556040516122839081620004218239f35b63d92e233d60e01b8152600490fd5b604051631e4fbdf760e01b815260048101839052602490fd5b0151905038806200015b565b899593929193168588528388209388905b8282106200025757505084116200023d575b505050811b0184556200016f565b015160001960f88460031b161c191690553880806200022f565b8484015186558b979095019493840193908101906200021d565b9091929394508988528288208580880160051c820192858910620002c0575b9188978d9297969594930160051c01915b828110620002b157505062000144565b8a81558897508c9101620002a1565b9250819262000290565b634e487b7160e01b88526022600452602488fd5b90607f16906200012c565b634e487b7160e01b87526041600452602487fd5b015190503880620000fe565b90848d9416918b8052868c20928c5b8882821062000353575050841162000339575b505050811b01875562000112565b015160001960f88460031b161c191690553880806200032b565b91929395968291958786015181550195019301908e959493929162000318565b909150898052848a208780850160051c820192878610620003bc575b918e91869594930160051c01915b828110620003ad575050620000e8565b8c81558594508e91016200039d565b925081926200038f565b634e487b7160e01b8a52602260045260248afd5b90607f1690620000d3565b634e487b7160e01b600052604160045260246000fd5b600080fd5b60408051919082016001600160401b03811183821017620003e55760405256fe608080604052600436101561001357600080fd5b60003560e01c90816301ffc9a7146117945750806306fdde03146116e95780630744d211146116c0578063081812fc14611682578063095ea7b31461159b57806318160ddd1461157057806323b872dd146115595780632b345749146114c757806333be78b61461147e5780633a1b3d31146113d957806342842e0e146113ab578063475ae039146113695780635c622a0e146113135780635f710f5c146112b65780636352211e146112865780636e768530146111a457806370a082311461114b578063715018a6146110ee5780638da5cb5b146110c557806395d89b4114610fe2578063a22cb46514610f3d578063aa2fe91b14610efe578063ae1594a714610df6578063ae6f6e521461084a578063b88d4fde146107dd578063c87b56dd14610780578063ca0780ed146106ef578063ccff3e5d14610566578063d6e5ae7514610387578063e985e9c514610331578063eb9b9838146102125763f2fde38b1461017f57600080fd5b3461020d57602036600319011261020d57610198611859565b6101a0611d30565b6001600160a01b039081169081156101f457600754826bffffffffffffffffffffffff60a01b821617600755167f8be0079c531659141344cd1fd0a4f28419497f9722a3daafe3b4186f6b6457e0600080a3005b604051631e4fbdf760e01b815260006004820152602490fd5b600080fd5b3461020d5760208060031936011261020d57600435600060806040516102378161194b565b82815282858201528260408201528260608201520152806000526002825260018060a01b039081604060002054161561031f57600052600b82526040600020906001604051926102868461194b565b8054845201548383019161029d60ff831684611cc5565b604084016102b160ff8460081c1682611cd1565b6102e66060860196838560101c16885265ffffffffffff9586608089019660b01c1686526040519751885251908701906118f6565b519460078610156103095760a09560408601525116606084015251166080820152f35b634e487b7160e01b600052602160045260246000fd5b60405163635e873760e01b8152600490fd5b3461020d57604036600319011261020d5761034a611859565b61035261186f565b9060018060a01b03809116600052600560205260406000209116600052602052602060ff604060002054166040519015158152f35b3461020d5761012036600319011261020d576103a1611859565b6024356001600160401b03811161020d576103c0903690600401611903565b909160c036604319011261020d576101043590600782101561020d5733600052602093600e855260ff60406000205416156105545761041d610423916008549561040987611c8a565b6008556104168786611d5c565b36916119bd565b84611f8a565b82600052600a8452604060002090604435918281556064356001820155608435600282015560a435600382015560c4356004820155600560e4359101556040519061046d8261194b565b8482528582019260018452610486604084019586611cd1565b606083019160018060a01b0316948583526001608085019465ffffffffffff4216865288600052600b8a526040600020905181550194516008811015610309576104d09086611c72565b519360078510156103095786947f3246eb9710c4bb0702f07e3e8561326bea23cae56c4740d6b4f1fab74e3c62109460409461ff0084549162010000600160b01b03905160101b169265ffffffffffff60b01b905160b01b169360081b169060ff63ffffffff60e01b011617171790558151908152600187820152a3604051908152f35b60405163ea8e4eb560e01b8152600490fd5b3461020d5760208060031936011261020d57600435600081815260028084526040909120546001600160a01b0393929084161561031f57600092919252600c815260406000209081546105b881611cae565b936105c66040519586611981565b81855260009384528284208386019491855b848410610686575050505050604051928184019082855251809152604084019160408260051b86010193926000965b8388106106145786860387f35b90919293948380600192603f198a820301865288519061065760a08351835261064385850151868501906118f6565b604084015190806040850152830190611819565b91606065ffffffffffff8183015116908301528660808092015116910152970193019701969093929193610607565b60048660019260409a989a5161069b8161194b565b865481526106b160ff8689015416848301611cc5565b6106bc868801611a2e565b60408201528c600388015465ffffffffffff8116606084015260301c1660808201528152019301930192919694966105d8565b3461020d5760208060031936011261020d576004356000818152600260205260409020546001600160a01b03161561031f575b80600052600d8252604060002080549182156107755750600019820191821161075f57600d9161075191611cdd565b90549060031b1c9050610722565b634e487b7160e01b600052601160045260246000fd5b602090604051908152f35b3461020d57602036600319011261020d5760043561079d81611cf5565b5060005260066020526107d96107b66040600020611a2e565b60006040516107c481611966565b52604051918291602083526020830190611819565b0390f35b3461020d57608036600319011261020d576107f6611859565b6107fe61186f565b90604435606435926001600160401b03841161020d573660238501121561020d576108366108489436906024816004013591016119bd565b92610842838383611ad3565b336120ff565b005b3461020d5761016036600319011261020d5761086461186f565b6044356001600160401b03811161020d57610883903690600401611903565b919060c036606319011261020d57600861012435101561020d57610144356001600160401b03811161020d576108bd903690600401611903565b909233600052600e60205260ff6040600020541615610554576004356000908152600260205260409020546001600160a01b039081161561031f57600093600461012435141580610de4575b8581610dd0575b50610dbe5761093661093c91600854986109298a611c8a565b6008556104168a87611d5c565b87611f8a565b600435600052600b6020526040600020549086600052600a60205260406000206064358155608435600182015560a435600282015560c435600382015560e4356004820155600561010435910155600435600052600b60205260ff60016040600020015460081c1690604051926109b28461194b565b835260208301936109c66101243586611cc5565b6109d4604085019384611cd1565b16606083015265ffffffffffff4216608083015286600052600b6020526040600020928251845551600881101561030957610a129060018501611c72565b516007811015610309576001918284015461ff00620100008560b01b03606084015160101b1692608065ffffffffffff60b01b91015160b01b169360081b169060ff63ffffffff60e01b011617171791015583600052600c602052604060002060405190610a7f8261194b565b6004358252610a946101243560208401611cc5565b610a9f3684876119bd565b604083015265ffffffffffff42166060830152336080830152805490600160401b821015610cc15760018201808255821015610da85760005260206000209082518160021b8301556020830151600881101561030957610b079060018360021b850101611c72565b60408301518051906001600160401b038211610cc157610b2e600284811b860101546119f4565b601f8111610d5d575b50602090601f8311600114610ce25760039493929160009183610cd7575b50508160011b9160001990861b1c191617600282811b840101555b60021b01019065ffffffffffff60608201511682549160806601000000000000600160d01b0391015160301b169165ffffffffffff60d01b1617179055600435600052600d602052604060002090815491600160401b831015610cc15782610bde9160018895018155611cdd565b81549060031b9084821b91600019901b1916179055600435600052600b6020527fdb6b8429a26a6b53f7e7cdcd5cbe745e82641f97cd1a170bc25541c9afe80c9b600160406000200194610c3b60ff875416966101243590611c72565b8260405191610c4d83610124356118f6565b60406020840152816040840152606083013760006060848301015260608160043594601f80199101168101030190a3600882101561030957610309576020916040519161012435906004357fb0978968e606225988b6464f99ce7e86b0e8770d80eaec1369bb3780e05c6438600080a48152f35b634e487b7160e01b600052604160045260246000fd5b015190508a80610b55565b90600284811b86010160005260206000209160005b601f1985168110610d4557509183916001936003979695601f19811610610d2d575b505050811b01600282811b84010155610b70565b015160001983881b60f8161c191690558a8080610d19565b91926020600181928685015181550194019201610cf7565b600284811b8601016000526020600020601f840160051c810160208510610da1575b601f830160051c82018110610d95575050610b37565b60008155600101610d7f565b5080610d7f565b634e487b7160e01b600052603260045260246000fd5b604051637492a26960e01b8152600490fd5b905061030957600661012435141585610910565b50600094506101243560051415610909565b3461020d5760208060031936011261020d5760043560008181526002835260409020549091906001600160a01b03161561031f578160005b81600052600c9081845260406000205415610e6757610e4c90611c8a565b916000528252610e5f6040600020611c99565b505490610e2e565b60019081810190858783831161075f57918492610e8385611cae565b94610e916040519687611981565b808652610ea0601f1991611cae565b01368487013790925b610ebc575b604051806107d986826118ba565b8351831015610da85780828460051b86010152600052600c81526040600020805415610ef957610eeb90611c99565b505491600019019184610ea9565b610eae565b3461020d57602036600319011261020d576001600160a01b03610f1f611859565b16600052600e602052602060ff604060002054166040519015158152f35b3461020d57604036600319011261020d57610f56611859565b6024359081151580920361020d576001600160a01b0316908115610fc957336000526005602052604060002082600052602052604060002060ff1981541660ff83161790556040519081527f17307eab39ab6107e8899845ad3d59bd9653f200f220920489ca2b5937696c3160203392a3005b604051630b61174360e31b815260048101839052602490fd5b3461020d57600036600319011261020d57604051600060018260015492611008846119f4565b92838352602094856001821691826000146110a5575050600114611048575b5061103492500383611981565b6107d9604051928284938452830190611819565b84915060016000527fb10e2d527612073b26eecdfd717e6a320cf44b4afac2b0732d9fcbe2b7fa0cf6906000915b85831061108d575050611034935082010185611027565b80548389018501528794508693909201918101611076565b60ff19168582015261103495151560051b85010192508791506110279050565b3461020d57600036600319011261020d576007546040516001600160a01b039091168152602090f35b3461020d57600036600319011261020d57611107611d30565b600780546001600160a01b031981169091556000906001600160a01b03167f8be0079c531659141344cd1fd0a4f28419497f9722a3daafe3b4186f6b6457e08280a3005b3461020d57602036600319011261020d576001600160a01b0361116c611859565b16801561118b5760005260036020526020604060002054604051908152f35b6040516322718ad960e21b815260006004820152602490fd5b3461020d5760208060031936011261020d5760043590600060a06040516111ca81611930565b82815282848201528260408201528260608201528260808201520152816000526002815260018060a01b03604060002054161561031f5760c091600052600a815260406000206040519061121d82611930565b805492838352600182015490808401918252600283015490604085019182526003840154926060860193845260a06005600487015496608089019788520154960195865260405196875251908601525160408501525160608401525160808301525160a0820152f35b3461020d57602036600319011261020d5760206112a4600435611cf5565b6040516001600160a01b039091168152f35b3461020d57602036600319011261020d576112cf611859565b6112d7611d30565b6001600160a01b03168015611301576000908152600e60205260409020805460ff19166001179055005b60405163d92e233d60e01b8152600490fd5b3461020d57602036600319011261020d576004356000818152600260205260409020546001600160a01b03161561031f57600052600b602052602060ff6001604060002001541661136760405180926118f6565bf35b3461020d57602036600319011261020d57611382611859565b61138a611d30565b6001600160a01b03166000908152600e60205260409020805460ff19169055005b3461020d576108486113bc36611885565b90604051926113ca84611966565b60008452610842838383611ad3565b3461020d57604036600319011261020d57602435600435600882101561020d5733600052600e60205260ff6040600020541615610554576000818152600260205260409020546001600160a01b03161561031f5780600052600b60205260016040600020019061144e8360ff84541693611c72565b6008821015610309577fb0978968e606225988b6464f99ce7e86b0e8770d80eaec1369bb3780e05c6438600080a4005b3461020d57602036600319011261020d576004356000818152600260205260409020546001600160a01b03161561031f57600052600b6020526020604060002054604051908152f35b3461020d5760208060031936011261020d5760043560008181526002835260409020546001600160a01b03161561031f57600052600d8152604060002090604051908181845491828152019360005281600020916000905b828210611542576107d98561153681890382611981565b604051918291826118ba565b83548652948501946001938401939091019061151f565b3461020d5761084861156a36611885565b91611ad3565b3461020d57600036600319011261020d57600854600019810190811161075f57602090604051908152f35b3461020d57604036600319011261020d576115b4611859565b6024356115c081611cf5565b3315158061166f575b80611642575b61162a576001600160a01b039283169282918491167f8c5be1e5ebec7d5bd14f71427d1e84f3dd0314c0f7b2291e5b200ac8c7c3b925600080a4600090815260046020526040902080546001600160a01b0319169091179055005b60405163a9fbf51f60e01b8152336004820152602490fd5b5060018060a01b038116600052600560205260406000203360005260205260ff60406000205416156115cf565b506001600160a01b0381163314156115c9565b3461020d57602036600319011261020d5760043561169f81611cf5565b506000526004602052602060018060a01b0360406000205416604051908152f35b3461020d57600036600319011261020d576009546040516001600160a01b039091168152602090f35b3461020d57600036600319011261020d5760405160008054908261170c836119f4565b91828252602093600190856001821691826000146110a557505060011461173a575061103492500383611981565b6000808052859250907f290decd9548b62a8d60345a988386fc84ba6bc95484008f6362f93160ef3e5635b85831061177c575050611034935082010185611027565b80548389018501528794508693909201918101611765565b3461020d57602036600319011261020d576004359063ffffffff60e01b821680920361020d57602091632483248360e11b81149081156117d6575b5015158152f35b6380ac58cd60e01b811491508115611808575b81156117f7575b50836117cf565b6301ffc9a760e01b149050836117f0565b635b5e139f60e01b811491506117e9565b919082519283825260005b848110611845575050826000602080949584010152601f8019910116010190565b602081830181015184830182015201611824565b600435906001600160a01b038216820361020d57565b602435906001600160a01b038216820361020d57565b606090600319011261020d576001600160a01b0390600435828116810361020d5791602435908116810361020d579060443590565b602090602060408183019282815285518094520193019160005b8281106118e2575050505090565b8351855293810193928101926001016118d4565b9060088210156103095752565b9181601f8401121561020d578235916001600160401b03831161020d576020838186019501011161020d57565b60c081019081106001600160401b03821117610cc157604052565b60a081019081106001600160401b03821117610cc157604052565b602081019081106001600160401b03821117610cc157604052565b90601f801991011681019081106001600160401b03821117610cc157604052565b6001600160401b038111610cc157601f01601f191660200190565b9291926119c9826119a2565b916119d76040519384611981565b82948184528183011161020d578281602093846000960137010152565b90600182811c92168015611a24575b6020831014611a0e57565b634e487b7160e01b600052602260045260246000fd5b91607f1691611a03565b90604051918260008254611a41816119f4565b90818452602094600191600181169081600014611ab15750600114611a72575b505050611a7092500383611981565b565b600090815285812095935091905b818310611a99575050611a709350820101388080611a61565b85548884018501529485019487945091830191611a80565b92505050611a7094925060ff191682840152151560051b820101388080611a61565b6001600160a01b039182169290918315611c5957600092828452826020956002875260409684888820541696879133151580611bc3575b509060027fddf252ad1be2c89b69c2b068fc378daa952ba7f163c4a11628f55a4df523b3ef9284611b90575b858352600381528b8320805460010190558683525289812080546001600160a01b0319168517905580a41692838303611b6f5750505050565b6064945051926364283d7b60e01b8452600484015260248301526044820152fd5b600087815260046020526040902080546001600160a01b0319169055848352600381528b83208054600019019055611b36565b91939450915080611c18575b15611bdf57859291879138611b0a565b878688611bfc576024915190637e27328960e01b82526004820152fd5b604491519063177e802f60e01b82523360048301526024820152fd5b503387148015611c3d575b80611bcf5750858252600481523385898420541614611bcf565b5086825260058152878220338352815260ff8883205416611c23565b604051633250574960e11b815260006004820152602490fd5b9060088110156103095760ff80198354169116179055565b600019811461075f5760010190565b805415610da857600052602060002090600090565b6001600160401b038111610cc15760051b60200190565b60088210156103095752565b60078210156103095752565b8054821015610da85760005260206000200190600090565b6000818152600260205260409020546001600160a01b0316908115611d18575090565b60249060405190637e27328960e01b82526004820152fd5b6007546001600160a01b03163303611d4457565b60405163118cdaa760e01b8152336004820152602490fd5b60408051611d6981611966565b6000808252936001600160a01b03848116949092908515611f725782875260209360028552858820541683878215159283611f3f575b818b5260038852888b2080546001019055828b5260028852888b2080546001600160a01b031916831790557fddf252ad1be2c89b69c2b068fc378daa952ba7f163c4a11628f55a4df523b3ef8b80a4611f27573b611e00575b505050505050565b82611e3e918596979894955180938192630a85bd0160e11b968784523360048501528c60248501526044840152608060648401526084830190611819565b03818a8a5af1879181611ee3575b50611eac575050503d600014611ea3573d611e66816119a2565b90611e7384519283611981565b81528094823d92013e5b83519384611e9d578251633250574960e11b815260048101859052602490fd5b84925001fd5b60609350611e7d565b919550915063ffffffff60e01b1603611ecc575050388080808080611df8565b602492505190633250574960e11b82526004820152fd5b9091508481813d8311611f20575b611efb8183611981565b81010312611f1c57516001600160e01b031981168103611f1c579038611e4c565b8780fd5b503d611ef1565b84516339e3563760e11b815260048101889052602490fd5b600083815260046020526040902080546001600160a01b0319169055808b5260038852888b208054600019019055611d9f565b8451633250574960e11b815260048101889052602490fd5b9190916000908082526020916006835260408120908551906001600160401b0382116120eb57611fba83546119f4565b601f81116120a8575b508490601f831160011461202457907ff8e1a15aba9398e019f0b49df1a4fde98ee17ae345cb5f6b5e2c27f5033e8ce7969783612019575b50508160011b916000199060031b1c19161790555b604051908152a1565b015190503880611ffb565b9196601f198816848452868420935b81811061209157509160019391897ff8e1a15aba9398e019f0b49df1a4fde98ee17ae345cb5f6b5e2c27f5033e8ce7999a9410612078575b505050811b019055612010565b015160001960f88460031b161c1916905538808061206b565b929387600181928786015181550195019301612033565b838252858220601f840160051c8101918785106120e1575b601f0160051c01905b8181106120d65750611fc3565b8281556001016120c9565b90915081906120c0565b634e487b7160e01b81526041600452602490fd5b90939192833b612111575b5050505050565b604051630a85bd0160e11b8082526001600160a01b03938416600483015295831660248201526044810191909152608060648201529492169260209291859061215e906084830190611819565b039483816000978189895af1869181612209575b506121d3575050503d6000146121ca573d61218c816119a2565b9061219a6040519283611981565b81528093823d92013e5b825192836121c557604051633250574960e11b815260048101849052602490fd5b019050fd5b606092506121a4565b919450915063ffffffff60e01b16036121f15750388080808061210a565b60249060405190633250574960e11b82526004820152fd5b9091508481813d8311612246575b6122218183611981565b8101031261224257516001600160e01b031981168103612242579038612172565b8680fd5b503d61221756fea26469706673582212202690c11e396cf6f873be1864b1053d50e0746f1d697c29457bce2013fd56e31364736f6c63430008180033",
  "linkReferences": {},
  "deployedLinkReferences": {}
}