{
  "_format": "hh-sol-artifact-1",
  "contractName": "DBTC",
  "sourceName": "contracts/DBTC.sol",
  "abi": [
    {
      "inputs": [],
      "stateMutability": "nonpayable",
      "type": "constructor"
    },
    {
      "inputs": [],
      "name": "ActionNotAllowedInPhase",
      "type": "error"
    },
    {
      "inputs": [],
      "name": "CannotAdvancePhase",
      "type": "error"
    },
    {
      "inputs": [],
      "name": "DepartmentAlreadyExists",
      "type": "error"
    },
    {
      "inputs": [],
      "name": "DepartmentNotFound",
      "type": "error"
    },
    {
      "inputs": [],
      "name": "EmptyString",
      "type": "error"
    },
    {
      "inputs": [],
      "name": "InvalidPhase",
      "type": "error"
    },
    {
      "inputs": [],
      "name": "NotAuthorized",
      "type": "error"
    },
    {
      "inputs": [],
      "name": "NotPhaseResponsible",
      "type": "error"
    },
    {
      "inputs": [
        {
          "internalType": "address",
          "name": "owner",
          "type": "address"
        }
      ],
      "name": "OwnableInvalidOwner",
      "type": "error"
    },
    {
      "inputs": [
        {
          "internalType": "address",
          "name": "account",
          "type": "address"
        }
      ],
      "name": "OwnableUnauthorizedAccount",
      "type": "error"
    },
    {
      "inputs": [],
      "name": "ZeroAddress",
      "type": "error"
    },
    {
      "anonymous": false,
      "inputs": [
        {
          "indexed": true,
          "internalType": "uint256",
          "name": "fiscalYear",
          "type": "uint256"
        }
      ],
      "name": "BudgetCycleStarted",
      "type": "event"
    },
    {
      "anonymous": false,
      "inputs": [
        {
          "indexed": true,
          "internalType": "string",
          "name": "code",
          "type": "string"
        },
        {
          "indexed": false,
          "internalType": "address",
          "name": "departmentContract",
          "type": "address"
        },
        {
          "indexed": false,
          "internalType": "string",
          "name": "name",
          "type": "string"
        }
      ],
      "name": "DepartmentAdded",
      "type": "event"
    },
    {
      "anonymous": false,
      "inputs": [
        {
          "indexed": true,
          "internalType": "string",
          "name": "code",
          "type": "string"
        }
      ],
      "name": "DepartmentRemoved",
      "type": "event"
    },
    {
      "anonymous": false,
      "inputs": [
        {
          "indexed": true,
          "internalType": "address",
          "name": "previousOwner",
          "type": "address"
        },
        {
          "indexed": true,
          "internalType": "address",
          "name": "newOwner",
          "type": "address"
        }
      ],
      "name": "OwnershipTransferred",
      "type": "event"
    },
    {
      "anonymous": false,
      "inputs": [
        {
          "indexed": true,
          "internalType": "enum Types.BudgetPhase",
          "name": "fromPhase",
          "type": "uint8"
        },
        {
          "indexed": true,
          "internalType": "enum Types.BudgetPhase",
          "name": "toPhase",
          "type": "uint8"
        },
        {
          "indexed": false,
          "internalType": "uint256",
          "name": "fiscalYear",
          "type": "uint256"
        }
      ],
      "name": "PhaseAdvanced",
      "type": "event"
    },
    {
      "anonymous": false,
      "inputs": [
        {
          "indexed": true,
          "internalType": "enum Types.BudgetPhase",
          "name": "phase",
          "type": "uint8"
        },
        {
          "indexed": true,
          "internalType": "string",
          "name": "deptCode",
          "type": "string"
        }
      ],
      "name": "PhaseResponsibilityAssigned",
      "type": "event"
    },
    {
      "anonymous": false,
      "inputs": [
        {
          "indexed": false,
          "internalType": "uint256",
          "name": "fiscalYear",
          "type": "uint256"
        },
        {
          "indexed": false,
          "internalType": "address",
          "name": "budgetProposalContract",
          "type": "address"
        }
      ],
      "name": "SystemInitialized",
      "type": "event"
    },
    {
      "inputs": [
        {
          "internalType": "string",
          "name": "deptCode",
          "type": "string"
        },
        {
          "internalType": "string",
          "name": "deptName",
          "type": "string"
        },
        {
          "internalType": "string",
          "name": "mainAgencyName",
          "type": "string"
        },
        {
          "internalType": "address",
          "name": "mainAgencyOwner",
          "type": "address"
        },
        {
          "internalType": "bool",
          "name": "isStandalone",
          "type": "bool"
        },
        {
          "internalType": "bool",
          "name": "isActualDept",
          "type": "bool"
        }
      ],
      "name": "addDepartment",
      "outputs": [
        {
          "internalType": "address",
          "name": "deptContract",
          "type": "address"
        }
      ],
      "stateMutability": "nonpayable",
      "type": "function"
    },
    {
      "inputs": [
        {
          "internalType": "string",
          "name": "deptCode",
          "type": "string"
        },
        {
          "internalType": "string",
          "name": "deptName",
          "type": "string"
        },
        {
          "internalType": "string",
          "name": "mainAgencyName",
          "type": "string"
        },
        {
          "internalType": "address",
          "name": "mainAgencyOwner",
          "type": "address"
        }
      ],
      "name": "addRegularDepartment",
      "outputs": [
        {
          "internalType": "address",
          "name": "deptContract",
          "type": "address"
        }
      ],
      "stateMutability": "nonpayable",
      "type": "function"
    },
    {
      "inputs": [],
      "name": "advancePhase",
      "outputs": [],
      "stateMutability": "nonpayable",
      "type": "function"
    },
    {
      "inputs": [
        {
          "internalType": "enum Types.BudgetPhase",
          "name": "phase",
          "type": "uint8"
        },
        {
          "internalType": "string",
          "name": "deptCode",
          "type": "string"
        }
      ],
      "name": "assignPhaseResponsibility",
      "outputs": [],
      "stateMutability": "nonpayable",
      "type": "function"
    },
    {
      "inputs": [
        {
          "internalType": "address",
          "name": "agency",
          "type": "address"
        }
      ],
      "name": "authorizeAgencyMinter",
      "outputs": [],
      "stateMutability": "nonpayable",
      "type": "function"
    },
    {
      "inputs": [],
      "name": "budgetProposal",
      "outputs": [
        {
          "internalType": "contract BudgetProposal",
          "name": "",
          "type": "address"
        }
      ],
      "stateMutability": "view",
      "type": "function"
    },
    {
      "inputs": [],
      "name": "currentFiscalYear",
      "outputs": [
        {
          "internalType": "uint256",
          "name": "",
          "type": "uint256"
        }
      ],
      "stateMutability": "view",
      "type": "function"
    },
    {
      "inputs": [],
      "name": "currentPhase",
      "outputs": [
        {
          "internalType": "enum Types.BudgetPhase",
          "name": "",
          "type": "uint8"
        }
      ],
      "stateMutability": "view",
      "type": "function"
    },
    {
      "inputs": [],
      "name": "getBudgetProposalContract",
      "outputs": [
        {
          "internalType": "address",
          "name": "",
          "type": "address"
        }
      ],
      "stateMutability": "view",
      "type": "function"
    },
    {
      "inputs": [],
      "name": "getCurrentFiscalYear",
      "outputs": [
        {
          "internalType": "uint256",
          "name": "",
          "type": "uint256"
        }
      ],
      "stateMutability": "view",
      "type": "function"
    },
    {
      "inputs": [],
      "name": "getCurrentPhase",
      "outputs": [
        {
          "internalType": "enum Types.BudgetPhase",
          "name": "",
          "type": "uint8"
        }
      ],
      "stateMutability": "view",
      "type": "function"
    },
    {
      "inputs": [
        {
          "internalType": "string",
          "name": "deptCode",
          "type": "string"
        }
      ],
      "name": "getDepartment",
      "outputs": [
        {
          "internalType": "address",
          "name": "",
          "type": "address"
        }
      ],
      "stateMutability": "view",
      "type": "function"
    },
    {
      "inputs": [],
      "name": "getDepartmentCodes",
      "outputs": [
        {
          "internalType": "string[]",
          "name": "",
          "type": "string[]"
        }
      ],
      "stateMutability": "view",
      "type": "function"
    },
    {
      "inputs": [],
      "name": "getDepartmentCount",
      "outputs": [
        {
          "internalType": "uint256",
          "name": "",
          "type": "uint256"
        }
      ],
      "stateMutability": "view",
      "type": "function"
    },
    {
      "inputs": [
        {
          "internalType": "enum Types.BudgetPhase",
          "name": "phase",
          "type": "uint8"
        }
      ],
      "name": "getPhaseResponsibleDepartment",
      "outputs": [
        {
          "internalType": "string",
          "name": "",
          "type": "string"
        }
      ],
      "stateMutability": "view",
      "type": "function"
    },
    {
      "inputs": [
        {
          "internalType": "string",
          "name": "deptCode",
          "type": "string"
        }
      ],
      "name": "isDepartmentRegistered",
      "outputs": [
        {
          "internalType": "bool",
          "name": "",
          "type": "bool"
        }
      ],
      "stateMutability": "view",
      "type": "function"
    },
    {
      "inputs": [
        {
          "internalType": "string",
          "name": "deptCode",
          "type": "string"
        },
        {
          "internalType": "enum Types.BudgetPhase",
          "name": "phase",
          "type": "uint8"
        }
      ],
      "name": "isPhaseResponsible",
      "outputs": [
        {
          "internalType": "bool",
          "name": "",
          "type": "bool"
        }
      ],
      "stateMutability": "view",
      "type": "function"
    },
    {
      "inputs": [],
      "name": "owner",
      "outputs": [
        {
          "internalType": "address",
          "name": "",
          "type": "address"
        }
      ],
      "stateMutability": "view",
      "type": "function"
    },
    {
      "inputs": [],
      "name": "renounceOwnership",
      "outputs": [],
      "stateMutability": "nonpayable",
      "type": "function"
    },
    {
      "inputs": [],
      "name": "startBudgetCall",
      "outputs": [],
      "stateMutability": "nonpayable",
      "type": "function"
    },
    {
      "inputs": [
        {
          "internalType": "address",
          "name": "newOwner",
          "type": "address"
        }
      ],
      "name": "transferOwnership",
      "outputs": [],
      "stateMutability": "nonpayable",
      "type": "function"
    }
  ],
  "bytecode": "0x60806040908082523461012257331561010c57506000805482516001600160a01b039291338482167f8be0079c531659141344cd1fd0a4f28419497f9722a3daafe3b4186f6b6457e08580a36001600160a81b0319163360ff60a01b19161782556107e96001556126a4818101906001600160401b038211838310176100f857602091839162006f6b833930815203019082f09081156100ed57507fb81b54a9ae5a120f06f6521dc363bdeec34f6cf4b1e437c8c3082870954da4fe918391168060018060a01b031960025416176002556001549082519182526020820152a151616e439081620001288239f35b8351903d90823e3d90fd5b634e487b7160e01b84526041600452602484fd5b631e4fbdf760e01b815260006004820152602490fd5b600080fdfe60806040526004803610156200001457600080fd5b600090813560e01c908163028294dd14620010d1578163055ad42e14620005df5781630fffc12c1462000fc3578163222c67cb1462000eaa5781632688780b1462000c6f5781633f48a0541462000ba657816359d61375146200077257816360d8c5ec1462000713578163715018a614620006b5578163718a9bb114620006545781637908998714620006345781638da5cb5b146200060b578163a3a40ea514620005df578163a7b431c21462000456578163b30e917114620001d2578163bbfeced11462000436578163be25a7181462000263578163e6c0336114620001fd578163f29f4c8414620001d2578163f2fde38b1462000140575063ffa309e4146200011e57600080fd5b346200013d57806003193601126200013d576020600154604051908152f35b80fd5b905034620001ce576020366003190112620001ce576200015f620013f7565b62000169620017bd565b6001600160a01b03908116918215620001b6575082546001600160a01b0319811683178455167f8be0079c531659141344cd1fd0a4f28419497f9722a3daafe3b4186f6b6457e08380a380f35b604051631e4fbdf760e01b8152908101849052602490fd5b5080fd5b82346200013d57806003193601126200013d576002546040516001600160a01b039091168152602090f35b905034620001ce576020366003190112620001ce57359060078210156200013d576200025f620002426200024a620002358562001705565b604051928380926200171f565b03826200169b565b6040519182916020835260208301906200145d565b0390f35b82346200013d57806003193601126200013d5762000280620017ea565b8154620002aa60ff8260a01c1691620002b26200029d8462001705565b604051938480926200171f565b03836200169b565b815115620003b457604051868351620002d18184602080980162001438565b820160038152828560018060a01b039485930301902054168015620004265784906040519283809263059b2ddf60e01b82525afa908115620003f95782918591899162000404575b508960405180948193631127a41d60e31b8352165afa908115620003f9578791620003c5575b50163303620003b4576007841015620003a15760ff60a01b191660a084901b60ff60a01b161784556001546007831015620003a157907fa0b56c84658cbeecacafb795505a4cd8f1a2bd2e60c417ee92882b9079789ea191604051908152a380f35b634e487b7160e01b855260218652602485fd5b604051639942eedb60e01b81528690fd5b620003ea9150843d8611620003f1575b620003e181836200169b565b810190620016bd565b886200033f565b503d620003d5565b6040513d89823e3d90fd5b6200041f9150823d8411620003f157620003e181836200169b565b8a62000319565b506040516354fa308960e11b8152fd5b82346200013d57806003193601126200013d576020600154604051908152f35b82346200013d57602080600319360112620001ce5762000475620013f7565b90829083908554915b82811062000508575b50505015620004f75791819260018060a01b038060025416803b15620004f35784928360249260405196879586946317dc43d760e21b865216908401525af18015620004e857620004d55750f35b620004e09062001687565b6200013d5780f35b6040513d84823e3d90fd5b8480fd5b60405163ea8e4eb560e01b81528390fd5b868652807f8a35acfbc15ff81a39ae7d344fd709f28e8600b4aa8c65c6b64bfe7fe36bd19b01604051878254926200054084620014a5565b906001948581169081600014620005c7575060011462000591575b50506003815281900384019020546001600160a01b031633146200058357506001016200047e565b935050505084808062000487565b909150895284892085848b925b848410620005b4575050505081018a806200055b565b805484870152019101908487916200059e565b60ff19168552505080151502820190508a806200055b565b82346200013d57806003193601126200013d5760ff6200025f915460a01c16604051918291826200140e565b82346200013d57806003193601126200013d57546040516001600160a01b039091168152602090f35b905034620001ce5781600319360112620001ce5760209054604051908152f35b82346200013d5760203660031901126200013d578135906001600160401b0382116200013d5760206200068a36848601620013ab565b80604051928337600390820190815281900382019020546040516001600160a01b0390911615158152f35b82346200013d57806003193601126200013d57620006d2620017bd565b80546001600160a01b03198116825581906001600160a01b03167f8be0079c531659141344cd1fd0a4f28419497f9722a3daafe3b4186f6b6457e08280a380f35b82346200013d5760203660031901126200013d578135906001600160401b0382116200013d5760206200074936848601620013ab565b80604051928337600390820190815281900382019020546040516001600160a01b039091168152f35b905034620001ce5760c0366003190112620001ce5780356001600160401b03811162000ae957620007a79036908301620013ab565b6024356001600160401b038111620004f357620007c89036908501620013ab565b9190926044356001600160401b03811162000ba257620007ec9036908701620013ab565b90620007f7620013e0565b906084351580156084350362000b9e5760a43591821515830362000b9a576200081f620017bd565b60ff8b5460a01c16600781101562000b875762000b7657861562000b5c57871562000b5c57818062000b6d575b62000b5c576001600160a01b0384161562000b4b576040518787823760038189019081528190036020019020546001600160a01b031662000b3a57604051948561559d8101106001600160401b0361559d8801111762000b275785949392916200090591620008ee8c8c620008d78c8e61559d620018718e3960e061559d8e01818152019162001484565b9161559d8b018303602061559d8d01015262001484565b9161559d88018303604061559d8a01015262001484565b9230606061559d8701015260018060a01b0316608061559d860101521560a061559d85010152151560c061559d84010152039087f0801562000b1c5760018060a01b031694604051838382376020818581016003815203019020866bffffffffffffffffffffffff60a01b82541617905562000982838362001616565b6084351562000a37576002546001600160a01b0316908790823b15620001ce57602488918360405195869485936317dc43d760e21b85528401525af18015620003f957967f8387fea2467cbca83704ad1362368ec1b57b0d0fd2c45dac1625c8d39ac98d3f9493929160209862000a25575b505b82604051938493843782019081520390209262000a1a6040519283928784620016de565b0390a2604051908152f35b62000a309062001687565b38620009f4565b60025460405163059b2ddf60e01b81526001600160a01b0390911691889160208183818c5afa90811562000b1157839162000aed575b50833b1562000ae9576024908360405195869485936317dc43d760e21b855260018060a01b0316908401525af18015620003f957967f8387fea2467cbca83704ad1362368ec1b57b0d0fd2c45dac1625c8d39ac98d3f9493929160209862000ad7575b50620009f6565b62000ae29062001687565b3862000ad0565b8280fd5b62000b0a915060203d602011620003f157620003e181836200169b565b3862000a6d565b6040513d85823e3d90fd5b6040513d88823e3d90fd5b634e487b7160e01b8c5260418b5260248cfd5b60405163a17ca8e360e01b81528a90fd5b60405163d92e233d60e01b81528a90fd5b60405163ecd7b0d160e01b81528a90fd5b5084156200084c565b604051637996d44d60e11b81528a90fd5b634e487b7160e01b8c5260218b5260248cfd5b8a80fd5b8980fd5b8680fd5b905034620001ce576040366003190112620001ce576001600160401b0390803582811162000c6b5762000bdd9036908301620013ab565b9091602435600781101562000c545762000bff62000235620002429262001705565b6020815191012093821162000c5857506040519062000c29601f8201601f1916602001836200169b565b8082526020820192368282011162000c54578160209692879286378301015251902014604051908152f35b8580fd5b634e487b7160e01b855260419052602484fd5b8380fd5b82346200013d57806003193601126200013d57600181526020600581526200024262000ca560408420604051928380926200171f565b80511562000e9957838262000cc4604051938481519384920162001438565b820160038152828460018060a01b039485930301902054168015620004265783906040519283809263059b2ddf60e01b82525afa90811562000e6c5782918491869162000e77575b508660405180948193631127a41d60e31b8352165afa90811562000e6c57849162000e4a575b5016330362000e395781549060ff8260a01c169060078210159283620003a1578215158062000e2a575b62000e1957600154600019811462000e065760019081019081905560ff60a01b19909116600160a01b17808655604051919060ff90827f3ffa609f7ca6c9d5db99744fbee18906f640c2e887e2aaf9386a9cebe2eca1728980a260a01c169462000df357600785101562000df35781527fa0b56c84658cbeecacafb795505a4cd8f1a2bd2e60c417ee92882b9079789ea19190a380f35b634e487b7160e01b865260218752602486fd5b634e487b7160e01b865260118752602486fd5b60405163268dbf6760e21b81528690fd5b50849350600683141562000d5c565b604051639942eedb60e01b81528390fd5b62000e659150833d8511620003f157620003e181836200169b565b8562000d32565b6040513d86823e3d90fd5b62000e929150823d8411620003f157620003e181836200169b565b8762000d0c565b604051639942eedb60e01b81528490fd5b905034620001ce5781600319360112620001ce578054906001600160401b03821162000fb0576020926040519262000ee8858260051b01856200169b565b808452848401809383527f8a35acfbc15ff81a39ae7d344fd709f28e8600b4aa8c65c6b64bfe7fe36bd19b83915b83831062000f805750505050604051928484019085855251809152604084019460408260051b8601019392955b82871062000f515785850386f35b90919293828062000f6f600193603f198a820301865288516200145d565b960192019601959291909262000f43565b600188819260409a99979a5162000f9d816200024281896200171f565b8152019201920191909693959662000f16565b634e487b7160e01b835260419052602482fd5b905034620001ce576040366003190112620001ce57803590600782101562000ae9576024356001600160401b03811162000c6b57620010069036908301620013ab565b9162001011620017bd565b60ff855460a01c166007811015620010be57620010af576040518383823760038185019081528190036020019020546001600160a01b031615620010a05750620010678282620010618662001705565b620014e2565b8160405192839283378101848152039020907ff203a1b6b76a4dc61149fa8a348959c1058de0a81b69fc66acdfbb493ad90d598380a380f35b6040516354fa308960e11b8152fd5b604051637996d44d60e11b8152fd5b634e487b7160e01b865260218252602486fd5b82346200013d5760803660031901126200013d576001600160401b03823581811162000ae957620011069036908501620013ab565b602435838111620004f357620011209036908701620013ab565b91909260443585811162000ba2576200113d9036908901620013ab565b6200114a979197620013e0565b9662001155620017bd565b60ff835460a01c166007811015620013985762000b7657841562000b5c57851562000b5c57811562000b5c576001600160a01b0397881690811562001387576040519986868c37898b8881016003815260209d8e9103019020541662001376576040519361559d808601938411868510176200136257926200121c60019360c0938f6200120d908f8f908f8f620011ff918f9e9d8f62001871903960e08b5260e08b019162001484565b928884039089015262001484565b91848303604086015262001484565b9330606083015260808201528660a08201520152039082f0801562001331578616956040518484823788818681016003815203019020876bffffffffffffffffffffffff60a01b82541617905562001275848462001616565b60025460405163059b2ddf60e01b815290821689828c818c5afa91821562000e6c5784926200133e575b50803b1562000c6b57839291836024926040519d8e9586946317dc43d760e21b865216908401525af197881562001331577f8387fea2467cbca83704ad1362368ec1b57b0d0fd2c45dac1625c8d39ac98d3f959697986200131f575082604051938493843782019081520390209262000a1a6040519283928784620016de565b6200132a9062001687565b88620009f4565b50604051903d90823e3d90fd5b6200135a9192508a3d8c11620003f157620003e181836200169b565b908b6200129f565b50634e487b7160e01b865260418d52602486fd5b60405163a17ca8e360e01b81528c90fd5b60405163d92e233d60e01b81528b90fd5b634e487b7160e01b845260218b52602484fd5b9181601f84011215620013db578235916001600160401b038311620013db5760208381860195010111620013db57565b600080fd5b606435906001600160a01b0382168203620013db57565b600435906001600160a01b0382168203620013db57565b919060208301926007821015620014225752565b634e487b7160e01b600052602160045260246000fd5b60005b8381106200144c5750506000910152565b81810151838201526020016200143b565b90602091620014788151809281855285808601910162001438565b601f01601f1916010190565b908060209392818452848401376000828201840152601f01601f1916010190565b90600182811c92168015620014d7575b6020831014620014c157565b634e487b7160e01b600052602260045260246000fd5b91607f1691620014b5565b9092916001600160401b0381116200160057620015008254620014a5565b601f8111620015b1575b506000601f82116001146200154857819293946000926200153c575b50508160011b916000199060031b1c1916179055565b01359050388062001526565b601f19821694838252602091602081209281905b88821062001598575050836001959697106200157d575b505050811b019055565b0135600019600384901b60f8161c1916905538808062001573565b806001849682949587013581550195019201906200155c565b6000836000526020600020601f840160051c81019260208510620015f5575b601f0160051c01915b828110620015e95750506200150a565b818155600101620015d9565b9092508290620015d0565b634e487b7160e01b600052604160045260246000fd5b9060045491680100000000000000008310156200160057600183018060045583101562001671576200166f9260046000527f8a35acfbc15ff81a39ae7d344fd709f28e8600b4aa8c65c6b64bfe7fe36bd19b01620014e2565b565b634e487b7160e01b600052603260045260246000fd5b6001600160401b0381116200160057604052565b90601f801991011681019081106001600160401b038211176200160057604052565b90816020910312620013db57516001600160a01b0381168103620013db5790565b6001600160a01b039091168152604060208201819052620017029391019162001484565b90565b600781101562001422576000526005602052604060002090565b8054600093926200173082620014a5565b918282526020936001916001811690816000146200179d575060011462001759575b5050505050565b90939495506000929192528360002092846000945b838610620017885750505050010190388080808062001752565b8054858701830152940193859082016200176e565b60ff19168685015250505090151560051b01019150388080808062001752565b6000546001600160a01b03163303620017d257565b60405163118cdaa760e01b8152336004820152602490fd5b60ff60005460a01c166007811015620014225780620018155760405163268dbf6760e21b8152600490fd5b60018103620018245750600290565b60028103620018335750600390565b60038103620018425750600490565b60048103620018515750600590565b6005036200185e57600690565b604051637bd393ab60e01b8152600490fdfe608060408181523462000620576200559d803803809162000021828662000625565b843982019160e081840312620006205780516001600160401b039190828111620006205784620000539183016200068a565b9360209081830151848111620006205781620000719185016200068a565b90858401519085821162000620576200008c9185016200068a565b926200009b60608201620006d7565b620000a960808301620006d7565b95620000c660c0620000be60a08601620006ec565b9401620006ec565b988051156200060f578451156200060f576001600160a01b03928316948515620005fe57838916948515620005ed5782519b848d11620005d7578c60009d8e620001118154620006fa565b96601f978d898211620005a6575b50508c918884116001146200053d579262000531575b50508160011b916000199060031b1c1916178d555b82518581116200051d57808e600195620001658754620006fa565b8d898211620004e1575b50508c918884116001146200047b57926200046f575b5050600019600383901b1c191690841b1783555b600280546001600160a01b031990811690991790556008805460ff60b01b19811692151560b01b60ff60b01b169283179091559091156200021b57505060088054610100600160b01b03191660109a909a1b62010000600160b01b0316999099176101001790985550969750505050505050505b516130129081620007788239f35b909192939495969798809a5051156200045e5761ff0060ff60b01b011916176008558851611e13808201979190858911828a10176200044a576200378a823960808852808b6003988960808c01526230303160e81b9a8b60a08201528c810160c090528d60c082016200028e9162000750565b9230908201526060015203908cf0801562000440578516808288541617875560238b5189815260068982015220918254161790556007549068010000000000000000821015620003f7578101806007558110156200042c5760078a52868a200190620002fb8254620006fa565b8181116200040b575b505060068501905581835416826002541691885190878201926353da18e160e11b8452602483015260248252606082019082821090821117620003f757998093620003e89695938280948d9e7ff697a792a1deae67407aab164de3727e4dd86a192529dd858d4e951583996b2e9d9e5251925af1503d15620003f1573d6200038c8162000649565b906200039b8b51928362000625565b815282873d92013e5b82541693847fe89615b138129596306259c91aed1b21f7bb5f965a2b003f1399667fc5945a4d8a519380a28152209486805194859485528401528683019062000750565b0390a26200020d565b620003a4565b634e487b7160e01b8b52604160045260248bfd5b6200042491838c52888c20910160051c81019062000737565b388062000304565b634e487b7160e01b8a52603260045260248afd5b8a513d8d823e3d90fd5b634e487b7160e01b8d52604160045260248dfd5b8a5163ecd7b0d160e01b8152600490fd5b01519050388062000185565b8781528d8120889550929190601f198516908f5b828210620004c95750508411620004af575b505050811b01835562000199565b015160001960f88460031b161c19169055388080620004a1565b8385015186558a979095019493840193018f6200048f565b6200050b918985528a8286209181880160051c830193881062000513575b0160051c019062000737565b388d6200016f565b92508192620004ff565b634e487b7160e01b8e52604160045260248efd5b01519050388062000135565b8080528d81209350601f198516908e5b8282106200058e57505090846001959493921062000574575b505050811b018d556200014a565b015160001960f88460031b161c1916905538808062000566565b60018596829396860151815501950193018e6200054d565b620005cf918480528a8286209181880160051c830193881062000513570160051c019062000737565b388d6200011f565b634e487b7160e01b600052604160045260246000fd5b8a5163d92e233d60e01b8152600490fd5b895163d92e233d60e01b8152600490fd5b885163ecd7b0d160e01b8152600490fd5b600080fd5b601f909101601f19168101906001600160401b03821190821017620005d757604052565b6001600160401b038111620005d757601f01601f191660200190565b60005b838110620006795750506000910152565b818101518382015260200162000668565b81601f8201121562000620578051620006a38162000649565b92620006b3604051948562000625565b818452602082840101116200062057620006d4916020808501910162000665565b90565b51906001600160a01b03821682036200062057565b519081151582036200062057565b90600182811c921680156200072c575b60208310146200071657565b634e487b7160e01b600052602260045260246000fd5b91607f16916200070a565b81811062000743575050565b6000815560010162000737565b906020916200076b8151809281855285808601910162000665565b601f01601f191601019056fe60808060405260043610156200001457600080fd5b60003560e01c908163059b2ddf1462000e365750806306fdde031462000c255780630744d2111462000bfa5780630d6d284d1462000ca6578063150b7a021462000c4657806317d7de7c1462000c2557806324c12bf614620001cb57806334a1dd531462000bfa5780633ef1e8461462000b975780634473bf4d1462000b365780634b53200c14620004e357806351869aa6146200050e57806351c3d38614620004e357806364c7e22114620004af57806366f7b073146200017057806372218f95146200036e578063838453fd14620003285780638624c3ac14620003085780638f97323b14620002b2578063a412ea581462000205578063a78d91ff146200028d578063a8845709146200022d578063b147b094146200025c578063b73f232d146200022d578063bfdb57a51462000205578063ea87963414620001cb578063faeb44cb14620001a05763fd2a4086146200017057600080fd5b346200019b5760003660031901126200019b576004546040516001600160a01b039091168152602090f35b600080fd5b346200019b5760003660031901126200019b576003546040516001600160a01b039091168152602090f35b346200019b5760003660031901126200019b5762000201620001ec62000f8e565b60405191829160208352602083019062001036565b0390f35b346200019b5760003660031901126200019b57602060ff60085460b01c166040519015158152f35b346200019b5760003660031901126200019b5760085460405160109190911c6001600160a01b03168152602090f35b346200019b5760003660031901126200019b5760206200027b62001119565b6040516001600160a01b039091168152f35b346200019b5760003660031901126200019b57602060ff600854166040519015158152f35b346200019b5760203660031901126200019b576020620002d162001078565b6004546001600160a01b039182169082168114918215620002f9575b50506040519015158152f35b600554161490508280620002ed565b346200019b5760003660031901126200019b576020600754604051908152f35b346200019b5760003660031901126200019b5760ff60085460081c16604051600282101562000358576020918152f35b634e487b7160e01b600052602160045260246000fd5b346200019b5760403660031901126200019b576200038b62001078565b620003956200108f565b60035490916001600160a01b0391821680156200045b57602060049160405192838092631127a41d60e31b82525afa8015620004a35783916000916200046d575b501633036200045b5781169182156200044957169081156200044957816bffffffffffffffffffffffff60a01b828160045416176004556005541617600555600160ff1960085416176008557fa5da52a5372bf6d247c935322da637664dd8be1ab9e61f52470a7525bd0e4d6e600080a3005b60405163d92e233d60e01b8152600490fd5b6040516304d36fc760e51b8152600490fd5b62000494915060203d6020116200049b575b6200048b818362000e99565b810190620010d7565b85620003d6565b503d6200047f565b6040513d6000823e3d90fd5b346200019b5760003660031901126200019b5760ff60085460081c1660028110156200035857602090600160405191148152f35b346200019b5760003660031901126200019b576005546040516001600160a01b039091168152602090f35b346200019b5760603660031901126200019b5760043567ffffffffffffffff81116200019b5762000544903690600401620010a6565b602490813567ffffffffffffffff81116200019b5762000569903690600401620010a6565b91909360443560018060a01b0381168091036200019b5760085460ff8160081c16600281101562000b215760010362000a9d5760101c6001600160a01b0316330362000a8b575b60025460405163a3a40ea560e01b815290602090829060049082906001600160a01b03165afa908115620004a35760009162000a49575b50600781101562000a345762000a2257821562000a1057831562000a1057801562000449576040518383823760068185019081528190036020019020546001600160a01b0316620009fe5760405190611e13908183019183831067ffffffffffffffff841117620009e95790839291620011aa84396080825260606200068662000676608085018989620010f8565b8481036020860152898c620010f8565b92306040820152015203906000f0938415620004a357604051838382376006848201908152819003602001902080546001600160a01b0319166001600160a01b03871617905560075468010000000000000000811015620009bf576001810180600755811015620009d457600760005267ffffffffffffffff8411620009bf57620007238160008051602062002fbd833981519152015462000e5c565b601f811162000961575b50836000601f8211600114620008d257600091620008c6575b508460011b906000198660031b1c1916179060008051602062002fbd83398151915201555b6002546040516353da18e160e11b602082019081526001600160a01b038881168584015284835290921691906060810181811067ffffffffffffffff821117620008b1576040525160009283929083905af1503d1562000884573d9067ffffffffffffffff821162000870575091602095917ff697a792a1deae67407aab164de3727e4dd86a192529dd858d4e951583996b2e93604051906200081889601f19601f840116018362000e99565b81526000883d92013e5b816040519283928337810160008152039020926200085b60405192839260018060a01b03881684526040898501526040840191620010f8565b0390a26040516001600160a01b039091168152f35b634e487b7160e01b60009081526041600452fd5b50937ff697a792a1deae67407aab164de3727e4dd86a192529dd858d4e951583996b2e9160209562000822565b84634e487b7160e01b60005260416004526000fd5b90508301358862000746565b9050601f198516908260008051602062002fbd833981519152016000528560206000209260005b818110620009455750106200092a575b5050600184811b019060008051602062002fbd83398151915201556200076b565b840135600019600387901b60f8161c19169055878062000909565b87840135855560019094019360209384019389935001620008f9565b8160008051602062002fbd833981519152016000526020600020601f860160051c81019160208710620009b4575b601f0160051c01905b818110620009a757506200072d565b6000815560010162000998565b90915081906200098f565b50634e487b7160e01b60009081526041600452fd5b50634e487b7160e01b60009081526032600452fd5b87634e487b7160e01b60005260416004526000fd5b604051638f51c18f60e01b8152600490fd5b60405163ecd7b0d160e01b8152600490fd5b604051637996d44d60e11b8152600490fd5b85634e487b7160e01b60005260216004526000fd5b90506020813d60201162000a82575b8162000a676020938362000e99565b810103126200019b575160078110156200019b5787620005e7565b3d915062000a58565b604051639767f1df60e01b8152600490fd5b506003546001600160a01b031680156200045b57602060049160405192838092631127a41d60e31b82525afa908115620004a35760009162000afd575b506001600160a01b03163314620005b0576040516304d36fc760e51b8152600490fd5b62000b1a915060203d6020116200049b576200048b818362000e99565b8762000ada565b86634e487b7160e01b60005260216004526000fd5b346200019b5760203660031901126200019b5760043567ffffffffffffffff81116200019b5762000b6e6020913690600401620010a6565b80604051928337600690820190815281900382019020546040516001600160a01b039091168152f35b346200019b5760203660031901126200019b5760043567ffffffffffffffff81116200019b5762000bcf6020913690600401620010a6565b80604051928337600690820190815281900382019020546040516001600160a01b0390911615158152f35b346200019b5760003660031901126200019b576002546040516001600160a01b039091168152602090f35b346200019b5760003660031901126200019b5762000201620001ec62000ebc565b346200019b5760803660031901126200019b5762000c6362001078565b5062000c6e6200108f565b5060643567ffffffffffffffff81116200019b5762000c92903690600401620010a6565b5050604051630a85bd0160e11b8152602090f35b346200019b5760003660031901126200019b5760075467ffffffffffffffff811162000e2057602060056040519262000ce5838260051b018562000e99565b808452828401908192600760005260008051602062002fbd833981519152926000905b83821062000d7057604080518881528951818a01819052600092600582901b83018101918a918c9085015b82871062000d415785850386f35b90919293828062000d5f600193603f198a8203018652885162001036565b960192019601959291909262000d33565b6040979697518860009287549262000d888462000e5c565b80825260019480861690811562000e03575060011462000dc6575b5062000db481600196038262000e99565b81520195019101909396959662000d08565b60008a81528481209650905b80821062000deb575081018301945062000db462000da3565b8654838301860152958501958d949091019062000dd2565b60ff191685840152501515871b81018301945062000db462000da3565b634e487b7160e01b600052604160045260246000fd5b346200019b5760003660031901126200019b576003546001600160a01b03168152602090f35b90600182811c9216801562000e8e575b602083101462000e7857565b634e487b7160e01b600052602260045260246000fd5b91607f169162000e6c565b90601f8019910116810190811067ffffffffffffffff82111762000e2057604052565b6040519060008260019160015462000ed48162000e5c565b808452936020916001811690811562000f68575060011462000f03575b505062000f019250038362000e99565b565b91509260016000527fb10e2d527612073b26eecdfd717e6a320cf44b4afac2b0732d9fcbe2b7fa0cf6936000925b82841062000f4f575062000f01945050508101602001388062000ef1565b8554888501830152948501948794509281019262000f31565b9150506020925062000f0194915060ff191682840152151560051b820101388062000ef1565b604051906000826000549162000fa48362000e5c565b8083529260209060019081811690811562000f68575060011462000fd257505062000f019250038362000e99565b915092600080527f290decd9548b62a8d60345a988386fc84ba6bc95484008f6362f93160ef3e563936000925b8284106200101d575062000f01945050508101602001388062000ef1565b8554888501830152948501948794509281019262000fff565b919082519283825260005b84811062001063575050826000602080949584010152601f8019910116010190565b60208183018101518483018201520162001041565b600435906001600160a01b03821682036200019b57565b602435906001600160a01b03821682036200019b57565b9181601f840112156200019b5782359167ffffffffffffffff83116200019b57602083818601950101116200019b57565b908160209103126200019b57516001600160a01b03811681036200019b5790565b908060209392818452848401376000828201840152601f01601f1916010190565b60085460ff8160081c1660028110156200035857600103620011445760101c6001600160a01b031690565b506003546001600160a01b0316806200115d5750600090565b602060049160405192838092631127a41d60e31b82525afa908115620004a35760009162001189575090565b620011a6915060203d6020116200049b576200048b818362000e99565b9056fe604060808152346200042e5762001e13803803806200001e8162000433565b92833981016080828203126200042e5781516001600160401b0391908281116200042e57816200005091850162000459565b9060209081850151908482116200042e576200006e91860162000459565b62000089606062000081888801620004cb565b9601620004cb565b948351156200041d578151156200041d576001600160a01b039081169586156200040c5716938415620003fb578351818111620003e5576000928354916001968784811c94168015620003da575b87851014620003c6578190601f9485811162000373575b5087908583116001146200030f57879262000303575b5050600019600383901b1c191690871b1784555b8051928311620002ef5785548681811c91168015620002e4575b86821014620002d057908183859493116200027b575b5085918311600114620002175784926200020b575b5050600019600383901b1c191690841b1783555b600280546001600160a01b031990811690961790556003805486168517905583815260048252858120805460ff1916841790556005549268010000000000000000841015620001f757830180600555831015620001e35760058152200191825416179055516119329081620004e18239f35b634e487b7160e01b81526032600452602490fd5b634e487b7160e01b82526041600452602482fd5b0151905038806200015d565b8685528585208794509190601f198416865b888282106200026457505084116200024a575b505050811b01835562000171565b015160001960f88460031b161c191690553880806200023c565b8385015186558a9790950194938401930162000229565b909192508685528585208380860160051c820192888710620002c6575b9186958a929594930160051c01915b828110620002b757505062000148565b878155869550899101620002a7565b9250819262000298565b634e487b7160e01b85526022600452602485fd5b90607f169062000132565b634e487b7160e01b84526041600452602484fd5b01519050388062000104565b8780528888208a94509190601f198416895b8b8282106200035c575050841162000342575b505050811b01845562000118565b015160001960f88460031b161c1916905538808062000334565b8385015186558d9790950194938401930162000321565b9091508680528787208580850160051c8201928a8610620003bc575b918b91869594930160051c01915b828110620003ad575050620000ee565b8981558594508b91016200039d565b925081926200038f565b634e487b7160e01b86526022600452602486fd5b93607f1693620000d7565b634e487b7160e01b600052604160045260246000fd5b865163d92e233d60e01b8152600490fd5b875163d92e233d60e01b8152600490fd5b865163ecd7b0d160e01b8152600490fd5b600080fd5b6040519190601f01601f191682016001600160401b03811183821017620003e557604052565b919080601f840112156200042e5782516001600160401b038111620003e5576020906200048f601f8201601f1916830162000433565b928184528282870101116200042e5760005b818110620004b757508260009394955001015290565b8581018301518482018401528201620004a1565b51906001600160a01b03821682036200042e5756fe6080604052600436101561001257600080fd5b60003560e01c8063025916e1146101335780630455804b1461012e57806306fdde031461011f5780630e43ce0614610129578063150b7a021461012457806317d7de7c1461011f57806324c12bf6146100fc57806327d206651461010157806343a55ea11461011a5780637d5feec114610115578063893d20e8146101105780638da5cb5b1461011057806392c26bcd1461010b57806397fa49bc146101065780639ca6516314610101578063ea879634146100fc578063edf46e2b146100f7578063f1e626ff146100f25763f2fde38b146100ed57600080fd5b610df8565b610cd2565b610c0e565b6107ea565b610806565b610b08565b610a75565b610a4c565b610985565b61082f565b610632565b61078f565b61074d565b61038c565b6101bc565b9181601f840112156101665782359167ffffffffffffffff8311610166576020838186019501011161016657565b600080fd5b60c090606319011261016657606490565b60e0600319820112610166576004359167ffffffffffffffff8311610166576101aa8260c094600401610138565b90939092602319011261016657602490565b34610166576101ca3661017c565b6003549192916001600160a01b0390811633141580610312575b6103005760025461020b906101ff906001600160a01b031681565b6001600160a01b031690565b9060405180926334a1dd5360e01b825281600460209586935afa80156102ce5783916000916102d3575b5060046040518094819363a3a40ea560e01b8352165afa9081156102ce576004926000926102a1575b505061026981610e7f565b0361028f5761028b9261027b92610f91565b6040519081529081906020820190565b0390f35b604051637996d44d60e11b8152600490fd5b6102c09250803d106102c7575b6102b881836104c8565b810190610e67565b388061025e565b503d6102ae565b610e5b565b6102f39150823d84116102f9575b6102eb81836104c8565b810190610e43565b38610235565b503d6102e1565b604051636dff42d560e11b8152600490fd5b5033600052600460205260ff60406000205416156101e4565b90610120600319830112610166576004359167ffffffffffffffff90602435828111610166578161035e91600401610138565b9093909260c060431984011261016657604492610104359182116101665761038891600401610138565b9091565b346101665761039a3661032b565b9260018060a09796979493941b03806003541633141580610499575b610300576002546103d1906101ff906001600160a01b031681565b9060405180926334a1dd5360e01b825281600460209586935afa80156102ce57839160009161047c575b5060046040518094819363a3a40ea560e01b8352165afa9182156102ce5760009261045f575b505061042c81610e7f565b6001811415908161044a575b5061028f5761028b9561027b956110d2565b6002915061045781610e7f565b141538610438565b6104759250803d106102c7576102b881836104c8565b3880610421565b6104939150823d84116102f9576102eb81836104c8565b386103fb565b5033600052600460205260ff60406000205416156103b6565b634e487b7160e01b600052604160045260246000fd5b90601f8019910116810190811067ffffffffffffffff8211176104ea57604052565b6104b2565b60405190600080549060018260011c92600181169182156105d9575b6020916020861084146105c5578588528794936020860193929181156105a65750600114610545575b505050610543925003836104c8565b565b925093610573600080527f290decd9548b62a8d60345a988386fc84ba6bc95484008f6362f93160ef3e56390565b946000935b82851061059057505050610543935001388080610534565b8654858501529586019588955093810193610578565b925050506105439491925060ff19168252151560051b01388080610534565b634e487b7160e01b85526022600452602485fd5b93607f169361050b565b60005b8381106105f65750506000910152565b81810151838201526020016105e6565b6040916020825261062681518092816020860152602086860191016105e3565b601f01601f1916010190565b34610166576000806003193601126107395760405190806001906001548060011c926001821692831561072f575b60209260208610851461071b5785885260208801949081156106fa57506001146106a1575b61028b87610695818903826104c8565b60405191829182610606565b600160005294509192917fb10e2d527612073b26eecdfd717e6a320cf44b4afac2b0732d9fcbe2b7fa0cf65b8386106106e957505050910190506106958261028b3880610685565b8054858701529482019481016106cd565b60ff191685525050505090151560051b0190506106958261028b3880610685565b634e487b7160e01b82526022600452602482fd5b93607f1693610660565b80fd5b6001600160a01b0381160361016657565b346101665760203660031901126101665760043561076a8161073c565b60018060a01b03166000526004602052602060ff604060002054166040519015158152f35b34610166576080366003190112610166576107ab60043561073c565b6107b660243561073c565b60643567ffffffffffffffff8111610166576107d6903690600401610138565b5050604051630a85bd0160e11b8152602090f35b346101665760003660031901126101665761028b6106956104ef565b34610166576000366003190112610166576002546040516001600160a01b039091168152602090f35b346101665761012036600319011261016657600460443567ffffffffffffffff8111610166576108629036908301610138565b61086b3661016b565b9160018060a01b0380600354163314158061096d575b61095c5760025461089c906101ff906001600160a01b031681565b9060405180926334a1dd5360e01b8252818860209586935afa80156102ce57839160009161093f575b50876040518094819363a3a40ea560e01b8352165afa9081156102ce57600592600092610922575b50506108f881610e7f565b03610911579061027b929161028b946024359035611298565b604051637996d44d60e11b81528490fd5b6109389250803d106102c7576102b881836104c8565b38806108ed565b6109569150823d84116102f9576102eb81836104c8565b386108c5565b604051636dff42d560e11b81528590fd5b50336000528460205260ff6040600020541615610881565b34610166576000806003193601126107395760405180916005549081835260208093018092600583527f036b6384b5eca791c62761152d0c79bb0604c104a5fb6f4eb0703f3154bb3db090835b818110610a2f57505050846109e89103856104c8565b60405193838594850191818652518092526040850193925b828110610a0f57505050500390f35b83516001600160a01b031685528695509381019392810192600101610a00565b82546001600160a01b0316845292860192600192830192016109d2565b34610166576000366003190112610166576003546040516001600160a01b039091168152602090f35b3461016657602036600319011261016657600435610a928161073c565b6003546001600160a01b03919082163303610af65716600090808252600460205260408220805460ff8116610ac5578380f35b60ff191690557f6eea8bb915c3f59b2df31edd41f67162f66781fe2bd87ed8f1d1f023d38e45808280a23880808380f35b6040516330cd747160e01b8152600490fd5b3461016657610b163661017c565b6003549192916001600160a01b0390811633141580610bf5575b61030057600254610b4b906101ff906001600160a01b031681565b9060405180926334a1dd5360e01b825281600460209586935afa80156102ce578391600091610bd8575b5060046040518094819363a3a40ea560e01b8352165afa9081156102ce57600192600092610bbb575b5050610ba981610e7f565b0361028f5761028b9261027b92611453565b610bd19250803d106102c7576102b881836104c8565b3880610b9e565b610bef9150823d84116102f9576102eb81836104c8565b38610b75565b5033600052600460205260ff6040600020541615610b30565b3461016657602036600319011261016657600435610c2b8161073c565b6003546001600160a01b039081163303610af65781168015610cc057600091818352600460205260ff60408420541615610c63578280f35b6001600160a01b0381166000908152600460205260409020610c969190610c9190805460ff19166001179055565b611519565b7f21fbfc2d5ee4fd011d7fb9e096fcfc72cdd6b20fbe82b63cd0b10f488e54e0ba8280a238808280f35b60405163d92e233d60e01b8152600490fd5b3461016657610ce03661032b565b9260018060a09796979493941b03806003541633141580610ddf575b61030057600254610d17906101ff906001600160a01b031681565b9060405180926334a1dd5360e01b825281600460209586935afa80156102ce578391600091610dc2575b5060046040518094819363a3a40ea560e01b8352165afa9182156102ce57600092610da5575b5050610d7281610e7f565b60048114159081610d90575b5061028f5761028b9561027b95611598565b60059150610d9d81610e7f565b141538610d7e565b610dbb9250803d106102c7576102b881836104c8565b3880610d67565b610dd99150823d84116102f9576102eb81836104c8565b38610d41565b5033600052600460205260ff6040600020541615610cfc565b3461016657602036600319011261016657600435610e158161073c565b600354906001600160a01b03908183163303610af65716908115610cc0576001600160a01b03191617600355005b908160209103126101665751610e588161073c565b90565b6040513d6000823e3d90fd5b90816020910312610166575160078110156101665790565b60071115610e8957565b634e487b7160e01b600052602160045260246000fd5b90816020910312610166575180151581036101665790565b90816020910312610166575190565b908060209392818452848401376000828201840152601f01601f1916010190565b60a0809180518452602081015160208501526040810151604085015260608101516060850152608081015160808501520151910152565b6001600160a01b0390911681526101206020820181905293949360049361010093610f5b92610f509290850191610ec6565b956040830190610ee7565b0152565b6001600160a01b0390911681526101206020820181905293949360059361010093610f5b92610f509290850191610ec6565b6002549093929190610fad906101ff906001600160a01b031681565b604051638f97323b60e01b8152306004820152602095918690829060249082905afa9081156102ce576000916110a5575b50156110935761101c9285926000610ffd610ff761166a565b9361178f565b60405163d6e5ae7560e01b815296879586948593913060048601610f1e565b03926001600160a01b03165af19283156102ce57600093611064575b50508133907f11641d364e926d2bf231c2d36f2a9271390042d717ea334a3e7c983c27a12391600080a3565b611084929350803d1061108c575b61107c81836104c8565b810190610eb7565b903880611038565b503d611072565b604051635b48693760e01b8152600490fd5b6110c59150863d88116110cb575b6110bd81836104c8565b810190610e9f565b38610fde565b503d6110b3565b95949160008761115061112b9760209795966110f56110ef61166a565b9761178f565b916111366040519b8c9a8b998a98635737b72960e11b8a5260048a01523060248a015261016060448a0152610164890191610ec6565b936064870190610ee7565b600461012486015284830360031901610144860152610ec6565b03926001600160a01b03165af19081156102ce57600091611196575b5080927feb651e2008e47ae08a231ce83e07c87acbc86a982551e2a80413a4ef2154e8f1600080a3565b6111af915060203d60201161108c5761107c81836104c8565b3861116c565b92604095946111e2926111ed9461016091875260018060a01b031660208701528088870152850191610ec6565b926060830190610ee7565b6003610120820152610140818303910152601d81527f4a6f696e7420474142202d206c696e6b65642066726f6d20486f75736500000060208201520190565b92604095946111e2926112599461016091875260018060a01b031660208701528088870152850191610ec6565b6003610120820152610140818303910152601e81527f4a6f696e7420474142202d206c696e6b65642066726f6d2053656e617465000060208201520190565b600254909594919391906112b6906101ff906001600160a01b031681565b92604051809463059b2ddf60e01b825281600460209788935afa9081156102ce57600091611436575b506001600160a01b03903090821603611424576112fd610ff761166a565b92166040519563d6e5ae7560e01b87528587806113208789883060048601610f5f565b03816000865af19687156102ce57600097611405575b5086986040519087828061135d898b8a635737b72960e11b978886523090600487016111b5565b03816000885af180156102ce578896600093611390926113e8575b5060405198899788968795865230906004870161122c565b03925af180156102ce576113ca575b505033907f11641d364e926d2bf231c2d36f2a9271390042d717ea334a3e7c983c27a12391600080a3565b816113e092903d1061108c5761107c81836104c8565b50388061139f565b6113fe90893d8b1161108c5761107c81836104c8565b5038611378565b61141d919750863d881161108c5761107c81836104c8565b9538611336565b6040516333f1d70160e11b8152600490fd5b61144d9150853d87116102f9576102eb81836104c8565b386112df565b6114aa939261149f91600060209461147261146c61166a565b9461178f565b60405163d6e5ae7560e01b8152306004820152610120602482015298899687958694610124860191610ec6565b916044840190610ee7565b600161010483015203926001600160a01b03165af19182156102ce576000926114f8575b5033827f11641d364e926d2bf231c2d36f2a9271390042d717ea334a3e7c983c27a12391600080a3565b61151291925060203d60201161108c5761107c81836104c8565b90386114ce565b600554680100000000000000008110156104ea5760018101806005558110156115825760056000527f036b6384b5eca791c62761152d0c79bb0604c104a5fb6f4eb0703f3154bb3db00180546001600160a01b0319166001600160a01b03909216919091179055565b634e487b7160e01b600052603260045260246000fd5b95949160008761160561112b9760209795966115b56110ef61166a565b916115eb6040519b8c9a8b998a98635737b72960e11b8a5260048a01523060248a015261016060448a0152610164890191610ec6565b600561012486015284830360031901610144860152610ec6565b03926001600160a01b03165af19081156102ce5760009161164b575b5080927f74e4b6e98f9a799c235eb4e596e6d1305d196175a4fe5d708b2bfeb1cf085cb8600080a3565b611664915060203d60201161108c5761107c81836104c8565b38611621565b6001600160a01b03600460208261167f6118ae565b166040519283809263b30e917160e01b82525afa9081156102ce576000916116a657501690565b6116bf915060203d6020116102f9576102eb81836104c8565b1690565b6040519060c0820182811067ffffffffffffffff8211176104ea57604052565b6040519060c0820182811067ffffffffffffffff8211176104ea576040528160a06000918281528260208201528260408201528260608201528260808201520152565b60208183031261016657805167ffffffffffffffff9182821161016657019082601f830112156101665781519081116104ea5760405192611771601f8301601f1916602001856104c8565b8184526020828401011161016657610e5891602080850191016105e3565b6117976116e3565b506002546004906117b0906001600160a01b03166101ff565b9160206117be6101ff6118ae565b60405163bbfeced160e01b815293849182905afa9182156102ce57600092611889575b50604051633aa1e58d60e21b81529192600090839060049082906001600160a01b03165afa9182156102ce5760a09261182291600091611866575b506118e8565b61183261182d6104ef565b6118e8565b9061183b6116c3565b948552602085015260408401526060810135606084015260808101356080840152013560a082015290565b61188391503d806000833e61187b81836104c8565b810190611726565b3861181c565b600492506118a760009160203d60201161108c5761107c81836104c8565b92506117e1565b6002546040516334a1dd5360e01b81526001600160a01b03916020908290600490829086165afa9081156102ce576000916116a657501690565b8051156118f6576020015190565b5060009056fea26469706673582212203cb3ad0c0401b117c8de1f2be700e7b5cac73ab11a4b67e1434e28d4c092c8f364736f6c63430008180033a66cc928b5edb82af9bd49922954155ab7b0942694bea4ce44661d9a8736c688a264697066735822122007e43659cacbf315032dc192c0f36a5b7570ced41cfd4dc9334acc31f2ff6c7964736f6c63430008180033604060808152346200042e5762001e13803803806200001e8162000433565b92833981016080828203126200042e5781516001600160401b0391908281116200042e57816200005091850162000459565b9060209081850151908482116200042e576200006e91860162000459565b62000089606062000081888801620004cb565b9601620004cb565b948351156200041d578151156200041d576001600160a01b039081169586156200040c5716938415620003fb578351818111620003e5576000928354916001968784811c94168015620003da575b87851014620003c6578190601f9485811162000373575b5087908583116001146200030f57879262000303575b5050600019600383901b1c191690871b1784555b8051928311620002ef5785548681811c91168015620002e4575b86821014620002d057908183859493116200027b575b5085918311600114620002175784926200020b575b5050600019600383901b1c191690841b1783555b600280546001600160a01b031990811690961790556003805486168517905583815260048252858120805460ff1916841790556005549268010000000000000000841015620001f757830180600555831015620001e35760058152200191825416179055516119329081620004e18239f35b634e487b7160e01b81526032600452602490fd5b634e487b7160e01b82526041600452602482fd5b0151905038806200015d565b8685528585208794509190601f198416865b888282106200026457505084116200024a575b505050811b01835562000171565b015160001960f88460031b161c191690553880806200023c565b8385015186558a9790950194938401930162000229565b909192508685528585208380860160051c820192888710620002c6575b9186958a929594930160051c01915b828110620002b757505062000148565b878155869550899101620002a7565b9250819262000298565b634e487b7160e01b85526022600452602485fd5b90607f169062000132565b634e487b7160e01b84526041600452602484fd5b01519050388062000104565b8780528888208a94509190601f198416895b8b8282106200035c575050841162000342575b505050811b01845562000118565b015160001960f88460031b161c1916905538808062000334565b8385015186558d9790950194938401930162000321565b9091508680528787208580850160051c8201928a8610620003bc575b918b91869594930160051c01915b828110620003ad575050620000ee565b8981558594508b91016200039d565b925081926200038f565b634e487b7160e01b86526022600452602486fd5b93607f1693620000d7565b634e487b7160e01b600052604160045260246000fd5b865163d92e233d60e01b8152600490fd5b875163d92e233d60e01b8152600490fd5b865163ecd7b0d160e01b8152600490fd5b600080fd5b6040519190601f01601f191682016001600160401b03811183821017620003e557604052565b919080601f840112156200042e5782516001600160401b038111620003e5576020906200048f601f8201601f1916830162000433565b928184528282870101116200042e5760005b818110620004b757508260009394955001015290565b8581018301518482018401528201620004a1565b51906001600160a01b03821682036200042e5756fe6080604052600436101561001257600080fd5b60003560e01c8063025916e1146101335780630455804b1461012e57806306fdde031461011f5780630e43ce0614610129578063150b7a021461012457806317d7de7c1461011f57806324c12bf6146100fc57806327d206651461010157806343a55ea11461011a5780637d5feec114610115578063893d20e8146101105780638da5cb5b1461011057806392c26bcd1461010b57806397fa49bc146101065780639ca6516314610101578063ea879634146100fc578063edf46e2b146100f7578063f1e626ff146100f25763f2fde38b146100ed57600080fd5b610df8565b610cd2565b610c0e565b6107ea565b610806565b610b08565b610a75565b610a4c565b610985565b61082f565b610632565b61078f565b61074d565b61038c565b6101bc565b9181601f840112156101665782359167ffffffffffffffff8311610166576020838186019501011161016657565b600080fd5b60c090606319011261016657606490565b60e0600319820112610166576004359167ffffffffffffffff8311610166576101aa8260c094600401610138565b90939092602319011261016657602490565b34610166576101ca3661017c565b6003549192916001600160a01b0390811633141580610312575b6103005760025461020b906101ff906001600160a01b031681565b6001600160a01b031690565b9060405180926334a1dd5360e01b825281600460209586935afa80156102ce5783916000916102d3575b5060046040518094819363a3a40ea560e01b8352165afa9081156102ce576004926000926102a1575b505061026981610e7f565b0361028f5761028b9261027b92610f91565b6040519081529081906020820190565b0390f35b604051637996d44d60e11b8152600490fd5b6102c09250803d106102c7575b6102b881836104c8565b810190610e67565b388061025e565b503d6102ae565b610e5b565b6102f39150823d84116102f9575b6102eb81836104c8565b810190610e43565b38610235565b503d6102e1565b604051636dff42d560e11b8152600490fd5b5033600052600460205260ff60406000205416156101e4565b90610120600319830112610166576004359167ffffffffffffffff90602435828111610166578161035e91600401610138565b9093909260c060431984011261016657604492610104359182116101665761038891600401610138565b9091565b346101665761039a3661032b565b9260018060a09796979493941b03806003541633141580610499575b610300576002546103d1906101ff906001600160a01b031681565b9060405180926334a1dd5360e01b825281600460209586935afa80156102ce57839160009161047c575b5060046040518094819363a3a40ea560e01b8352165afa9182156102ce5760009261045f575b505061042c81610e7f565b6001811415908161044a575b5061028f5761028b9561027b956110d2565b6002915061045781610e7f565b141538610438565b6104759250803d106102c7576102b881836104c8565b3880610421565b6104939150823d84116102f9576102eb81836104c8565b386103fb565b5033600052600460205260ff60406000205416156103b6565b634e487b7160e01b600052604160045260246000fd5b90601f8019910116810190811067ffffffffffffffff8211176104ea57604052565b6104b2565b60405190600080549060018260011c92600181169182156105d9575b6020916020861084146105c5578588528794936020860193929181156105a65750600114610545575b505050610543925003836104c8565b565b925093610573600080527f290decd9548b62a8d60345a988386fc84ba6bc95484008f6362f93160ef3e56390565b946000935b82851061059057505050610543935001388080610534565b8654858501529586019588955093810193610578565b925050506105439491925060ff19168252151560051b01388080610534565b634e487b7160e01b85526022600452602485fd5b93607f169361050b565b60005b8381106105f65750506000910152565b81810151838201526020016105e6565b6040916020825261062681518092816020860152602086860191016105e3565b601f01601f1916010190565b34610166576000806003193601126107395760405190806001906001548060011c926001821692831561072f575b60209260208610851461071b5785885260208801949081156106fa57506001146106a1575b61028b87610695818903826104c8565b60405191829182610606565b600160005294509192917fb10e2d527612073b26eecdfd717e6a320cf44b4afac2b0732d9fcbe2b7fa0cf65b8386106106e957505050910190506106958261028b3880610685565b8054858701529482019481016106cd565b60ff191685525050505090151560051b0190506106958261028b3880610685565b634e487b7160e01b82526022600452602482fd5b93607f1693610660565b80fd5b6001600160a01b0381160361016657565b346101665760203660031901126101665760043561076a8161073c565b60018060a01b03166000526004602052602060ff604060002054166040519015158152f35b34610166576080366003190112610166576107ab60043561073c565b6107b660243561073c565b60643567ffffffffffffffff8111610166576107d6903690600401610138565b5050604051630a85bd0160e11b8152602090f35b346101665760003660031901126101665761028b6106956104ef565b34610166576000366003190112610166576002546040516001600160a01b039091168152602090f35b346101665761012036600319011261016657600460443567ffffffffffffffff8111610166576108629036908301610138565b61086b3661016b565b9160018060a01b0380600354163314158061096d575b61095c5760025461089c906101ff906001600160a01b031681565b9060405180926334a1dd5360e01b8252818860209586935afa80156102ce57839160009161093f575b50876040518094819363a3a40ea560e01b8352165afa9081156102ce57600592600092610922575b50506108f881610e7f565b03610911579061027b929161028b946024359035611298565b604051637996d44d60e11b81528490fd5b6109389250803d106102c7576102b881836104c8565b38806108ed565b6109569150823d84116102f9576102eb81836104c8565b386108c5565b604051636dff42d560e11b81528590fd5b50336000528460205260ff6040600020541615610881565b34610166576000806003193601126107395760405180916005549081835260208093018092600583527f036b6384b5eca791c62761152d0c79bb0604c104a5fb6f4eb0703f3154bb3db090835b818110610a2f57505050846109e89103856104c8565b60405193838594850191818652518092526040850193925b828110610a0f57505050500390f35b83516001600160a01b031685528695509381019392810192600101610a00565b82546001600160a01b0316845292860192600192830192016109d2565b34610166576000366003190112610166576003546040516001600160a01b039091168152602090f35b3461016657602036600319011261016657600435610a928161073c565b6003546001600160a01b03919082163303610af65716600090808252600460205260408220805460ff8116610ac5578380f35b60ff191690557f6eea8bb915c3f59b2df31edd41f67162f66781fe2bd87ed8f1d1f023d38e45808280a23880808380f35b6040516330cd747160e01b8152600490fd5b3461016657610b163661017c565b6003549192916001600160a01b0390811633141580610bf5575b61030057600254610b4b906101ff906001600160a01b031681565b9060405180926334a1dd5360e01b825281600460209586935afa80156102ce578391600091610bd8575b5060046040518094819363a3a40ea560e01b8352165afa9081156102ce57600192600092610bbb575b5050610ba981610e7f565b0361028f5761028b9261027b92611453565b610bd19250803d106102c7576102b881836104c8565b3880610b9e565b610bef9150823d84116102f9576102eb81836104c8565b38610b75565b5033600052600460205260ff6040600020541615610b30565b3461016657602036600319011261016657600435610c2b8161073c565b6003546001600160a01b039081163303610af65781168015610cc057600091818352600460205260ff60408420541615610c63578280f35b6001600160a01b0381166000908152600460205260409020610c969190610c9190805460ff19166001179055565b611519565b7f21fbfc2d5ee4fd011d7fb9e096fcfc72cdd6b20fbe82b63cd0b10f488e54e0ba8280a238808280f35b60405163d92e233d60e01b8152600490fd5b3461016657610ce03661032b565b9260018060a09796979493941b03806003541633141580610ddf575b61030057600254610d17906101ff906001600160a01b031681565b9060405180926334a1dd5360e01b825281600460209586935afa80156102ce578391600091610dc2575b5060046040518094819363a3a40ea560e01b8352165afa9182156102ce57600092610da5575b5050610d7281610e7f565b60048114159081610d90575b5061028f5761028b9561027b95611598565b60059150610d9d81610e7f565b141538610d7e565b610dbb9250803d106102c7576102b881836104c8565b3880610d67565b610dd99150823d84116102f9576102eb81836104c8565b38610d41565b5033600052600460205260ff6040600020541615610cfc565b3461016657602036600319011261016657600435610e158161073c565b600354906001600160a01b03908183163303610af65716908115610cc0576001600160a01b03191617600355005b908160209103126101665751610e588161073c565b90565b6040513d6000823e3d90fd5b90816020910312610166575160078110156101665790565b60071115610e8957565b634e487b7160e01b600052602160045260246000fd5b90816020910312610166575180151581036101665790565b90816020910312610166575190565b908060209392818452848401376000828201840152601f01601f1916010190565b60a0809180518452602081015160208501526040810151604085015260608101516060850152608081015160808501520151910152565b6001600160a01b0390911681526101206020820181905293949360049361010093610f5b92610f509290850191610ec6565b956040830190610ee7565b0152565b6001600160a01b0390911681526101206020820181905293949360059361010093610f5b92610f509290850191610ec6565b6002549093929190610fad906101ff906001600160a01b031681565b604051638f97323b60e01b8152306004820152602095918690829060249082905afa9081156102ce576000916110a5575b50156110935761101c9285926000610ffd610ff761166a565b9361178f565b60405163d6e5ae7560e01b815296879586948593913060048601610f1e565b03926001600160a01b03165af19283156102ce57600093611064575b50508133907f11641d364e926d2bf231c2d36f2a9271390042d717ea334a3e7c983c27a12391600080a3565b611084929350803d1061108c575b61107c81836104c8565b810190610eb7565b903880611038565b503d611072565b604051635b48693760e01b8152600490fd5b6110c59150863d88116110cb575b6110bd81836104c8565b810190610e9f565b38610fde565b503d6110b3565b95949160008761115061112b9760209795966110f56110ef61166a565b9761178f565b916111366040519b8c9a8b998a98635737b72960e11b8a5260048a01523060248a015261016060448a0152610164890191610ec6565b936064870190610ee7565b600461012486015284830360031901610144860152610ec6565b03926001600160a01b03165af19081156102ce57600091611196575b5080927feb651e2008e47ae08a231ce83e07c87acbc86a982551e2a80413a4ef2154e8f1600080a3565b6111af915060203d60201161108c5761107c81836104c8565b3861116c565b92604095946111e2926111ed9461016091875260018060a01b031660208701528088870152850191610ec6565b926060830190610ee7565b6003610120820152610140818303910152601d81527f4a6f696e7420474142202d206c696e6b65642066726f6d20486f75736500000060208201520190565b92604095946111e2926112599461016091875260018060a01b031660208701528088870152850191610ec6565b6003610120820152610140818303910152601e81527f4a6f696e7420474142202d206c696e6b65642066726f6d2053656e617465000060208201520190565b600254909594919391906112b6906101ff906001600160a01b031681565b92604051809463059b2ddf60e01b825281600460209788935afa9081156102ce57600091611436575b506001600160a01b03903090821603611424576112fd610ff761166a565b92166040519563d6e5ae7560e01b87528587806113208789883060048601610f5f565b03816000865af19687156102ce57600097611405575b5086986040519087828061135d898b8a635737b72960e11b978886523090600487016111b5565b03816000885af180156102ce578896600093611390926113e8575b5060405198899788968795865230906004870161122c565b03925af180156102ce576113ca575b505033907f11641d364e926d2bf231c2d36f2a9271390042d717ea334a3e7c983c27a12391600080a3565b816113e092903d1061108c5761107c81836104c8565b50388061139f565b6113fe90893d8b1161108c5761107c81836104c8565b5038611378565b61141d919750863d881161108c5761107c81836104c8565b9538611336565b6040516333f1d70160e11b8152600490fd5b61144d9150853d87116102f9576102eb81836104c8565b386112df565b6114aa939261149f91600060209461147261146c61166a565b9461178f565b60405163d6e5ae7560e01b8152306004820152610120602482015298899687958694610124860191610ec6565b916044840190610ee7565b600161010483015203926001600160a01b03165af19182156102ce576000926114f8575b5033827f11641d364e926d2bf231c2d36f2a9271390042d717ea334a3e7c983c27a12391600080a3565b61151291925060203d60201161108c5761107c81836104c8565b90386114ce565b600554680100000000000000008110156104ea5760018101806005558110156115825760056000527f036b6384b5eca791c62761152d0c79bb0604c104a5fb6f4eb0703f3154bb3db00180546001600160a01b0319166001600160a01b03909216919091179055565b634e487b7160e01b600052603260045260246000fd5b95949160008761160561112b9760209795966115b56110ef61166a565b916115eb6040519b8c9a8b998a98635737b72960e11b8a5260048a01523060248a015261016060448a0152610164890191610ec6565b600561012486015284830360031901610144860152610ec6565b03926001600160a01b03165af19081156102ce5760009161164b575b5080927f74e4b6e98f9a799c235eb4e596e6d1305d196175a4fe5d708b2bfeb1cf085cb8600080a3565b611664915060203d60201161108c5761107c81836104c8565b38611621565b6001600160a01b03600460208261167f6118ae565b166040519283809263b30e917160e01b82525afa9081156102ce576000916116a657501690565b6116bf915060203d6020116102f9576102eb81836104c8565b1690565b6040519060c0820182811067ffffffffffffffff8211176104ea57604052565b6040519060c0820182811067ffffffffffffffff8211176104ea576040528160a06000918281528260208201528260408201528260608201528260808201520152565b60208183031261016657805167ffffffffffffffff9182821161016657019082601f830112156101665781519081116104ea5760405192611771601f8301601f1916602001856104c8565b8184526020828401011161016657610e5891602080850191016105e3565b6117976116e3565b506002546004906117b0906001600160a01b03166101ff565b9160206117be6101ff6118ae565b60405163bbfeced160e01b815293849182905afa9182156102ce57600092611889575b50604051633aa1e58d60e21b81529192600090839060049082906001600160a01b03165afa9182156102ce5760a09261182291600091611866575b506118e8565b61183261182d6104ef565b6118e8565b9061183b6116c3565b948552602085015260408401526060810135606084015260808101356080840152013560a082015290565b61188391503d806000833e61187b81836104c8565b810190611726565b3861181c565b600492506118a760009160203d60201161108c5761107c81836104c8565b92506117e1565b6002546040516334a1dd5360e01b81526001600160a01b03916020908290600490829086165afa9081156102ce576000916116a657501690565b8051156118f6576020015190565b5060009056fea26469706673582212203cb3ad0c0401b117c8de1f2be700e7b5cac73ab11a4b67e1434e28d4c092c8f364736f6c63430008180033a26469706673582212209b1a182799b20fc368a92709d5ae5517ac456b9d6a58c4d1cd8ceaa56c33eb6064736f6c63430008180033608034620003fb576001600160401b03601f19601f620026a4388190038281018416860185811187821017620003e557869282916040528339602095869181010312620003fb57516001600160a01b038082169490929091859003620003fb576200006962000400565b95601487527f44425443204275646765742050726f706f73616c000000000000000000000000818801526200009d62000400565b9060078252660444254432d42560cc1b81830152875195848711620003e55760009687549960019a8b81811c91168015620003da575b85821014620003c65790818784931162000373575b50849087831160011462000309578a92620002fd575b5050600019600383901b1c1916908a1b1787555b8251948511620002e95788548981811c91168015620002de575b83821014620002ca5790818587969594931162000271575b50819385116001146200020c575050859262000200575b5050600019600383901b1c191690851b1784555b3315620001e75760075460018060a01b03199233848316176007557f8be0079c531659141344cd1fd0a4f28419497f9722a3daafe3b4186f6b6457e0604051933393169180a38215620001d8575060095416176009556008556040516122839081620004218239f35b63d92e233d60e01b8152600490fd5b604051631e4fbdf760e01b815260048101839052602490fd5b0151905038806200015b565b899593929193168588528388209388905b8282106200025757505084116200023d575b505050811b0184556200016f565b015160001960f88460031b161c191690553880806200022f565b8484015186558b979095019493840193908101906200021d565b9091929394508988528288208580880160051c820192858910620002c0575b9188978d9297969594930160051c01915b828110620002b157505062000144565b8a81558897508c9101620002a1565b9250819262000290565b634e487b7160e01b88526022600452602488fd5b90607f16906200012c565b634e487b7160e01b87526041600452602487fd5b015190503880620000fe565b90848d9416918b8052868c20928c5b8882821062000353575050841162000339575b505050811b01875562000112565b015160001960f88460031b161c191690553880806200032b565b91929395968291958786015181550195019301908e959493929162000318565b909150898052848a208780850160051c820192878610620003bc575b918e91869594930160051c01915b828110620003ad575050620000e8565b8c81558594508e91016200039d565b925081926200038f565b634e487b7160e01b8a52602260045260248afd5b90607f1690620000d3565b634e487b7160e01b600052604160045260246000fd5b600080fd5b60408051919082016001600160401b03811183821017620003e55760405256fe608080604052600436101561001357600080fd5b60003560e01c90816301ffc9a7146117945750806306fdde03146116e95780630744d211146116c0578063081812fc14611682578063095ea7b31461159b57806318160ddd1461157057806323b872dd146115595780632b345749146114c757806333be78b61461147e5780633a1b3d31146113d957806342842e0e146113ab578063475ae039146113695780635c622a0e146113135780635f710f5c146112b65780636352211e146112865780636e768530146111a457806370a082311461114b578063715018a6146110ee5780638da5cb5b146110c557806395d89b4114610fe2578063a22cb46514610f3d578063aa2fe91b14610efe578063ae1594a714610df6578063ae6f6e521461084a578063b88d4fde146107dd578063c87b56dd14610780578063ca0780ed146106ef578063ccff3e5d14610566578063d6e5ae7514610387578063e985e9c514610331578063eb9b9838146102125763f2fde38b1461017f57600080fd5b3461020d57602036600319011261020d57610198611859565b6101a0611d30565b6001600160a01b039081169081156101f457600754826bffffffffffffffffffffffff60a01b821617600755167f8be0079c531659141344cd1fd0a4f28419497f9722a3daafe3b4186f6b6457e0600080a3005b604051631e4fbdf760e01b815260006004820152602490fd5b600080fd5b3461020d5760208060031936011261020d57600435600060806040516102378161194b565b82815282858201528260408201528260608201520152806000526002825260018060a01b039081604060002054161561031f57600052600b82526040600020906001604051926102868461194b565b8054845201548383019161029d60ff831684611cc5565b604084016102b160ff8460081c1682611cd1565b6102e66060860196838560101c16885265ffffffffffff9586608089019660b01c1686526040519751885251908701906118f6565b519460078610156103095760a09560408601525116606084015251166080820152f35b634e487b7160e01b600052602160045260246000fd5b60405163635e873760e01b8152600490fd5b3461020d57604036600319011261020d5761034a611859565b61035261186f565b9060018060a01b03809116600052600560205260406000209116600052602052602060ff604060002054166040519015158152f35b3461020d5761012036600319011261020d576103a1611859565b6024356001600160401b03811161020d576103c0903690600401611903565b909160c036604319011261020d576101043590600782101561020d5733600052602093600e855260ff60406000205416156105545761041d610423916008549561040987611c8a565b6008556104168786611d5c565b36916119bd565b84611f8a565b82600052600a8452604060002090604435918281556064356001820155608435600282015560a435600382015560c4356004820155600560e4359101556040519061046d8261194b565b8482528582019260018452610486604084019586611cd1565b606083019160018060a01b0316948583526001608085019465ffffffffffff4216865288600052600b8a526040600020905181550194516008811015610309576104d09086611c72565b519360078510156103095786947f3246eb9710c4bb0702f07e3e8561326bea23cae56c4740d6b4f1fab74e3c62109460409461ff0084549162010000600160b01b03905160101b169265ffffffffffff60b01b905160b01b169360081b169060ff63ffffffff60e01b011617171790558151908152600187820152a3604051908152f35b60405163ea8e4eb560e01b8152600490fd5b3461020d5760208060031936011261020d57600435600081815260028084526040909120546001600160a01b0393929084161561031f57600092919252600c815260406000209081546105b881611cae565b936105c66040519586611981565b81855260009384528284208386019491855b848410610686575050505050604051928184019082855251809152604084019160408260051b86010193926000965b8388106106145786860387f35b90919293948380600192603f198a820301865288519061065760a08351835261064385850151868501906118f6565b604084015190806040850152830190611819565b91606065ffffffffffff8183015116908301528660808092015116910152970193019701969093929193610607565b60048660019260409a989a5161069b8161194b565b865481526106b160ff8689015416848301611cc5565b6106bc868801611a2e565b60408201528c600388015465ffffffffffff8116606084015260301c1660808201528152019301930192919694966105d8565b3461020d5760208060031936011261020d576004356000818152600260205260409020546001600160a01b03161561031f575b80600052600d8252604060002080549182156107755750600019820191821161075f57600d9161075191611cdd565b90549060031b1c9050610722565b634e487b7160e01b600052601160045260246000fd5b602090604051908152f35b3461020d57602036600319011261020d5760043561079d81611cf5565b5060005260066020526107d96107b66040600020611a2e565b60006040516107c481611966565b52604051918291602083526020830190611819565b0390f35b3461020d57608036600319011261020d576107f6611859565b6107fe61186f565b90604435606435926001600160401b03841161020d573660238501121561020d576108366108489436906024816004013591016119bd565b92610842838383611ad3565b336120ff565b005b3461020d5761016036600319011261020d5761086461186f565b6044356001600160401b03811161020d57610883903690600401611903565b919060c036606319011261020d57600861012435101561020d57610144356001600160401b03811161020d576108bd903690600401611903565b909233600052600e60205260ff6040600020541615610554576004356000908152600260205260409020546001600160a01b039081161561031f57600093600461012435141580610de4575b8581610dd0575b50610dbe5761093661093c91600854986109298a611c8a565b6008556104168a87611d5c565b87611f8a565b600435600052600b6020526040600020549086600052600a60205260406000206064358155608435600182015560a435600282015560c435600382015560e4356004820155600561010435910155600435600052600b60205260ff60016040600020015460081c1690604051926109b28461194b565b835260208301936109c66101243586611cc5565b6109d4604085019384611cd1565b16606083015265ffffffffffff4216608083015286600052600b6020526040600020928251845551600881101561030957610a129060018501611c72565b516007811015610309576001918284015461ff00620100008560b01b03606084015160101b1692608065ffffffffffff60b01b91015160b01b169360081b169060ff63ffffffff60e01b011617171791015583600052600c602052604060002060405190610a7f8261194b565b6004358252610a946101243560208401611cc5565b610a9f3684876119bd565b604083015265ffffffffffff42166060830152336080830152805490600160401b821015610cc15760018201808255821015610da85760005260206000209082518160021b8301556020830151600881101561030957610b079060018360021b850101611c72565b60408301518051906001600160401b038211610cc157610b2e600284811b860101546119f4565b601f8111610d5d575b50602090601f8311600114610ce25760039493929160009183610cd7575b50508160011b9160001990861b1c191617600282811b840101555b60021b01019065ffffffffffff60608201511682549160806601000000000000600160d01b0391015160301b169165ffffffffffff60d01b1617179055600435600052600d602052604060002090815491600160401b831015610cc15782610bde9160018895018155611cdd565b81549060031b9084821b91600019901b1916179055600435600052600b6020527fdb6b8429a26a6b53f7e7cdcd5cbe745e82641f97cd1a170bc25541c9afe80c9b600160406000200194610c3b60ff875416966101243590611c72565b8260405191610c4d83610124356118f6565b60406020840152816040840152606083013760006060848301015260608160043594601f80199101168101030190a3600882101561030957610309576020916040519161012435906004357fb0978968e606225988b6464f99ce7e86b0e8770d80eaec1369bb3780e05c6438600080a48152f35b634e487b7160e01b600052604160045260246000fd5b015190508a80610b55565b90600284811b86010160005260206000209160005b601f1985168110610d4557509183916001936003979695601f19811610610d2d575b505050811b01600282811b84010155610b70565b015160001983881b60f8161c191690558a8080610d19565b91926020600181928685015181550194019201610cf7565b600284811b8601016000526020600020601f840160051c810160208510610da1575b601f830160051c82018110610d95575050610b37565b60008155600101610d7f565b5080610d7f565b634e487b7160e01b600052603260045260246000fd5b604051637492a26960e01b8152600490fd5b905061030957600661012435141585610910565b50600094506101243560051415610909565b3461020d5760208060031936011261020d5760043560008181526002835260409020549091906001600160a01b03161561031f578160005b81600052600c9081845260406000205415610e6757610e4c90611c8a565b916000528252610e5f6040600020611c99565b505490610e2e565b60019081810190858783831161075f57918492610e8385611cae565b94610e916040519687611981565b808652610ea0601f1991611cae565b01368487013790925b610ebc575b604051806107d986826118ba565b8351831015610da85780828460051b86010152600052600c81526040600020805415610ef957610eeb90611c99565b505491600019019184610ea9565b610eae565b3461020d57602036600319011261020d576001600160a01b03610f1f611859565b16600052600e602052602060ff604060002054166040519015158152f35b3461020d57604036600319011261020d57610f56611859565b6024359081151580920361020d576001600160a01b0316908115610fc957336000526005602052604060002082600052602052604060002060ff1981541660ff83161790556040519081527f17307eab39ab6107e8899845ad3d59bd9653f200f220920489ca2b5937696c3160203392a3005b604051630b61174360e31b815260048101839052602490fd5b3461020d57600036600319011261020d57604051600060018260015492611008846119f4565b92838352602094856001821691826000146110a5575050600114611048575b5061103492500383611981565b6107d9604051928284938452830190611819565b84915060016000527fb10e2d527612073b26eecdfd717e6a320cf44b4afac2b0732d9fcbe2b7fa0cf6906000915b85831061108d575050611034935082010185611027565b80548389018501528794508693909201918101611076565b60ff19168582015261103495151560051b85010192508791506110279050565b3461020d57600036600319011261020d576007546040516001600160a01b039091168152602090f35b3461020d57600036600319011261020d57611107611d30565b600780546001600160a01b031981169091556000906001600160a01b03167f8be0079c531659141344cd1fd0a4f28419497f9722a3daafe3b4186f6b6457e08280a3005b3461020d57602036600319011261020d576001600160a01b0361116c611859565b16801561118b5760005260036020526020604060002054604051908152f35b6040516322718ad960e21b815260006004820152602490fd5b3461020d5760208060031936011261020d5760043590600060a06040516111ca81611930565b82815282848201528260408201528260608201528260808201520152816000526002815260018060a01b03604060002054161561031f5760c091600052600a815260406000206040519061121d82611930565b805492838352600182015490808401918252600283015490604085019182526003840154926060860193845260a06005600487015496608089019788520154960195865260405196875251908601525160408501525160608401525160808301525160a0820152f35b3461020d57602036600319011261020d5760206112a4600435611cf5565b6040516001600160a01b039091168152f35b3461020d57602036600319011261020d576112cf611859565b6112d7611d30565b6001600160a01b03168015611301576000908152600e60205260409020805460ff19166001179055005b60405163d92e233d60e01b8152600490fd5b3461020d57602036600319011261020d576004356000818152600260205260409020546001600160a01b03161561031f57600052600b602052602060ff6001604060002001541661136760405180926118f6565bf35b3461020d57602036600319011261020d57611382611859565b61138a611d30565b6001600160a01b03166000908152600e60205260409020805460ff19169055005b3461020d576108486113bc36611885565b90604051926113ca84611966565b60008452610842838383611ad3565b3461020d57604036600319011261020d57602435600435600882101561020d5733600052600e60205260ff6040600020541615610554576000818152600260205260409020546001600160a01b03161561031f5780600052600b60205260016040600020019061144e8360ff84541693611c72565b6008821015610309577fb0978968e606225988b6464f99ce7e86b0e8770d80eaec1369bb3780e05c6438600080a4005b3461020d57602036600319011261020d576004356000818152600260205260409020546001600160a01b03161561031f57600052600b6020526020604060002054604051908152f35b3461020d5760208060031936011261020d5760043560008181526002835260409020546001600160a01b03161561031f57600052600d8152604060002090604051908181845491828152019360005281600020916000905b828210611542576107d98561153681890382611981565b604051918291826118ba565b83548652948501946001938401939091019061151f565b3461020d5761084861156a36611885565b91611ad3565b3461020d57600036600319011261020d57600854600019810190811161075f57602090604051908152f35b3461020d57604036600319011261020d576115b4611859565b6024356115c081611cf5565b3315158061166f575b80611642575b61162a576001600160a01b039283169282918491167f8c5be1e5ebec7d5bd14f71427d1e84f3dd0314c0f7b2291e5b200ac8c7c3b925600080a4600090815260046020526040902080546001600160a01b0319169091179055005b60405163a9fbf51f60e01b8152336004820152602490fd5b5060018060a01b038116600052600560205260406000203360005260205260ff60406000205416156115cf565b506001600160a01b0381163314156115c9565b3461020d57602036600319011261020d5760043561169f81611cf5565b506000526004602052602060018060a01b0360406000205416604051908152f35b3461020d57600036600319011261020d576009546040516001600160a01b039091168152602090f35b3461020d57600036600319011261020d5760405160008054908261170c836119f4565b91828252602093600190856001821691826000146110a557505060011461173a575061103492500383611981565b6000808052859250907f290decd9548b62a8d60345a988386fc84ba6bc95484008f6362f93160ef3e5635b85831061177c575050611034935082010185611027565b80548389018501528794508693909201918101611765565b3461020d57602036600319011261020d576004359063ffffffff60e01b821680920361020d57602091632483248360e11b81149081156117d6575b5015158152f35b6380ac58cd60e01b811491508115611808575b81156117f7575b50836117cf565b6301ffc9a760e01b149050836117f0565b635b5e139f60e01b811491506117e9565b919082519283825260005b848110611845575050826000602080949584010152601f8019910116010190565b602081830181015184830182015201611824565b600435906001600160a01b038216820361020d57565b602435906001600160a01b038216820361020d57565b606090600319011261020d576001600160a01b0390600435828116810361020d5791602435908116810361020d579060443590565b602090602060408183019282815285518094520193019160005b8281106118e2575050505090565b8351855293810193928101926001016118d4565b9060088210156103095752565b9181601f8401121561020d578235916001600160401b03831161020d576020838186019501011161020d57565b60c081019081106001600160401b03821117610cc157604052565b60a081019081106001600160401b03821117610cc157604052565b602081019081106001600160401b03821117610cc157604052565b90601f801991011681019081106001600160401b03821117610cc157604052565b6001600160401b038111610cc157601f01601f191660200190565b9291926119c9826119a2565b916119d76040519384611981565b82948184528183011161020d578281602093846000960137010152565b90600182811c92168015611a24575b6020831014611a0e57565b634e487b7160e01b600052602260045260246000fd5b91607f1691611a03565b90604051918260008254611a41816119f4565b90818452602094600191600181169081600014611ab15750600114611a72575b505050611a7092500383611981565b565b600090815285812095935091905b818310611a99575050611a709350820101388080611a61565b85548884018501529485019487945091830191611a80565b92505050611a7094925060ff191682840152151560051b820101388080611a61565b6001600160a01b039182169290918315611c5957600092828452826020956002875260409684888820541696879133151580611bc3575b509060027fddf252ad1be2c89b69c2b068fc378daa952ba7f163c4a11628f55a4df523b3ef9284611b90575b858352600381528b8320805460010190558683525289812080546001600160a01b0319168517905580a41692838303611b6f5750505050565b6064945051926364283d7b60e01b8452600484015260248301526044820152fd5b600087815260046020526040902080546001600160a01b0319169055848352600381528b83208054600019019055611b36565b91939450915080611c18575b15611bdf57859291879138611b0a565b878688611bfc576024915190637e27328960e01b82526004820152fd5b604491519063177e802f60e01b82523360048301526024820152fd5b503387148015611c3d575b80611bcf5750858252600481523385898420541614611bcf565b5086825260058152878220338352815260ff8883205416611c23565b604051633250574960e11b815260006004820152602490fd5b9060088110156103095760ff80198354169116179055565b600019811461075f5760010190565b805415610da857600052602060002090600090565b6001600160401b038111610cc15760051b60200190565b60088210156103095752565b60078210156103095752565b8054821015610da85760005260206000200190600090565b6000818152600260205260409020546001600160a01b0316908115611d18575090565b60249060405190637e27328960e01b82526004820152fd5b6007546001600160a01b03163303611d4457565b60405163118cdaa760e01b8152336004820152602490fd5b60408051611d6981611966565b6000808252936001600160a01b03848116949092908515611f725782875260209360028552858820541683878215159283611f3f575b818b5260038852888b2080546001019055828b5260028852888b2080546001600160a01b031916831790557fddf252ad1be2c89b69c2b068fc378daa952ba7f163c4a11628f55a4df523b3ef8b80a4611f27573b611e00575b505050505050565b82611e3e918596979894955180938192630a85bd0160e11b968784523360048501528c60248501526044840152608060648401526084830190611819565b03818a8a5af1879181611ee3575b50611eac575050503d600014611ea3573d611e66816119a2565b90611e7384519283611981565b81528094823d92013e5b83519384611e9d578251633250574960e11b815260048101859052602490fd5b84925001fd5b60609350611e7d565b919550915063ffffffff60e01b1603611ecc575050388080808080611df8565b602492505190633250574960e11b82526004820152fd5b9091508481813d8311611f20575b611efb8183611981565b81010312611f1c57516001600160e01b031981168103611f1c579038611e4c565b8780fd5b503d611ef1565b84516339e3563760e11b815260048101889052602490fd5b600083815260046020526040902080546001600160a01b0319169055808b5260038852888b208054600019019055611d9f565b8451633250574960e11b815260048101889052602490fd5b9190916000908082526020916006835260408120908551906001600160401b0382116120eb57611fba83546119f4565b601f81116120a8575b508490601f831160011461202457907ff8e1a15aba9398e019f0b49df1a4fde98ee17ae345cb5f6b5e2c27f5033e8ce7969783612019575b50508160011b916000199060031b1c19161790555b604051908152a1565b015190503880611ffb565b9196601f198816848452868420935b81811061209157509160019391897ff8e1a15aba9398e019f0b49df1a4fde98ee17ae345cb5f6b5e2c27f5033e8ce7999a9410612078575b505050811b019055612010565b015160001960f88460031b161c1916905538808061206b565b929387600181928786015181550195019301612033565b838252858220601f840160051c8101918785106120e1575b601f0160051c01905b8181106120d65750611fc3565b8281556001016120c9565b90915081906120c0565b634e487b7160e01b81526041600452602490fd5b90939192833b612111575b5050505050565b604051630a85bd0160e11b8082526001600160a01b03938416600483015295831660248201526044810191909152608060648201529492169260209291859061215e906084830190611819565b039483816000978189895af1869181612209575b506121d3575050503d6000146121ca573d61218c816119a2565b9061219a6040519283611981565b81528093823d92013e5b825192836121c557604051633250574960e11b815260048101849052602490fd5b019050fd5b606092506121a4565b919450915063ffffffff60e01b16036121f15750388080808061210a565b60249060405190633250574960e11b82526004820152fd5b9091508481813d8311612246575b6122218183611981565b8101031261224257516001600160e01b031981168103612242579038612172565b8680fd5b503d61221756fea26469706673582212202690c11e396cf6f873be1864b1053d50e0746f1d697c29457bce2013fd56e31364736f6c63430008180033",
  "linkReferences": {},
  "deployedLinkReferences": {}
}