{
  "_format": "hh-sol-artifact-1",
  "contractName": "Department",
  "sourceName": "contracts/Department.sol",
  "abi": [
    {
      "inputs": [
        {
          "internalType": "string",
          "name": "_code",
          "type": "string"
        },
        {
          "internalType": "string",
          "name": "_name",
          "type": "string"
        },
        {
          "internalType": "string",
          "name": "_mainAgencyName",
          "type": "string"
        },
        {
          "internalType": "address",
          "name": "_dbtc",
          "type": "address"
        },
        {
          "internalType": "address",
          "name": "mainAgencyOwner",
          "type": "address"
        },
        {
          "internalType": "bool",
          "name": "_isStandalone",
          "type": "bool"
        },
        {
          "internalType": "bool",
          "name": "_isActualDepartment",
          "type": "bool"
        }
      ],
      "stateMutability": "nonpayable",
      "type": "constructor"
    },
    {
      "inputs": [],
      "name": "ActionNotAllowedInPhase",
      "type": "error"
    },
    {
      "inputs": [],
      "name": "AgencyAlreadyExists",
      "type": "error"
    },
    {
      "inputs": [],
      "name": "EmptyString",
      "type": "error"
    },
    {
      "inputs": [],
      "name": "NotMainAgency",
      "type": "error"
    },
    {
      "inputs": [],
      "name": "NotStandaloneOwner",
      "type": "error"
    },
    {
      "inputs": [],
      "name": "ZeroAddress",
      "type": "error"
    },
    {
      "anonymous": false,
      "inputs": [
        {
          "indexed": true,
          "internalType": "string",
          "name": "code",
          "type": "string"
        },
        {
          "indexed": false,
          "internalType": "address",
          "name": "agencyContract",
          "type": "address"
        },
        {
          "indexed": false,
          "internalType": "string",
          "name": "name",
          "type": "string"
        }
      ],
      "name": "AgencyAdded",
      "type": "event"
    },
    {
      "anonymous": false,
      "inputs": [
        {
          "indexed": true,
          "internalType": "string",
          "name": "code",
          "type": "string"
        }
      ],
      "name": "AgencyRemoved",
      "type": "event"
    },
    {
      "anonymous": false,
      "inputs": [
        {
          "indexed": true,
          "internalType": "address",
          "name": "house",
          "type": "address"
        },
        {
          "indexed": true,
          "internalType": "address",
          "name": "senate",
          "type": "address"
        }
      ],
      "name": "HouseAndSenateSet",
      "type": "event"
    },
    {
      "anonymous": false,
      "inputs": [
        {
          "indexed": true,
          "internalType": "address",
          "name": "mainAgency",
          "type": "address"
        }
      ],
      "name": "MainAgencySet",
      "type": "event"
    },
    {
      "inputs": [
        {
          "internalType": "string",
          "name": "agencyCode",
          "type": "string"
        },
        {
          "internalType": "string",
          "name": "agencyName",
          "type": "string"
        },
        {
          "internalType": "address",
          "name": "ownerAddress",
          "type": "address"
        }
      ],
      "name": "addAgency",
      "outputs": [
        {
          "internalType": "address",
          "name": "agencyContract",
          "type": "address"
        }
      ],
      "stateMutability": "nonpayable",
      "type": "function"
    },
    {
      "inputs": [],
      "name": "code",
      "outputs": [
        {
          "internalType": "string",
          "name": "",
          "type": "string"
        }
      ],
      "stateMutability": "view",
      "type": "function"
    },
    {
      "inputs": [],
      "name": "dbtc",
      "outputs": [
        {
          "internalType": "address",
          "name": "",
          "type": "address"
        }
      ],
      "stateMutability": "view",
      "type": "function"
    },
    {
      "inputs": [],
      "name": "entityType",
      "outputs": [
        {
          "internalType": "enum Types.EntityType",
          "name": "",
          "type": "uint8"
        }
      ],
      "stateMutability": "view",
      "type": "function"
    },
    {
      "inputs": [
        {
          "internalType": "string",
          "name": "agencyCode",
          "type": "string"
        }
      ],
      "name": "getAgency",
      "outputs": [
        {
          "internalType": "address",
          "name": "",
          "type": "address"
        }
      ],
      "stateMutability": "view",
      "type": "function"
    },
    {
      "inputs": [],
      "name": "getAgencyCodes",
      "outputs": [
        {
          "internalType": "string[]",
          "name": "",
          "type": "string[]"
        }
      ],
      "stateMutability": "view",
      "type": "function"
    },
    {
      "inputs": [],
      "name": "getAgencyCount",
      "outputs": [
        {
          "internalType": "uint256",
          "name": "",
          "type": "uint256"
        }
      ],
      "stateMutability": "view",
      "type": "function"
    },
    {
      "inputs": [],
      "name": "getCode",
      "outputs": [
        {
          "internalType": "string",
          "name": "",
          "type": "string"
        }
      ],
      "stateMutability": "view",
      "type": "function"
    },
    {
      "inputs": [],
      "name": "getDBTC",
      "outputs": [
        {
          "internalType": "address",
          "name": "",
          "type": "address"
        }
      ],
      "stateMutability": "view",
      "type": "function"
    },
    {
      "inputs": [],
      "name": "getDepartmentOwner",
      "outputs": [
        {
          "internalType": "address",
          "name": "",
          "type": "address"
        }
      ],
      "stateMutability": "view",
      "type": "function"
    },
    {
      "inputs": [],
      "name": "getHouseAgency",
      "outputs": [
        {
          "internalType": "address",
          "name": "",
          "type": "address"
        }
      ],
      "stateMutability": "view",
      "type": "function"
    },
    {
      "inputs": [],
      "name": "getIsActualDepartment",
      "outputs": [
        {
          "internalType": "bool",
          "name": "",
          "type": "bool"
        }
      ],
      "stateMutability": "view",
      "type": "function"
    },
    {
      "inputs": [],
      "name": "getMainAgency",
      "outputs": [
        {
          "internalType": "address",
          "name": "",
          "type": "address"
        }
      ],
      "stateMutability": "view",
      "type": "function"
    },
    {
      "inputs": [],
      "name": "getName",
      "outputs": [
        {
          "internalType": "string",
          "name": "",
          "type": "string"
        }
      ],
      "stateMutability": "view",
      "type": "function"
    },
    {
      "inputs": [],
      "name": "getSenateAgency",
      "outputs": [
        {
          "internalType": "address",
          "name": "",
          "type": "address"
        }
      ],
      "stateMutability": "view",
      "type": "function"
    },
    {
      "inputs": [],
      "name": "getStandaloneOwner",
      "outputs": [
        {
          "internalType": "address",
          "name": "",
          "type": "address"
        }
      ],
      "stateMutability": "view",
      "type": "function"
    },
    {
      "inputs": [],
      "name": "houseAgency",
      "outputs": [
        {
          "internalType": "address",
          "name": "",
          "type": "address"
        }
      ],
      "stateMutability": "view",
      "type": "function"
    },
    {
      "inputs": [],
      "name": "isActualDepartment",
      "outputs": [
        {
          "internalType": "bool",
          "name": "",
          "type": "bool"
        }
      ],
      "stateMutability": "view",
      "type": "function"
    },
    {
      "inputs": [
        {
          "internalType": "string",
          "name": "agencyCode",
          "type": "string"
        }
      ],
      "name": "isAgencyRegistered",
      "outputs": [
        {
          "internalType": "bool",
          "name": "",
          "type": "bool"
        }
      ],
      "stateMutability": "view",
      "type": "function"
    },
    {
      "inputs": [],
      "name": "isCongress",
      "outputs": [
        {
          "internalType": "bool",
          "name": "",
          "type": "bool"
        }
      ],
      "stateMutability": "view",
      "type": "function"
    },
    {
      "inputs": [
        {
          "internalType": "address",
          "name": "agency",
          "type": "address"
        }
      ],
      "name": "isHouseOrSenate",
      "outputs": [
        {
          "internalType": "bool",
          "name": "",
          "type": "bool"
        }
      ],
      "stateMutability": "view",
      "type": "function"
    },
    {
      "inputs": [],
      "name": "isStandalone",
      "outputs": [
        {
          "internalType": "bool",
          "name": "",
          "type": "bool"
        }
      ],
      "stateMutability": "view",
      "type": "function"
    },
    {
      "inputs": [],
      "name": "mainAgency",
      "outputs": [
        {
          "internalType": "address",
          "name": "",
          "type": "address"
        }
      ],
      "stateMutability": "view",
      "type": "function"
    },
    {
      "inputs": [],
      "name": "name",
      "outputs": [
        {
          "internalType": "string",
          "name": "",
          "type": "string"
        }
      ],
      "stateMutability": "view",
      "type": "function"
    },
    {
      "inputs": [
        {
          "internalType": "address",
          "name": "",
          "type": "address"
        },
        {
          "internalType": "address",
          "name": "",
          "type": "address"
        },
        {
          "internalType": "uint256",
          "name": "",
          "type": "uint256"
        },
        {
          "internalType": "bytes",
          "name": "",
          "type": "bytes"
        }
      ],
      "name": "onERC721Received",
      "outputs": [
        {
          "internalType": "bytes4",
          "name": "",
          "type": "bytes4"
        }
      ],
      "stateMutability": "pure",
      "type": "function"
    },
    {
      "inputs": [],
      "name": "senateAgency",
      "outputs": [
        {
          "internalType": "address",
          "name": "",
          "type": "address"
        }
      ],
      "stateMutability": "view",
      "type": "function"
    },
    {
      "inputs": [
        {
          "internalType": "address",
          "name": "house",
          "type": "address"
        },
        {
          "internalType": "address",
          "name": "senate",
          "type": "address"
        }
      ],
      "name": "setHouseAndSenate",
      "outputs": [],
      "stateMutability": "nonpayable",
      "type": "function"
    },
    {
      "inputs": [],
      "name": "standaloneOwner",
      "outputs": [
        {
          "internalType": "address",
          "name": "",
          "type": "address"
        }
      ],
      "stateMutability": "view",
      "type": "function"
    }
  ],
  "bytecode": "0x608060408181523462000620576200559d803803809162000021828662000625565b843982019160e081840312620006205780516001600160401b039190828111620006205784620000539183016200068a565b9360209081830151848111620006205781620000719185016200068a565b90858401519085821162000620576200008c9185016200068a565b926200009b60608201620006d7565b620000a960808301620006d7565b95620000c660c0620000be60a08601620006ec565b9401620006ec565b988051156200060f578451156200060f576001600160a01b03928316948515620005fe57838916948515620005ed5782519b848d11620005d7578c60009d8e620001118154620006fa565b96601f978d898211620005a6575b50508c918884116001146200053d579262000531575b50508160011b916000199060031b1c1916178d555b82518581116200051d57808e600195620001658754620006fa565b8d898211620004e1575b50508c918884116001146200047b57926200046f575b5050600019600383901b1c191690841b1783555b600280546001600160a01b031990811690991790556008805460ff60b01b19811692151560b01b60ff60b01b169283179091559091156200021b57505060088054610100600160b01b03191660109a909a1b62010000600160b01b0316999099176101001790985550969750505050505050505b516130129081620007788239f35b909192939495969798809a5051156200045e5761ff0060ff60b01b011916176008558851611e13808201979190858911828a10176200044a576200378a823960808852808b6003988960808c01526230303160e81b9a8b60a08201528c810160c090528d60c082016200028e9162000750565b9230908201526060015203908cf0801562000440578516808288541617875560238b5189815260068982015220918254161790556007549068010000000000000000821015620003f7578101806007558110156200042c5760078a52868a200190620002fb8254620006fa565b8181116200040b575b505060068501905581835416826002541691885190878201926353da18e160e11b8452602483015260248252606082019082821090821117620003f757998093620003e89695938280948d9e7ff697a792a1deae67407aab164de3727e4dd86a192529dd858d4e951583996b2e9d9e5251925af1503d15620003f1573d6200038c8162000649565b906200039b8b51928362000625565b815282873d92013e5b82541693847fe89615b138129596306259c91aed1b21f7bb5f965a2b003f1399667fc5945a4d8a519380a28152209486805194859485528401528683019062000750565b0390a26200020d565b620003a4565b634e487b7160e01b8b52604160045260248bfd5b6200042491838c52888c20910160051c81019062000737565b388062000304565b634e487b7160e01b8a52603260045260248afd5b8a513d8d823e3d90fd5b634e487b7160e01b8d52604160045260248dfd5b8a5163ecd7b0d160e01b8152600490fd5b01519050388062000185565b8781528d8120889550929190601f198516908f5b828210620004c95750508411620004af575b505050811b01835562000199565b015160001960f88460031b161c19169055388080620004a1565b8385015186558a979095019493840193018f6200048f565b6200050b918985528a8286209181880160051c830193881062000513575b0160051c019062000737565b388d6200016f565b92508192620004ff565b634e487b7160e01b8e52604160045260248efd5b01519050388062000135565b8080528d81209350601f198516908e5b8282106200058e57505090846001959493921062000574575b505050811b018d556200014a565b015160001960f88460031b161c1916905538808062000566565b60018596829396860151815501950193018e6200054d565b620005cf918480528a8286209181880160051c830193881062000513570160051c019062000737565b388d6200011f565b634e487b7160e01b600052604160045260246000fd5b8a5163d92e233d60e01b8152600490fd5b895163d92e233d60e01b8152600490fd5b885163ecd7b0d160e01b8152600490fd5b600080fd5b601f909101601f19168101906001600160401b03821190821017620005d757604052565b6001600160401b038111620005d757601f01601f191660200190565b60005b838110620006795750506000910152565b818101518382015260200162000668565b81601f8201121562000620578051620006a38162000649565b92620006b3604051948562000625565b818452602082840101116200062057620006d4916020808501910162000665565b90565b51906001600160a01b03821682036200062057565b519081151582036200062057565b90600182811c921680156200072c575b60208310146200071657565b634e487b7160e01b600052602260045260246000fd5b91607f16916200070a565b81811062000743575050565b6000815560010162000737565b906020916200076b8151809281855285808601910162000665565b601f01601f191601019056fe60808060405260043610156200001457600080fd5b60003560e01c908163059b2ddf1462000e365750806306fdde031462000c255780630744d2111462000bfa5780630d6d284d1462000ca6578063150b7a021462000c4657806317d7de7c1462000c2557806324c12bf614620001cb57806334a1dd531462000bfa5780633ef1e8461462000b975780634473bf4d1462000b365780634b53200c14620004e357806351869aa6146200050e57806351c3d38614620004e357806364c7e22114620004af57806366f7b073146200017057806372218f95146200036e578063838453fd14620003285780638624c3ac14620003085780638f97323b14620002b2578063a412ea581462000205578063a78d91ff146200028d578063a8845709146200022d578063b147b094146200025c578063b73f232d146200022d578063bfdb57a51462000205578063ea87963414620001cb578063faeb44cb14620001a05763fd2a4086146200017057600080fd5b346200019b5760003660031901126200019b576004546040516001600160a01b039091168152602090f35b600080fd5b346200019b5760003660031901126200019b576003546040516001600160a01b039091168152602090f35b346200019b5760003660031901126200019b5762000201620001ec62000f8e565b60405191829160208352602083019062001036565b0390f35b346200019b5760003660031901126200019b57602060ff60085460b01c166040519015158152f35b346200019b5760003660031901126200019b5760085460405160109190911c6001600160a01b03168152602090f35b346200019b5760003660031901126200019b5760206200027b62001119565b6040516001600160a01b039091168152f35b346200019b5760003660031901126200019b57602060ff600854166040519015158152f35b346200019b5760203660031901126200019b576020620002d162001078565b6004546001600160a01b039182169082168114918215620002f9575b50506040519015158152f35b600554161490508280620002ed565b346200019b5760003660031901126200019b576020600754604051908152f35b346200019b5760003660031901126200019b5760ff60085460081c16604051600282101562000358576020918152f35b634e487b7160e01b600052602160045260246000fd5b346200019b5760403660031901126200019b576200038b62001078565b620003956200108f565b60035490916001600160a01b0391821680156200045b57602060049160405192838092631127a41d60e31b82525afa8015620004a35783916000916200046d575b501633036200045b5781169182156200044957169081156200044957816bffffffffffffffffffffffff60a01b828160045416176004556005541617600555600160ff1960085416176008557fa5da52a5372bf6d247c935322da637664dd8be1ab9e61f52470a7525bd0e4d6e600080a3005b60405163d92e233d60e01b8152600490fd5b6040516304d36fc760e51b8152600490fd5b62000494915060203d6020116200049b575b6200048b818362000e99565b810190620010d7565b85620003d6565b503d6200047f565b6040513d6000823e3d90fd5b346200019b5760003660031901126200019b5760ff60085460081c1660028110156200035857602090600160405191148152f35b346200019b5760003660031901126200019b576005546040516001600160a01b039091168152602090f35b346200019b5760603660031901126200019b5760043567ffffffffffffffff81116200019b5762000544903690600401620010a6565b602490813567ffffffffffffffff81116200019b5762000569903690600401620010a6565b91909360443560018060a01b0381168091036200019b5760085460ff8160081c16600281101562000b215760010362000a9d5760101c6001600160a01b0316330362000a8b575b60025460405163a3a40ea560e01b815290602090829060049082906001600160a01b03165afa908115620004a35760009162000a49575b50600781101562000a345762000a2257821562000a1057831562000a1057801562000449576040518383823760068185019081528190036020019020546001600160a01b0316620009fe5760405190611e13908183019183831067ffffffffffffffff841117620009e95790839291620011aa84396080825260606200068662000676608085018989620010f8565b8481036020860152898c620010f8565b92306040820152015203906000f0938415620004a357604051838382376006848201908152819003602001902080546001600160a01b0319166001600160a01b03871617905560075468010000000000000000811015620009bf576001810180600755811015620009d457600760005267ffffffffffffffff8411620009bf57620007238160008051602062002fbd833981519152015462000e5c565b601f811162000961575b50836000601f8211600114620008d257600091620008c6575b508460011b906000198660031b1c1916179060008051602062002fbd83398151915201555b6002546040516353da18e160e11b602082019081526001600160a01b038881168584015284835290921691906060810181811067ffffffffffffffff821117620008b1576040525160009283929083905af1503d1562000884573d9067ffffffffffffffff821162000870575091602095917ff697a792a1deae67407aab164de3727e4dd86a192529dd858d4e951583996b2e93604051906200081889601f19601f840116018362000e99565b81526000883d92013e5b816040519283928337810160008152039020926200085b60405192839260018060a01b03881684526040898501526040840191620010f8565b0390a26040516001600160a01b039091168152f35b634e487b7160e01b60009081526041600452fd5b50937ff697a792a1deae67407aab164de3727e4dd86a192529dd858d4e951583996b2e9160209562000822565b84634e487b7160e01b60005260416004526000fd5b90508301358862000746565b9050601f198516908260008051602062002fbd833981519152016000528560206000209260005b818110620009455750106200092a575b5050600184811b019060008051602062002fbd83398151915201556200076b565b840135600019600387901b60f8161c19169055878062000909565b87840135855560019094019360209384019389935001620008f9565b8160008051602062002fbd833981519152016000526020600020601f860160051c81019160208710620009b4575b601f0160051c01905b818110620009a757506200072d565b6000815560010162000998565b90915081906200098f565b50634e487b7160e01b60009081526041600452fd5b50634e487b7160e01b60009081526032600452fd5b87634e487b7160e01b60005260416004526000fd5b604051638f51c18f60e01b8152600490fd5b60405163ecd7b0d160e01b8152600490fd5b604051637996d44d60e11b8152600490fd5b85634e487b7160e01b60005260216004526000fd5b90506020813d60201162000a82575b8162000a676020938362000e99565b810103126200019b575160078110156200019b5787620005e7565b3d915062000a58565b604051639767f1df60e01b8152600490fd5b506003546001600160a01b031680156200045b57602060049160405192838092631127a41d60e31b82525afa908115620004a35760009162000afd575b506001600160a01b03163314620005b0576040516304d36fc760e51b8152600490fd5b62000b1a915060203d6020116200049b576200048b818362000e99565b8762000ada565b86634e487b7160e01b60005260216004526000fd5b346200019b5760203660031901126200019b5760043567ffffffffffffffff81116200019b5762000b6e6020913690600401620010a6565b80604051928337600690820190815281900382019020546040516001600160a01b039091168152f35b346200019b5760203660031901126200019b5760043567ffffffffffffffff81116200019b5762000bcf6020913690600401620010a6565b80604051928337600690820190815281900382019020546040516001600160a01b0390911615158152f35b346200019b5760003660031901126200019b576002546040516001600160a01b039091168152602090f35b346200019b5760003660031901126200019b5762000201620001ec62000ebc565b346200019b5760803660031901126200019b5762000c6362001078565b5062000c6e6200108f565b5060643567ffffffffffffffff81116200019b5762000c92903690600401620010a6565b5050604051630a85bd0160e11b8152602090f35b346200019b5760003660031901126200019b5760075467ffffffffffffffff811162000e2057602060056040519262000ce5838260051b018562000e99565b808452828401908192600760005260008051602062002fbd833981519152926000905b83821062000d7057604080518881528951818a01819052600092600582901b83018101918a918c9085015b82871062000d415785850386f35b90919293828062000d5f600193603f198a8203018652885162001036565b960192019601959291909262000d33565b6040979697518860009287549262000d888462000e5c565b80825260019480861690811562000e03575060011462000dc6575b5062000db481600196038262000e99565b81520195019101909396959662000d08565b60008a81528481209650905b80821062000deb575081018301945062000db462000da3565b8654838301860152958501958d949091019062000dd2565b60ff191685840152501515871b81018301945062000db462000da3565b634e487b7160e01b600052604160045260246000fd5b346200019b5760003660031901126200019b576003546001600160a01b03168152602090f35b90600182811c9216801562000e8e575b602083101462000e7857565b634e487b7160e01b600052602260045260246000fd5b91607f169162000e6c565b90601f8019910116810190811067ffffffffffffffff82111762000e2057604052565b6040519060008260019160015462000ed48162000e5c565b808452936020916001811690811562000f68575060011462000f03575b505062000f019250038362000e99565b565b91509260016000527fb10e2d527612073b26eecdfd717e6a320cf44b4afac2b0732d9fcbe2b7fa0cf6936000925b82841062000f4f575062000f01945050508101602001388062000ef1565b8554888501830152948501948794509281019262000f31565b9150506020925062000f0194915060ff191682840152151560051b820101388062000ef1565b604051906000826000549162000fa48362000e5c565b8083529260209060019081811690811562000f68575060011462000fd257505062000f019250038362000e99565b915092600080527f290decd9548b62a8d60345a988386fc84ba6bc95484008f6362f93160ef3e563936000925b8284106200101d575062000f01945050508101602001388062000ef1565b8554888501830152948501948794509281019262000fff565b919082519283825260005b84811062001063575050826000602080949584010152601f8019910116010190565b60208183018101518483018201520162001041565b600435906001600160a01b03821682036200019b57565b602435906001600160a01b03821682036200019b57565b9181601f840112156200019b5782359167ffffffffffffffff83116200019b57602083818601950101116200019b57565b908160209103126200019b57516001600160a01b03811681036200019b5790565b908060209392818452848401376000828201840152601f01601f1916010190565b60085460ff8160081c1660028110156200035857600103620011445760101c6001600160a01b031690565b506003546001600160a01b0316806200115d5750600090565b602060049160405192838092631127a41d60e31b82525afa908115620004a35760009162001189575090565b620011a6915060203d6020116200049b576200048b818362000e99565b9056fe604060808152346200042e5762001e13803803806200001e8162000433565b92833981016080828203126200042e5781516001600160401b0391908281116200042e57816200005091850162000459565b9060209081850151908482116200042e576200006e91860162000459565b62000089606062000081888801620004cb565b9601620004cb565b948351156200041d578151156200041d576001600160a01b039081169586156200040c5716938415620003fb578351818111620003e5576000928354916001968784811c94168015620003da575b87851014620003c6578190601f9485811162000373575b5087908583116001146200030f57879262000303575b5050600019600383901b1c191690871b1784555b8051928311620002ef5785548681811c91168015620002e4575b86821014620002d057908183859493116200027b575b5085918311600114620002175784926200020b575b5050600019600383901b1c191690841b1783555b600280546001600160a01b031990811690961790556003805486168517905583815260048252858120805460ff1916841790556005549268010000000000000000841015620001f757830180600555831015620001e35760058152200191825416179055516119329081620004e18239f35b634e487b7160e01b81526032600452602490fd5b634e487b7160e01b82526041600452602482fd5b0151905038806200015d565b8685528585208794509190601f198416865b888282106200026457505084116200024a575b505050811b01835562000171565b015160001960f88460031b161c191690553880806200023c565b8385015186558a9790950194938401930162000229565b909192508685528585208380860160051c820192888710620002c6575b9186958a929594930160051c01915b828110620002b757505062000148565b878155869550899101620002a7565b9250819262000298565b634e487b7160e01b85526022600452602485fd5b90607f169062000132565b634e487b7160e01b84526041600452602484fd5b01519050388062000104565b8780528888208a94509190601f198416895b8b8282106200035c575050841162000342575b505050811b01845562000118565b015160001960f88460031b161c1916905538808062000334565b8385015186558d9790950194938401930162000321565b9091508680528787208580850160051c8201928a8610620003bc575b918b91869594930160051c01915b828110620003ad575050620000ee565b8981558594508b91016200039d565b925081926200038f565b634e487b7160e01b86526022600452602486fd5b93607f1693620000d7565b634e487b7160e01b600052604160045260246000fd5b865163d92e233d60e01b8152600490fd5b875163d92e233d60e01b8152600490fd5b865163ecd7b0d160e01b8152600490fd5b600080fd5b6040519190601f01601f191682016001600160401b03811183821017620003e557604052565b919080601f840112156200042e5782516001600160401b038111620003e5576020906200048f601f8201601f1916830162000433565b928184528282870101116200042e5760005b818110620004b757508260009394955001015290565b8581018301518482018401528201620004a1565b51906001600160a01b03821682036200042e5756fe6080604052600436101561001257600080fd5b60003560e01c8063025916e1146101335780630455804b1461012e57806306fdde031461011f5780630e43ce0614610129578063150b7a021461012457806317d7de7c1461011f57806324c12bf6146100fc57806327d206651461010157806343a55ea11461011a5780637d5feec114610115578063893d20e8146101105780638da5cb5b1461011057806392c26bcd1461010b57806397fa49bc146101065780639ca6516314610101578063ea879634146100fc578063edf46e2b146100f7578063f1e626ff146100f25763f2fde38b146100ed57600080fd5b610df8565b610cd2565b610c0e565b6107ea565b610806565b610b08565b610a75565b610a4c565b610985565b61082f565b610632565b61078f565b61074d565b61038c565b6101bc565b9181601f840112156101665782359167ffffffffffffffff8311610166576020838186019501011161016657565b600080fd5b60c090606319011261016657606490565b60e0600319820112610166576004359167ffffffffffffffff8311610166576101aa8260c094600401610138565b90939092602319011261016657602490565b34610166576101ca3661017c565b6003549192916001600160a01b0390811633141580610312575b6103005760025461020b906101ff906001600160a01b031681565b6001600160a01b031690565b9060405180926334a1dd5360e01b825281600460209586935afa80156102ce5783916000916102d3575b5060046040518094819363a3a40ea560e01b8352165afa9081156102ce576004926000926102a1575b505061026981610e7f565b0361028f5761028b9261027b92610f91565b6040519081529081906020820190565b0390f35b604051637996d44d60e11b8152600490fd5b6102c09250803d106102c7575b6102b881836104c8565b810190610e67565b388061025e565b503d6102ae565b610e5b565b6102f39150823d84116102f9575b6102eb81836104c8565b810190610e43565b38610235565b503d6102e1565b604051636dff42d560e11b8152600490fd5b5033600052600460205260ff60406000205416156101e4565b90610120600319830112610166576004359167ffffffffffffffff90602435828111610166578161035e91600401610138565b9093909260c060431984011261016657604492610104359182116101665761038891600401610138565b9091565b346101665761039a3661032b565b9260018060a09796979493941b03806003541633141580610499575b610300576002546103d1906101ff906001600160a01b031681565b9060405180926334a1dd5360e01b825281600460209586935afa80156102ce57839160009161047c575b5060046040518094819363a3a40ea560e01b8352165afa9182156102ce5760009261045f575b505061042c81610e7f565b6001811415908161044a575b5061028f5761028b9561027b956110d2565b6002915061045781610e7f565b141538610438565b6104759250803d106102c7576102b881836104c8565b3880610421565b6104939150823d84116102f9576102eb81836104c8565b386103fb565b5033600052600460205260ff60406000205416156103b6565b634e487b7160e01b600052604160045260246000fd5b90601f8019910116810190811067ffffffffffffffff8211176104ea57604052565b6104b2565b60405190600080549060018260011c92600181169182156105d9575b6020916020861084146105c5578588528794936020860193929181156105a65750600114610545575b505050610543925003836104c8565b565b925093610573600080527f290decd9548b62a8d60345a988386fc84ba6bc95484008f6362f93160ef3e56390565b946000935b82851061059057505050610543935001388080610534565b8654858501529586019588955093810193610578565b925050506105439491925060ff19168252151560051b01388080610534565b634e487b7160e01b85526022600452602485fd5b93607f169361050b565b60005b8381106105f65750506000910152565b81810151838201526020016105e6565b6040916020825261062681518092816020860152602086860191016105e3565b601f01601f1916010190565b34610166576000806003193601126107395760405190806001906001548060011c926001821692831561072f575b60209260208610851461071b5785885260208801949081156106fa57506001146106a1575b61028b87610695818903826104c8565b60405191829182610606565b600160005294509192917fb10e2d527612073b26eecdfd717e6a320cf44b4afac2b0732d9fcbe2b7fa0cf65b8386106106e957505050910190506106958261028b3880610685565b8054858701529482019481016106cd565b60ff191685525050505090151560051b0190506106958261028b3880610685565b634e487b7160e01b82526022600452602482fd5b93607f1693610660565b80fd5b6001600160a01b0381160361016657565b346101665760203660031901126101665760043561076a8161073c565b60018060a01b03166000526004602052602060ff604060002054166040519015158152f35b34610166576080366003190112610166576107ab60043561073c565b6107b660243561073c565b60643567ffffffffffffffff8111610166576107d6903690600401610138565b5050604051630a85bd0160e11b8152602090f35b346101665760003660031901126101665761028b6106956104ef565b34610166576000366003190112610166576002546040516001600160a01b039091168152602090f35b346101665761012036600319011261016657600460443567ffffffffffffffff8111610166576108629036908301610138565b61086b3661016b565b9160018060a01b0380600354163314158061096d575b61095c5760025461089c906101ff906001600160a01b031681565b9060405180926334a1dd5360e01b8252818860209586935afa80156102ce57839160009161093f575b50876040518094819363a3a40ea560e01b8352165afa9081156102ce57600592600092610922575b50506108f881610e7f565b03610911579061027b929161028b946024359035611298565b604051637996d44d60e11b81528490fd5b6109389250803d106102c7576102b881836104c8565b38806108ed565b6109569150823d84116102f9576102eb81836104c8565b386108c5565b604051636dff42d560e11b81528590fd5b50336000528460205260ff6040600020541615610881565b34610166576000806003193601126107395760405180916005549081835260208093018092600583527f036b6384b5eca791c62761152d0c79bb0604c104a5fb6f4eb0703f3154bb3db090835b818110610a2f57505050846109e89103856104c8565b60405193838594850191818652518092526040850193925b828110610a0f57505050500390f35b83516001600160a01b031685528695509381019392810192600101610a00565b82546001600160a01b0316845292860192600192830192016109d2565b34610166576000366003190112610166576003546040516001600160a01b039091168152602090f35b3461016657602036600319011261016657600435610a928161073c565b6003546001600160a01b03919082163303610af65716600090808252600460205260408220805460ff8116610ac5578380f35b60ff191690557f6eea8bb915c3f59b2df31edd41f67162f66781fe2bd87ed8f1d1f023d38e45808280a23880808380f35b6040516330cd747160e01b8152600490fd5b3461016657610b163661017c565b6003549192916001600160a01b0390811633141580610bf5575b61030057600254610b4b906101ff906001600160a01b031681565b9060405180926334a1dd5360e01b825281600460209586935afa80156102ce578391600091610bd8575b5060046040518094819363a3a40ea560e01b8352165afa9081156102ce57600192600092610bbb575b5050610ba981610e7f565b0361028f5761028b9261027b92611453565b610bd19250803d106102c7576102b881836104c8565b3880610b9e565b610bef9150823d84116102f9576102eb81836104c8565b38610b75565b5033600052600460205260ff6040600020541615610b30565b3461016657602036600319011261016657600435610c2b8161073c565b6003546001600160a01b039081163303610af65781168015610cc057600091818352600460205260ff60408420541615610c63578280f35b6001600160a01b0381166000908152600460205260409020610c969190610c9190805460ff19166001179055565b611519565b7f21fbfc2d5ee4fd011d7fb9e096fcfc72cdd6b20fbe82b63cd0b10f488e54e0ba8280a238808280f35b60405163d92e233d60e01b8152600490fd5b3461016657610ce03661032b565b9260018060a09796979493941b03806003541633141580610ddf575b61030057600254610d17906101ff906001600160a01b031681565b9060405180926334a1dd5360e01b825281600460209586935afa80156102ce578391600091610dc2575b5060046040518094819363a3a40ea560e01b8352165afa9182156102ce57600092610da5575b5050610d7281610e7f565b60048114159081610d90575b5061028f5761028b9561027b95611598565b60059150610d9d81610e7f565b141538610d7e565b610dbb9250803d106102c7576102b881836104c8565b3880610d67565b610dd99150823d84116102f9576102eb81836104c8565b38610d41565b5033600052600460205260ff6040600020541615610cfc565b3461016657602036600319011261016657600435610e158161073c565b600354906001600160a01b03908183163303610af65716908115610cc0576001600160a01b03191617600355005b908160209103126101665751610e588161073c565b90565b6040513d6000823e3d90fd5b90816020910312610166575160078110156101665790565b60071115610e8957565b634e487b7160e01b600052602160045260246000fd5b90816020910312610166575180151581036101665790565b90816020910312610166575190565b908060209392818452848401376000828201840152601f01601f1916010190565b60a0809180518452602081015160208501526040810151604085015260608101516060850152608081015160808501520151910152565b6001600160a01b0390911681526101206020820181905293949360049361010093610f5b92610f509290850191610ec6565b956040830190610ee7565b0152565b6001600160a01b0390911681526101206020820181905293949360059361010093610f5b92610f509290850191610ec6565b6002549093929190610fad906101ff906001600160a01b031681565b604051638f97323b60e01b8152306004820152602095918690829060249082905afa9081156102ce576000916110a5575b50156110935761101c9285926000610ffd610ff761166a565b9361178f565b60405163d6e5ae7560e01b815296879586948593913060048601610f1e565b03926001600160a01b03165af19283156102ce57600093611064575b50508133907f11641d364e926d2bf231c2d36f2a9271390042d717ea334a3e7c983c27a12391600080a3565b611084929350803d1061108c575b61107c81836104c8565b810190610eb7565b903880611038565b503d611072565b604051635b48693760e01b8152600490fd5b6110c59150863d88116110cb575b6110bd81836104c8565b810190610e9f565b38610fde565b503d6110b3565b95949160008761115061112b9760209795966110f56110ef61166a565b9761178f565b916111366040519b8c9a8b998a98635737b72960e11b8a5260048a01523060248a015261016060448a0152610164890191610ec6565b936064870190610ee7565b600461012486015284830360031901610144860152610ec6565b03926001600160a01b03165af19081156102ce57600091611196575b5080927feb651e2008e47ae08a231ce83e07c87acbc86a982551e2a80413a4ef2154e8f1600080a3565b6111af915060203d60201161108c5761107c81836104c8565b3861116c565b92604095946111e2926111ed9461016091875260018060a01b031660208701528088870152850191610ec6565b926060830190610ee7565b6003610120820152610140818303910152601d81527f4a6f696e7420474142202d206c696e6b65642066726f6d20486f75736500000060208201520190565b92604095946111e2926112599461016091875260018060a01b031660208701528088870152850191610ec6565b6003610120820152610140818303910152601e81527f4a6f696e7420474142202d206c696e6b65642066726f6d2053656e617465000060208201520190565b600254909594919391906112b6906101ff906001600160a01b031681565b92604051809463059b2ddf60e01b825281600460209788935afa9081156102ce57600091611436575b506001600160a01b03903090821603611424576112fd610ff761166a565b92166040519563d6e5ae7560e01b87528587806113208789883060048601610f5f565b03816000865af19687156102ce57600097611405575b5086986040519087828061135d898b8a635737b72960e11b978886523090600487016111b5565b03816000885af180156102ce578896600093611390926113e8575b5060405198899788968795865230906004870161122c565b03925af180156102ce576113ca575b505033907f11641d364e926d2bf231c2d36f2a9271390042d717ea334a3e7c983c27a12391600080a3565b816113e092903d1061108c5761107c81836104c8565b50388061139f565b6113fe90893d8b1161108c5761107c81836104c8565b5038611378565b61141d919750863d881161108c5761107c81836104c8565b9538611336565b6040516333f1d70160e11b8152600490fd5b61144d9150853d87116102f9576102eb81836104c8565b386112df565b6114aa939261149f91600060209461147261146c61166a565b9461178f565b60405163d6e5ae7560e01b8152306004820152610120602482015298899687958694610124860191610ec6565b916044840190610ee7565b600161010483015203926001600160a01b03165af19182156102ce576000926114f8575b5033827f11641d364e926d2bf231c2d36f2a9271390042d717ea334a3e7c983c27a12391600080a3565b61151291925060203d60201161108c5761107c81836104c8565b90386114ce565b600554680100000000000000008110156104ea5760018101806005558110156115825760056000527f036b6384b5eca791c62761152d0c79bb0604c104a5fb6f4eb0703f3154bb3db00180546001600160a01b0319166001600160a01b03909216919091179055565b634e487b7160e01b600052603260045260246000fd5b95949160008761160561112b9760209795966115b56110ef61166a565b916115eb6040519b8c9a8b998a98635737b72960e11b8a5260048a01523060248a015261016060448a0152610164890191610ec6565b600561012486015284830360031901610144860152610ec6565b03926001600160a01b03165af19081156102ce5760009161164b575b5080927f74e4b6e98f9a799c235eb4e596e6d1305d196175a4fe5d708b2bfeb1cf085cb8600080a3565b611664915060203d60201161108c5761107c81836104c8565b38611621565b6001600160a01b03600460208261167f6118ae565b166040519283809263b30e917160e01b82525afa9081156102ce576000916116a657501690565b6116bf915060203d6020116102f9576102eb81836104c8565b1690565b6040519060c0820182811067ffffffffffffffff8211176104ea57604052565b6040519060c0820182811067ffffffffffffffff8211176104ea576040528160a06000918281528260208201528260408201528260608201528260808201520152565b60208183031261016657805167ffffffffffffffff9182821161016657019082601f830112156101665781519081116104ea5760405192611771601f8301601f1916602001856104c8565b8184526020828401011161016657610e5891602080850191016105e3565b6117976116e3565b506002546004906117b0906001600160a01b03166101ff565b9160206117be6101ff6118ae565b60405163bbfeced160e01b815293849182905afa9182156102ce57600092611889575b50604051633aa1e58d60e21b81529192600090839060049082906001600160a01b03165afa9182156102ce5760a09261182291600091611866575b506118e8565b61183261182d6104ef565b6118e8565b9061183b6116c3565b948552602085015260408401526060810135606084015260808101356080840152013560a082015290565b61188391503d806000833e61187b81836104c8565b810190611726565b3861181c565b600492506118a760009160203d60201161108c5761107c81836104c8565b92506117e1565b6002546040516334a1dd5360e01b81526001600160a01b03916020908290600490829086165afa9081156102ce576000916116a657501690565b8051156118f6576020015190565b5060009056fea26469706673582212203cb3ad0c0401b117c8de1f2be700e7b5cac73ab11a4b67e1434e28d4c092c8f364736f6c63430008180033a66cc928b5edb82af9bd49922954155ab7b0942694bea4ce44661d9a8736c688a264697066735822122007e43659cacbf315032dc192c0f36a5b7570ced41cfd4dc9334acc31f2ff6c7964736f6c63430008180033604060808152346200042e5762001e13803803806200001e8162000433565b92833981016080828203126200042e5781516001600160401b0391908281116200042e57816200005091850162000459565b9060209081850151908482116200042e576200006e91860162000459565b62000089606062000081888801620004cb565b9601620004cb565b948351156200041d578151156200041d576001600160a01b039081169586156200040c5716938415620003fb578351818111620003e5576000928354916001968784811c94168015620003da575b87851014620003c6578190601f9485811162000373575b5087908583116001146200030f57879262000303575b5050600019600383901b1c191690871b1784555b8051928311620002ef5785548681811c91168015620002e4575b86821014620002d057908183859493116200027b575b5085918311600114620002175784926200020b575b5050600019600383901b1c191690841b1783555b600280546001600160a01b031990811690961790556003805486168517905583815260048252858120805460ff1916841790556005549268010000000000000000841015620001f757830180600555831015620001e35760058152200191825416179055516119329081620004e18239f35b634e487b7160e01b81526032600452602490fd5b634e487b7160e01b82526041600452602482fd5b0151905038806200015d565b8685528585208794509190601f198416865b888282106200026457505084116200024a575b505050811b01835562000171565b015160001960f88460031b161c191690553880806200023c565b8385015186558a9790950194938401930162000229565b909192508685528585208380860160051c820192888710620002c6575b9186958a929594930160051c01915b828110620002b757505062000148565b878155869550899101620002a7565b9250819262000298565b634e487b7160e01b85526022600452602485fd5b90607f169062000132565b634e487b7160e01b84526041600452602484fd5b01519050388062000104565b8780528888208a94509190601f198416895b8b8282106200035c575050841162000342575b505050811b01845562000118565b015160001960f88460031b161c1916905538808062000334565b8385015186558d9790950194938401930162000321565b9091508680528787208580850160051c8201928a8610620003bc575b918b91869594930160051c01915b828110620003ad575050620000ee565b8981558594508b91016200039d565b925081926200038f565b634e487b7160e01b86526022600452602486fd5b93607f1693620000d7565b634e487b7160e01b600052604160045260246000fd5b865163d92e233d60e01b8152600490fd5b875163d92e233d60e01b8152600490fd5b865163ecd7b0d160e01b8152600490fd5b600080fd5b6040519190601f01601f191682016001600160401b03811183821017620003e557604052565b919080601f840112156200042e5782516001600160401b038111620003e5576020906200048f601f8201601f1916830162000433565b928184528282870101116200042e5760005b818110620004b757508260009394955001015290565b8581018301518482018401528201620004a1565b51906001600160a01b03821682036200042e5756fe6080604052600436101561001257600080fd5b60003560e01c8063025916e1146101335780630455804b1461012e57806306fdde031461011f5780630e43ce0614610129578063150b7a021461012457806317d7de7c1461011f57806324c12bf6146100fc57806327d206651461010157806343a55ea11461011a5780637d5feec114610115578063893d20e8146101105780638da5cb5b1461011057806392c26bcd1461010b57806397fa49bc146101065780639ca6516314610101578063ea879634146100fc578063edf46e2b146100f7578063f1e626ff146100f25763f2fde38b146100ed57600080fd5b610df8565b610cd2565b610c0e565b6107ea565b610806565b610b08565b610a75565b610a4c565b610985565b61082f565b610632565b61078f565b61074d565b61038c565b6101bc565b9181601f840112156101665782359167ffffffffffffffff8311610166576020838186019501011161016657565b600080fd5b60c090606319011261016657606490565b60e0600319820112610166576004359167ffffffffffffffff8311610166576101aa8260c094600401610138565b90939092602319011261016657602490565b34610166576101ca3661017c565b6003549192916001600160a01b0390811633141580610312575b6103005760025461020b906101ff906001600160a01b031681565b6001600160a01b031690565b9060405180926334a1dd5360e01b825281600460209586935afa80156102ce5783916000916102d3575b5060046040518094819363a3a40ea560e01b8352165afa9081156102ce576004926000926102a1575b505061026981610e7f565b0361028f5761028b9261027b92610f91565b6040519081529081906020820190565b0390f35b604051637996d44d60e11b8152600490fd5b6102c09250803d106102c7575b6102b881836104c8565b810190610e67565b388061025e565b503d6102ae565b610e5b565b6102f39150823d84116102f9575b6102eb81836104c8565b810190610e43565b38610235565b503d6102e1565b604051636dff42d560e11b8152600490fd5b5033600052600460205260ff60406000205416156101e4565b90610120600319830112610166576004359167ffffffffffffffff90602435828111610166578161035e91600401610138565b9093909260c060431984011261016657604492610104359182116101665761038891600401610138565b9091565b346101665761039a3661032b565b9260018060a09796979493941b03806003541633141580610499575b610300576002546103d1906101ff906001600160a01b031681565b9060405180926334a1dd5360e01b825281600460209586935afa80156102ce57839160009161047c575b5060046040518094819363a3a40ea560e01b8352165afa9182156102ce5760009261045f575b505061042c81610e7f565b6001811415908161044a575b5061028f5761028b9561027b956110d2565b6002915061045781610e7f565b141538610438565b6104759250803d106102c7576102b881836104c8565b3880610421565b6104939150823d84116102f9576102eb81836104c8565b386103fb565b5033600052600460205260ff60406000205416156103b6565b634e487b7160e01b600052604160045260246000fd5b90601f8019910116810190811067ffffffffffffffff8211176104ea57604052565b6104b2565b60405190600080549060018260011c92600181169182156105d9575b6020916020861084146105c5578588528794936020860193929181156105a65750600114610545575b505050610543925003836104c8565b565b925093610573600080527f290decd9548b62a8d60345a988386fc84ba6bc95484008f6362f93160ef3e56390565b946000935b82851061059057505050610543935001388080610534565b8654858501529586019588955093810193610578565b925050506105439491925060ff19168252151560051b01388080610534565b634e487b7160e01b85526022600452602485fd5b93607f169361050b565b60005b8381106105f65750506000910152565b81810151838201526020016105e6565b6040916020825261062681518092816020860152602086860191016105e3565b601f01601f1916010190565b34610166576000806003193601126107395760405190806001906001548060011c926001821692831561072f575b60209260208610851461071b5785885260208801949081156106fa57506001146106a1575b61028b87610695818903826104c8565b60405191829182610606565b600160005294509192917fb10e2d527612073b26eecdfd717e6a320cf44b4afac2b0732d9fcbe2b7fa0cf65b8386106106e957505050910190506106958261028b3880610685565b8054858701529482019481016106cd565b60ff191685525050505090151560051b0190506106958261028b3880610685565b634e487b7160e01b82526022600452602482fd5b93607f1693610660565b80fd5b6001600160a01b0381160361016657565b346101665760203660031901126101665760043561076a8161073c565b60018060a01b03166000526004602052602060ff604060002054166040519015158152f35b34610166576080366003190112610166576107ab60043561073c565b6107b660243561073c565b60643567ffffffffffffffff8111610166576107d6903690600401610138565b5050604051630a85bd0160e11b8152602090f35b346101665760003660031901126101665761028b6106956104ef565b34610166576000366003190112610166576002546040516001600160a01b039091168152602090f35b346101665761012036600319011261016657600460443567ffffffffffffffff8111610166576108629036908301610138565b61086b3661016b565b9160018060a01b0380600354163314158061096d575b61095c5760025461089c906101ff906001600160a01b031681565b9060405180926334a1dd5360e01b8252818860209586935afa80156102ce57839160009161093f575b50876040518094819363a3a40ea560e01b8352165afa9081156102ce57600592600092610922575b50506108f881610e7f565b03610911579061027b929161028b946024359035611298565b604051637996d44d60e11b81528490fd5b6109389250803d106102c7576102b881836104c8565b38806108ed565b6109569150823d84116102f9576102eb81836104c8565b386108c5565b604051636dff42d560e11b81528590fd5b50336000528460205260ff6040600020541615610881565b34610166576000806003193601126107395760405180916005549081835260208093018092600583527f036b6384b5eca791c62761152d0c79bb0604c104a5fb6f4eb0703f3154bb3db090835b818110610a2f57505050846109e89103856104c8565b60405193838594850191818652518092526040850193925b828110610a0f57505050500390f35b83516001600160a01b031685528695509381019392810192600101610a00565b82546001600160a01b0316845292860192600192830192016109d2565b34610166576000366003190112610166576003546040516001600160a01b039091168152602090f35b3461016657602036600319011261016657600435610a928161073c565b6003546001600160a01b03919082163303610af65716600090808252600460205260408220805460ff8116610ac5578380f35b60ff191690557f6eea8bb915c3f59b2df31edd41f67162f66781fe2bd87ed8f1d1f023d38e45808280a23880808380f35b6040516330cd747160e01b8152600490fd5b3461016657610b163661017c565b6003549192916001600160a01b0390811633141580610bf5575b61030057600254610b4b906101ff906001600160a01b031681565b9060405180926334a1dd5360e01b825281600460209586935afa80156102ce578391600091610bd8575b5060046040518094819363a3a40ea560e01b8352165afa9081156102ce57600192600092610bbb575b5050610ba981610e7f565b0361028f5761028b9261027b92611453565b610bd19250803d106102c7576102b881836104c8565b3880610b9e565b610bef9150823d84116102f9576102eb81836104c8565b38610b75565b5033600052600460205260ff6040600020541615610b30565b3461016657602036600319011261016657600435610c2b8161073c565b6003546001600160a01b039081163303610af65781168015610cc057600091818352600460205260ff60408420541615610c63578280f35b6001600160a01b0381166000908152600460205260409020610c969190610c9190805460ff19166001179055565b611519565b7f21fbfc2d5ee4fd011d7fb9e096fcfc72cdd6b20fbe82b63cd0b10f488e54e0ba8280a238808280f35b60405163d92e233d60e01b8152600490fd5b3461016657610ce03661032b565b9260018060a09796979493941b03806003541633141580610ddf575b61030057600254610d17906101ff906001600160a01b031681565b9060405180926334a1dd5360e01b825281600460209586935afa80156102ce578391600091610dc2575b5060046040518094819363a3a40ea560e01b8352165afa9182156102ce57600092610da5575b5050610d7281610e7f565b60048114159081610d90575b5061028f5761028b9561027b95611598565b60059150610d9d81610e7f565b141538610d7e565b610dbb9250803d106102c7576102b881836104c8565b3880610d67565b610dd99150823d84116102f9576102eb81836104c8565b38610d41565b5033600052600460205260ff6040600020541615610cfc565b3461016657602036600319011261016657600435610e158161073c565b600354906001600160a01b03908183163303610af65716908115610cc0576001600160a01b03191617600355005b908160209103126101665751610e588161073c565b90565b6040513d6000823e3d90fd5b90816020910312610166575160078110156101665790565b60071115610e8957565b634e487b7160e01b600052602160045260246000fd5b90816020910312610166575180151581036101665790565b90816020910312610166575190565b908060209392818452848401376000828201840152601f01601f1916010190565b60a0809180518452602081015160208501526040810151604085015260608101516060850152608081015160808501520151910152565b6001600160a01b0390911681526101206020820181905293949360049361010093610f5b92610f509290850191610ec6565b956040830190610ee7565b0152565b6001600160a01b0390911681526101206020820181905293949360059361010093610f5b92610f509290850191610ec6565b6002549093929190610fad906101ff906001600160a01b031681565b604051638f97323b60e01b8152306004820152602095918690829060249082905afa9081156102ce576000916110a5575b50156110935761101c9285926000610ffd610ff761166a565b9361178f565b60405163d6e5ae7560e01b815296879586948593913060048601610f1e565b03926001600160a01b03165af19283156102ce57600093611064575b50508133907f11641d364e926d2bf231c2d36f2a9271390042d717ea334a3e7c983c27a12391600080a3565b611084929350803d1061108c575b61107c81836104c8565b810190610eb7565b903880611038565b503d611072565b604051635b48693760e01b8152600490fd5b6110c59150863d88116110cb575b6110bd81836104c8565b810190610e9f565b38610fde565b503d6110b3565b95949160008761115061112b9760209795966110f56110ef61166a565b9761178f565b916111366040519b8c9a8b998a98635737b72960e11b8a5260048a01523060248a015261016060448a0152610164890191610ec6565b936064870190610ee7565b600461012486015284830360031901610144860152610ec6565b03926001600160a01b03165af19081156102ce57600091611196575b5080927feb651e2008e47ae08a231ce83e07c87acbc86a982551e2a80413a4ef2154e8f1600080a3565b6111af915060203d60201161108c5761107c81836104c8565b3861116c565b92604095946111e2926111ed9461016091875260018060a01b031660208701528088870152850191610ec6565b926060830190610ee7565b6003610120820152610140818303910152601d81527f4a6f696e7420474142202d206c696e6b65642066726f6d20486f75736500000060208201520190565b92604095946111e2926112599461016091875260018060a01b031660208701528088870152850191610ec6565b6003610120820152610140818303910152601e81527f4a6f696e7420474142202d206c696e6b65642066726f6d2053656e617465000060208201520190565b600254909594919391906112b6906101ff906001600160a01b031681565b92604051809463059b2ddf60e01b825281600460209788935afa9081156102ce57600091611436575b506001600160a01b03903090821603611424576112fd610ff761166a565b92166040519563d6e5ae7560e01b87528587806113208789883060048601610f5f565b03816000865af19687156102ce57600097611405575b5086986040519087828061135d898b8a635737b72960e11b978886523090600487016111b5565b03816000885af180156102ce578896600093611390926113e8575b5060405198899788968795865230906004870161122c565b03925af180156102ce576113ca575b505033907f11641d364e926d2bf231c2d36f2a9271390042d717ea334a3e7c983c27a12391600080a3565b816113e092903d1061108c5761107c81836104c8565b50388061139f565b6113fe90893d8b1161108c5761107c81836104c8565b5038611378565b61141d919750863d881161108c5761107c81836104c8565b9538611336565b6040516333f1d70160e11b8152600490fd5b61144d9150853d87116102f9576102eb81836104c8565b386112df565b6114aa939261149f91600060209461147261146c61166a565b9461178f565b60405163d6e5ae7560e01b8152306004820152610120602482015298899687958694610124860191610ec6565b916044840190610ee7565b600161010483015203926001600160a01b03165af19182156102ce576000926114f8575b5033827f11641d364e926d2bf231c2d36f2a9271390042d717ea334a3e7c983c27a12391600080a3565b61151291925060203d60201161108c5761107c81836104c8565b90386114ce565b600554680100000000000000008110156104ea5760018101806005558110156115825760056000527f036b6384b5eca791c62761152d0c79bb0604c104a5fb6f4eb0703f3154bb3db00180546001600160a01b0319166001600160a01b03909216919091179055565b634e487b7160e01b600052603260045260246000fd5b95949160008761160561112b9760209795966115b56110ef61166a565b916115eb6040519b8c9a8b998a98635737b72960e11b8a5260048a01523060248a015261016060448a0152610164890191610ec6565b600561012486015284830360031901610144860152610ec6565b03926001600160a01b03165af19081156102ce5760009161164b575b5080927f74e4b6e98f9a799c235eb4e596e6d1305d196175a4fe5d708b2bfeb1cf085cb8600080a3565b611664915060203d60201161108c5761107c81836104c8565b38611621565b6001600160a01b03600460208261167f6118ae565b166040519283809263b30e917160e01b82525afa9081156102ce576000916116a657501690565b6116bf915060203d6020116102f9576102eb81836104c8565b1690565b6040519060c0820182811067ffffffffffffffff8211176104ea57604052565b6040519060c0820182811067ffffffffffffffff8211176104ea576040528160a06000918281528260208201528260408201528260608201528260808201520152565b60208183031261016657805167ffffffffffffffff9182821161016657019082601f830112156101665781519081116104ea5760405192611771601f8301601f1916602001856104c8565b8184526020828401011161016657610e5891602080850191016105e3565b6117976116e3565b506002546004906117b0906001600160a01b03166101ff565b9160206117be6101ff6118ae565b60405163bbfeced160e01b815293849182905afa9182156102ce57600092611889575b50604051633aa1e58d60e21b81529192600090839060049082906001600160a01b03165afa9182156102ce5760a09261182291600091611866575b506118e8565b61183261182d6104ef565b6118e8565b9061183b6116c3565b948552602085015260408401526060810135606084015260808101356080840152013560a082015290565b61188391503d806000833e61187b81836104c8565b810190611726565b3861181c565b600492506118a760009160203d60201161108c5761107c81836104c8565b92506117e1565b6002546040516334a1dd5360e01b81526001600160a01b03916020908290600490829086165afa9081156102ce576000916116a657501690565b8051156118f6576020015190565b5060009056fea26469706673582212203cb3ad0c0401b117c8de1f2be700e7b5cac73ab11a4b67e1434e28d4c092c8f364736f6c63430008180033",
  "linkReferences": {},
  "deployedLinkReferences": {}
}